:020000040000FA
:10000000D8420020311800003518000037180000D1
:1000100000000000000000000000000000000000E0
:10002000000000000000000000000000391800007F
:1000300000000000000000003B1800003D18000018
:100040003F18000041180000431800004518000048
:1000500047180000491800007F140000E514000054
:100060004F180000511800005318000055180000E8
:1000700057180000591800005B1800005D180000B8
:100080005F180000611800004B15000065180000A3
:1000900067180000691800006B1800006D18000058
:1000A0006F18000000000000000000007118000040
:1000B0007318000075180000771800007918000008
:1000C00000F002F800F041F80CA030C808382418FD
:1000D0002D18A246671EAB4654465D46AC4201D180
:1000E00000F033F87E460F3E0FCCB6460126334271
:1000F00000D0FB1AA246AB46334318476C370000CA
:100100008C3700000023002400250026103A01D37C
:1001100078C1FBD8520700D330C100D50B607047BF
:1001200010B5752902D103F05BF810BD002010BD99
:100130001FB503F035FB04000020002103F07CFB19
:10014000401C60601FBD10B510BD03F00AFB1146D6
:10015000FFF7EEFF01F06AFA03F035FB03B4FFF797
:10016000F2FF03BC03F036FB70B505460C4616469D
:1001700002E00FCC0FC5103E102EFAD2082E02D38B
:1001800003CC03C5083E042E07D301CC01C5361F9E
:1001900003E021782970641C6D1C761EF9D270BDB5
:1001A000F8B504460025204603F05EF8461E05E03B
:1001B000675DA05D6055A7556D1C761EB542F7DBE7
:1001C000F8BDF8B506460C46371E00DA7642002523
:1001D00000BF0A21304603F0F9F8303128466D1C83
:1001E00021540A21304603F0F1F8061EF1DC002FFD
:1001F00003DA2D2228466D1C22540020605520462B
:10020000FFF7CEFFF8BDFEB50446002600272046C6
:1002100001F08CFE204601F0C6FE204601F07BFE78
:1002200085B25A48006823460095019058480288D4
:1002300058480188019802F0BFFDFEBD10B5044684
:10024000554880798006800F022805D15248807970
:10025000302188435049887150480078012806D1E0
:100260004D4880793021884320304B4988714CA01B
:10027000FFF7C9FF4BA0FFF7C6FF4DA0FFF7C3FF75
:1002800047A0FFF7C0FF012010BD0246C807C00FFE
:100290001070022008404008507004200840800878
:1002A00090700020D07008200840C00810711079AC
:1002B000002804D13F480078401C3E4B18700120B4
:1002C000704710B53C480078012803D13BA0FFF7E8
:1002D0009AFF02E048A0FFF796FF374840780128D0
:1002E00003D152A0FFF78FFF02E05FA0FFF78BFF63
:1002F00031480079012803D16AA0FFF784FF02E0AA
:1003000072A0FFF780FF7C480078012803D17BA012
:10031000FFF779FF02E088A0FFF775FF7648407885
:10032000012803D191A0FFF76EFF02E09EA0FFF726
:100330006AFF71480079012803D1AAA0FFF763FF83
:1003400002E0B2A0FFF75FFFBB480078012803D1AD
:10035000BAA0FFF758FF02E0C7A0FFF754FFB64866
:100360004078012803D1D2A0FFF74DFF02E0DFA0C3
:10037000FFF749FFB0480079012803D1EBA0FFF750
:1003800042FF02E0F5A0FFF73EFFFDE1C8020020BA
:10039000CE020020CC020020640200204002002097
:1003A0000D0A00007E3520494E504F525400000087
:1003B0003B000000110200206B02002035D32DCA43
:1003C0003631313AF3F0EEE2E5EDFC20E2FBF5EEFA
:1003D000E4EDFBF520F1E8E3EDE0EBEEE220202098
:1003E000202020202020202020202020202D20CD53
:1003F000CED0CCC00D00000035D32DCA3631313AF5
:10040000F3F0EEE2E5EDFC20E2FBF5EEE4EDFBF5CA
:1004100020F1E8E3EDE0EBEEE220090909202020DD
:1004200020202D20C0C2C0D0C8DF0D0035D32DCA7A
:100430003631313AF3F0EEE2E5EDFC20E2EDF3F295
:10044000F0E5EDEDE8F520E8F1F2EEF7EDE8EAEEA3
:10045000E220EDE0EFF0FFE6E5EDE8E9202D20CD2C
:10046000CED0CCC00D00000035D32DCA3631313A84
:10047000F3F0EEE2E5EDFC20E2EDF3F2F0E5EDED78
:10048000E8F520E8F1F2EEF7EDE8EAEEE220EDE043
:10049000EFF0FFE6E5EDE8E9202D20C0C2C0D0C8AE
:1004A000DF0D000035D32DCA3631313AEEE1F9E5E2
:1004B000E520F1EEF1F2EEFFEDE8E50909090909A1
:1004C0000909202D20CDCED0CCC00D0035D32DCAAA
:1004D0003631313AEEE1F9E5E520F1EEF1F2EEFFE9
:1004E000EDE8E509090909090909202D20C0C2C064
:1004F000D0C8DF0D000000007002002035D32DCAE7
:100500003631323AF3F0EEE2E5EDFC20E2FBF5EEB7
:10051000E4EDFBF520F1E8E3EDE0EBEEE220202056
:10052000202020202020202020202020202D20CD11
:10053000CED0CCC00D00000035D32DCA3631323AB2
:10054000F3F0EEE2E5EDFC20E2FBF5EEE4EDFBF589
:1005500020F1E8E3EDE0EBEEE2200909092020209C
:1005600020202D20C0C2C0D0C8DF0D0035D32DCA39
:100570003631323AF3F0EEE2E5EDFC20E2EDF3F253
:10058000F0E5EDEDE8F520E8F1F2EEF7EDE8EAEE62
:10059000E220EDE0EFF0FFE6E5EDE8E9202D20CDEB
:1005A000CED0CCC00D00000035D32DCA3631323A42
:1005B000F3F0EEE2E5EDFC20E2EDF3F2F0E5EDED37
:1005C000E8F520E8F1F2EEF7EDE8EAEEE220EDE002
:1005D000EFF0FFE6E5EDE8E9202D20C0C2C0D0C86D
:1005E000DF0D000035D32DCA3631323AEEE1F9E5A0
:1005F000E520F1EEF1F2EEFFEDE8E5090909090960
:100600000909202D20CDCED0CCC00D0035D32DCA68
:100610003631323AEEE1F9E5E520F1EEF1F2EEFFA6
:10062000EDE8E509090909090909202D20C0C2C022
:10063000D0C8DF0D000000007502002035D32DCAA0
:100640003631322D313AF3F0EEE2E5EDFC20E2FBFB
:10065000F5EEE4EDFBF520F1E8E3EDE0EBEEE22072
:100660002020202020202020202020202020202D7D
:1006700020CDCED0CCC00D0035D32DCA3631322D91
:10068000313AF3F0EEE2E5EDFC20E2FBF5EEE4EDCD
:10069000FBF520F1E8E3EDE0EBEEE22009090920AB
:1006A000202020202D20C0C2C0D0C8DF0D000000B7
:1006B00035D32DCA3631322D313AF3F0EEE2E5ED85
:1006C000FC20E2EDF3F2F0E5EDEDE8F520E8F1F2E3
:1006D000EEF7EDE8EAEEE220EDE0EFF0FFE6E5ED23
:1006E000E8E9202D20CDCED0CCC00D0035D32DCAC9
:1006F0003631322D313AF3F0EEE2E5EDFC20E2ED59
:10070000F3F2F0E5EDEDE8F520E8F1F2EEF7EDE8D3
:10071000EAEEE220EDE0EFF0FFE6E5EDE8E9202D7E
:1007200020C0C2C0D0C8DF0D0000000035D32DCAE4
:100730003631322D313AEEE1F9E5E520F1EEF1F214
:10074000EEFFEDE8E509202009090909092020202C
:100750002D20CDCED0CCC00D0000000035D32DCA49
:100760003631322D313AEEE1F9E5E520F1EEF1F2E4
:10077000EEFFEDE8E509090909090909202D20C066
:10078000C2C0D0C8DF0D0000C0480078012803D1E6
:10079000BFA0FFF738FD02E0CCA0FFF734FDBB4857
:1007A0004078012803D1D6A0FFF72DFD02E0E3A099
:1007B000FFF729FDB5480079012803D1EEA0FFF726
:1007C00022FD02E0F6A0FFF71EFD012010BD10B5CE
:1007D000044601208002FD490862BBA0FFF713FD1B
:1007E000FBA0FFF710FDB8A0FFF70DFD0120800270
:1007F000F6494862012010BD10B504460120800270
:10080000F2490862B0A0FFF7FEFCF5A0FFF7FBFC81
:10081000ADA0FFF7F8FC01208002EC4948620120FE
:1008200010BD10B5044601208002E8490862A6A068
:10083000FFF7E9FCEFA0FFF7E6FCA3A0FFF7E3FC5E
:1008400001208002E1494862012010BD10B5044634
:1008500001208002DD4908629BA0FFF7D4FCE9A0DB
:10086000FFF7D1FC98A0FFF7CEFC01208002D7490A
:100870004862012010BD10B5044601208002D34912
:10088000086291A0FFF7BFFCE2A0FFF7BCFC8EA0BE
:10089000FFF7B9FC01208002CC494862012010BD5D
:1008A00010B5044601208002C849086286A0FFF7FF
:1008B000AAFCDCA0FFF7A7FC83A0FFF7A4FC0120A3
:1008C0008002C2494862012010BD70B5044600256F
:1008D000002601208002BD490862204601F063FB2A
:1008E00001208002B949486270BD70B504460D46CA
:1008F0002946204601F003FB2946204601F047FB2C
:1009000070BD704770477047704770477047002848
:1009100002D0012802D100E001E000E000BF00BFEA
:1009200070470246002000E0401C8842FCD370471C
:1009300001467047FEB5054600240026002700202A
:1009400001900090284601F0E6FAC4B22878B9492F
:10095000087008460078B84909680870B5480078FA
:100960007E2803D0B548006864281DD90020B3490B
:1009700008600120B24908700020B2490870B249ED
:100980000870B2490870B2490870B2490870B2499B
:100990000870B2490870B2490870B2490870202046
:1009A000B1490870B1490870A5480078012869D19B
:1009B000FCE1A85DAE49A34A127888540020A855EE
:1009C0000846A0490978405C202804D1A94800784D
:1009D000401CA8490870A6489A490978405C3B2801
:1009E00002D101209A490870A14896490978405CD3
:1009F0003D2805D09E4893490978405C3A2802D1A9
:100A00000120974908709A488E490978405C2E2841
:100A100002D10120934908708A480078022832DD0B
:100A20009348807820282ED1914886490978405CE7
:100A3000202811D08E4883490978405C3B280BD090
:100A400087480078012807D089487E490978405CAA
:100A50008949804A1278885481480078012813D146
:100A6000834878490978405C20280ED18048754930
:100A70000978405C3B2808D17D4872490978405C80
:100A80003D28FBE0E2E288E10BE1FEE07A02002093
:100A900035D32DCA3631343AF3F0EEE2E5EDFC20E1
:100AA000E2FBF5EEE4EDFBF520F1E8E3EDE0EBEE43
:100AB000E220202020202020202020202020202074
:100AC000202D20CDCED0CCC00D00000035D32DCAB6
:100AD0003631343AF3F0EEE2E5EDFC20E2FBF5EEE0
:100AE000E4EDFBF520F1E8E3EDE0EBEEE2200909AF
:100AF0000920202020202D20C0C2C0D0C8DF0D003A
:100B000035D32DCA3631343AF3F0EEE2E5EDFC2070
:100B1000E2EDF3F2F0E5EDEDE8F520E8F1F2EEF7C5
:100B2000EDE8EAEEE220EDE0EFF0FFE6E5EDE8E9E2
:100B3000202D20CDCED0CCC00D00000035D32DCA45
:100B40003631343AF3F0EEE2E5EDFC20E2EDF3F27B
:100B5000F0E5EDEDE8F520E8F1F2EEF7EDE8EAEE8C
:100B6000E220EDE0EFF0FFE6E5EDE8E9202D20C022
:100B7000C2C0D0C8DF0D000035D32DCA3631343A9B
:100B8000EEE1F9E5E520F1EEF1F2EEFFEDE8E50941
:100B9000090909090909202D20CDCED0CCC00D00AE
:100BA00035D32DCA3631343AEEE1F9E5E520F1EEE0
:100BB000F1F2EEFFEDE8E509090909090909202D1F
:100BC00020C0C2C0D0C8DF0D0000000000800A4075
:100BD0007E3620696E69745F4B3631313B00000010
:100BE0007E3620636F6E74726F6C5F4B3631313BB3
:100BF000000000007E3320C2EAEB5FF1E8EDF2E591
:100C0000E73B00007E3320F1EEF1F2EEFFEDE8E588
:100C10003B0000007E3420C2EAEB5FF1E8EDF2E534
:100C2000E73B00007E3420F1EEF1F2EEFFEDE8E567
:100C30003B000000D50000201C010020A000002087
:100C400086000020D10000208B0000208D000020B5
:100C50008E000020910000209200002093000020D0
:100C60009400002095000020680D0020A80D0020B1
:100C7000E80C00208F000020280D002005D1F4484A
:100C8000F4490978405C3A280BD0F34800780028F2
:100C900007D1EF48EF490978405CF049F04A1278F3
:100CA0008854F0480078012823D1E948E9490978B7
:100CB000405C202811D1E648E6490978405C3B2891
:100CC0000BD1E348E3490978405C3D2805D1E04871
:100CD000E0490978405C3A280BD0DF4800780128C9
:100CE00007D1DB48DB490978405CDF49DF4A1278ED
:100CF0008854DC480078012811D0D548D5490978B6
:100D0000405C3D280BD0D248D2490978405C3A2853
:100D100005D0D7480078401CD54908703DE0D1483F
:100D2000007801281AD1CA48CA490978405C3D2890
:100D300014D0C748C7490978405C3A280ED0C44847
:100D4000C4490978405C2E2808D0C34800780028A0
:100D500004D1C3480078401CC1490870C1480078DC
:100D600001281AD1BA48BB490978405C3D2814D003
:100D7000B748B8490978405C3A280ED0B448B5491C
:100D80000978405C2E2808D0B3480078012804D1A7
:100D9000B6480078401CB5490870AE480078401C41
:100DA000AC490870701CC6B2601EC4B2002C00DDD5
:100DB000FFE5A8480478AF48007801287DD1A44811
:100DC00000787E2805D1AC48007801210843AA4963
:100DD00008709F484078A9490978884205D1A648FB
:100DE000007802210843A4490870A348007803282A
:100DF000E4D1A3A1A44802F09BFA002804D1A3A047
:100E0000FFF701FA01F0DFF8A4A19F4802F090FA81
:100E1000002802D1A5A0FFF7F6F9AAA19A4802F08E
:100E200087FA002802D1AAA0FFF7EDF9AFA19648F2
:100E300002F07EFA002802D1AEA0FFF7E4F9B1A1DA
:100E4000914802F075FA002807D1844802F0FEF9B3
:100E5000AF490870AFA0FFF7D6F9B3A18A4802F0F6
:100E600067FA002807D17D4802F0F0F9A849087018
:100E7000B1A0FFF7C8F9B6A1834802F059FA0028DB
:100E80000ED1B6A0FFF7BFF90120BA4908700020C3
:100E9000B9490870B9490860B9490870B94908608A
:100EA000B9A1794802F044FA00283FD16B4802F01A
:100EB000CDF9974908706C4800E0C6E002F0C6F929
:100EC000B549087092480078097888422ED1904838
:100ED0000078B2490870FA20B14908708C4801784E
:100EE000B048FFF7D2F9B048007800280FD1AFA082
:100EF000FFF789F986480278B2A1B34802F026F9D3
:100F0000B148FFF780F99AA0FFF77DF902E00020D1
:100F1000A54908700120AD49087000209649087065
:100F2000964908609649087096490860A8A15648F5
:100F300002F0FEF900280ED1A8A0FFF764F9FFF730
:100F4000C0F90120AB4908700020AB4908708B49FB
:100F500008608B490870A9A14B4802F0E9F9002804
:100F60000ED1A8A0FFF74FF90120AB49087000206F
:100F7000AA4908708149086081490870A849086039
:100F8000A8A1414802F0D4F900282ED1334802F03C
:100F90005DF95F490870344802F058F97E490870DD
:100FA0005B480078097888421FD159480178A148E8
:100FB000FFF76BF9A0A0FFF726F95548027881A149
:100FC000814802F0C3F88048FFF71DF968A0FFF7D9
:100FD0001AF901209F49087000209049087067495C
:100FE0000860674908708E4908609BA1264802F096
:100FF0009FF900280ED19AA0FFF705F901209D491D
:10100000087000209C4908705C4908605C490870C1
:101010009A4908609AA11C4802F08AF9002814D164
:101020000E4802F013F93A4908700F4802F00EF921
:1010300059490870364800780978884205D1344803
:1010400001789348FFF721F924E13EE1A0E1000097
:10105000E80C0020D100002095000020680D002041
:101060009200002094000020A80D00209300002092
:10107000910000208E0000208D00002088000020BC
:1010800068656C7000000000280D0020EFF0E8EDAE
:10109000FFEB2068656C700D00000000F1E8EDF5D5
:1010A000F0EEF1E8E3EDE0EBFB310000EFF0E8ED0E
:1010B000FFEB20F1E8EDF5F0EEF1E8E3EDE0EBFB1E
:1010C000310D0000434F4D4D414E445F4F4B0000EA
:1010D0004F4B2120EFF0E8EDFFEB20EFEEE4F2E2E2
:1010E000E5F0E6E4E5EDE8E5210D000073796E63D7
:1010F0005F310000EFF0E8EDFFEB2073796E635F86
:10110000310D00005544505F636F6E74726F6C0058
:1011100097000020EFF0E8EDFFEB205544505F63AF
:101120006F6E74726F6C0D00506163686B615F630A
:101130006F6E74726F6C0000EFF0E8EDFFEB205003
:101140006163686B615F636F6E74726F6C0D00003A
:10115000696E69745F4B3631310000000D20EFF08D
:10116000E8EDFFEB20696E69745F4B36313120206A
:101170000D000000F4010020F30100201402002003
:101180009800002018020020F1EEF1F2EEFFEDE8E9
:10119000E55FCA3631310000960000205E02002073
:1011A000620200206B02002063020020EFF0E8EDF5
:1011B000FFEB20F1EEF1F2EEFFEDE8E520CA36316B
:1011C000313A0000257500000B160020F5010020C3
:1011D000F1EEF1F2EEFFEDE8E50000000D20EFF09A
:1011E000E8EDFFEB20F1EEF1F2EEFFEDE8E5202077
:1011F0000D0000000802002007020020E2EAEB5F79
:10120000363132000D20EFF0E8EDFFEB20E2EAEBA3
:101210005F36313220200D00FE010020FD0100204C
:1012200020020020F1EEF1F2EEFFEDE8E55FCA36B4
:1012300031320000700200200D20EFF0E8EDFFEBEE
:1012400020F1EEF1F2EEFFEDE8E520CA3631323A58
:1012500000000000FF010020E2EAEB5F36313300BE
:101260000D20EFF0E8EDFFEB20E2EAEB5F363133E3
:1012700020200D0001020020000200202402002096
:10128000F1EEF1F2EEFFEDE8E55FCA363133000032
:1012900075020020F8A0FEF7B6FFFE480278FEA116
:1012A000FE4801F053FFFD48FEF7ADFFFCA0FEF73E
:1012B000AAFF0120FB4908700020FB490870FB4988
:1012C0000860FB490870FB490860FB48007801286A
:1012D0001ED1FA48007801281AD1F9480078002870
:1012E00016D1F8480078312812D101208002F64941
:1012F0000862EBA0FEF787FFF4480178F448FFF797
:10130000F4FAE7A0FEF77FFF01208002EE49486271
:10131000E948007801283BD1002404E00020ED4991
:101320000855601CC4B2402CF8DB002404E0002007
:10133000E9490855601CC4B2402CF8DB002404E0E5
:101340000020E6490855601CC4B2402CF8DB00249C
:1013500004E00020DE490855601CC4B2402CF8DBD4
:101360000020DF490860DF490870D8490870DE496D
:101370000870D24908700024CF490870DB49087012
:10138000DB490870DB490870DB490870DB490870ED
:10139000FEBD0220DA49086270470220D84948623F
:1013A000704710B5002303E00270401C5C1CA3B220
:1013B0008B42F9DB10BD30B504460D46202229468C
:1013C0002046FFF7EEFF30BD10B50246CD4803685A
:1013D00000200870CC480068984211D201200870A3
:1013E00009E0C948006800781070521CC6480068BF
:1013F000401CC54C2060C44800689842F1D328E0E6
:10140000C1480068834222D2C048007800281CD01E
:1014100016E0BD48006800781070521C491CBA489C
:101420000468BB48844206D1FF38B74C20600020D6
:10143000B64C207004E0B4480068401CB24C2060F8
:10144000B14800689842E4D103E0012010BD0120BA
:10145000FCE70020FAE710B5AE48007801280DD16E
:10146000AD49AE48FFF7B0FF0020AA490870AB486D
:10147000FFF760FA012080029349486210BD08B569
:101480001021A74A5160A64940390968CAB20092A2
:10149000694608789B49096808709A4909689A4A18
:1014A000126891420CD199490978002905D001218F
:1014B0009C4A11700021954A11700121954A1170C2
:1014C00090490A6892498A4206D1FF398D4A1160D3
:1014D00001218E4A117004E08A490968491C894A31
:1014E000116008BD08B510218F4A51608E494039FE
:1014F0000968CAB20092694608788249096808708A
:1015000080490968804A126891420CD17F49097864
:10151000002905D00121834A117000217B4A1170F6
:1015200001217C4A117077490A6879498A4206D1BB
:10153000FF39744A11600121744A117004E0714945
:101540000968491C6F4A116008BD10B57748448886
:101550004480E007C00F002809D0754800F06EFBFA
:101560007449088008460188714801F03FFD10BDAC
:10157000704770477047FFB583B00C4615461E464E
:101580000C9F6D48039901606C4804806C4805808D
:101590003046FFF7CFF9039833462A462146009795
:1015A000029001F009FC07B0F0BD002802D1002133
:1015B000644A1170012804D162490978C943614A1B
:1015C0001170022804D15F490978C9435D4A11703E
:1015D000032802D1FF215B4A11705A49097800297A
:1015E00004D00121C903464A516203E00121C90325
:1015F000434A11627047012802D10103524A116225
:10160000022802D1C102504A5162032801D10020B0
:1016100003E00A2801DA411CC8B2C82803DD012111
:101620000903494A51627047704770471FB500BFB0
:1016300046A30FCB6C460FC40025002400F0CCFB62
:1016400000F03CFC00F082FC00F0E5F900F026F927
:1016500000F03EF900F08AFB00F06CFB00F0A2FB0A
:10166000122000F0B8F8062000F0B5F8072000F0CE
:10167000B2F83A483A4975E00D20EFF0E8EDFFEB9B
:1016800020F1EEF1F2EEFFEDE8E520CA3631333A13
:101690000000000097000020257500000B160020B8
:1016A0000D000000020200200002002014020020B1
:1016B00098000020240200208E0000208D000020D1
:1016C000890000208800002000800A40D10000200E
:1016D000E80C0020280D0020680D0020A80D002037
:1016E000A0000020860000208B0000209100002038
:1016F000920000209400002093000020950000201C
:1017000000800C402C000020300000201C00002035
:10171000A70700201E00002070000020A80C002059
:10172000400003401D0000204080034020000030A6
:1017300064030020A4050020C8020020CC02002081
:10174000CE020020D002002000800B4048656C6C67
:101750006F20576F726C64210D0A0000A8050020ED
:1017600028000020086021490860214821490860BC
:1017700021490860802021494862C0004862400138
:101780001F490862C0101F49486200F01CFC21E09C
:101790001D48854201D26D1C00E000251B48844293
:1017A00001D2641C00E00024FFF755FE1648854274
:1017B00005D117A0FFF789F80120194908701348CF
:1017C000844203D117480078FFF7EFFE1648C08A1D
:1017D0001548C08ADCE7C206D20E012191404209B9
:1017E0009200124BD21811607047000024000020B4
:1017F000A8060020300000202C00002000800A40B5
:1018000000800C4000800B4020A1070070110100F7
:101810007E36204C445F636F6E74726F6C3B0000C9
:10182000630200205E0200202000003000E100E0A2
:1018300015480047FEE7FEE7FEE7FEE7FEE7FEE7A6
:10184000FEE7FEE7FEE7FEE7FEE7FEE7FEE7FEE770
:10185000FEE7FEE7FEE7FEE7FEE7FEE7FEE7FEE760
:10186000FEE7FEE7FEE7FEE7FEE7FEE7FEE7FEE750
:10187000FEE7FEE7FEE7FEE7FEE700000348044957
:10188000044A054B70470000C1000000D822002028
:10189000D8420020D8320020D832002000200A4947
:1018A00088600A48C86000200860486008464068B0
:1018B0000921C9010843044948600846806900209D
:1018C000C04388617047000000800A40FFFF0000AD
:1018D0000020084988600848C86000200860064861
:1018E0004860084680690020C0438861704701490C
:1018F0000860704700000B40FFFF000010B5024673
:10190000F74B988A77231B011840D3024C002343DE
:101910005B1C1843F24CA08200BFF14BDB8A102401
:101920002340002BF9D010BD30B5ED4CE280C40649
:10193000E40C0325AD032C43CD06ED0E2C432025EE
:101940002C432346E64CA38000BFE54CA488012528
:10195000ED032C40002CF8D030BD10B50246D00667
:10196000C00C0724640320432030CC06E40E20433F
:101970000346DB4CA38000BFD94880880124E403E0
:1019800020400028F8D0D648C08810BD0721C906DD
:10199000002002E0002204C1401C0122D202904239
:1019A000F8D3704700B503200007C069032109047C
:1019B00008430903C861FFF7E9FF01200003032181
:1019C0000907088000200881488188810120C00320
:1019D000C88160200882502048820120400288820D
:1019E0000520C882BF480883BF484883BF48C861F4
:1019F0000020BB490880401E488000200881C801A3
:101A0000488103200007C0690D2189038843032111
:101A10000907C86100BD00B503211C20FFF76EFF58
:101A2000B3480088032109074880B148408888806E
:101A3000AF488088C880FFF7B5FF0F20A84908800D
:101A400000BDF3B583B00B46A54EF6890296A44EB1
:101A50007589029EAE4207D9029E761BB7B26E46CA
:101A6000B7800027F7800CE001267603761BB7B21B
:101A70006E46B78001273F03029EF61BB7B26E4643
:101A8000F7806E46B788F688BE19083E9E4254DB42
:101A90001C46039A0726F606A81910C06E46B6889B
:101AA000361FB7B26E46B78086B2924FBE4200DD97
:101AB0009148DE1C0096F617B70F009EBE19B410B1
:101AC0006E46B6889E4208DB002103E040CA40C053
:101AD0004E1CB1B2A142F9D321E06E46B688009601
:101AE000F617B70F009EBE19B610A41B002103E025
:101AF00040CA40C04E1CB1B26E46B6880096F6177A
:101B0000B70F009EBE19B6108E42F1DC7A48002154
:101B100003E040CA40C04E1CB1B2A142F9D386B224
:101B2000744FBE4200DD7448002410C086B2714F6D
:101B3000BE4200DD70486A4F788105B0F0BDF3B554
:101B400085B00C46002604960396654EB68902962B
:101B5000634E35890598029EAE4206DD029E761BD5
:101B6000B6B203960026049606E001263603761BDD
:101B7000B6B20396029E04960726F606AA19E61C3C
:101B80000096F617B70F009EBE19B603340C039EDD
:101B9000B44215DC002310E040CA019601A90E787A
:101BA0000670401C4E780670401C8E780670401CF3
:101BB000CE780670401C5E1CB3B2A342ECDB2FE073
:101BC000039EA61BB4B2002310E040CA019601A9EF
:101BD0000E780670401C4E780670401C8E78067099
:101BE000401CCE780670401C5E1CB3B2039EB3420C
:101BF000EBDB0722D206002310E040CA019601A9C0
:101C00000E780670401C4E780670401C8E78067068
:101C1000401CCE780670401C5E1CB3B2A342ECDBC5
:101C200096B2364FBE4201DD0722D2062C4F3A81D2
:101C30003E46368A203E3E8207B0F0BDF1B584B004
:101C400000200390002226488089029024480589BC
:101C50000298A84205DD0298401B82B20020039042
:101C600005E001200003401B82B202980390072088
:101C7000C0062918049C01C90190101F82B288B2C5
:101C80001E4FB84201DD0721C90668468088C01C86
:101C90000090C017870F0098381886106846808813
:101CA000904207DC002302E001C901C45B1CB3427F
:101CB000FAD32AE01046D717BF0F3F18BF10F61B04
:101CC000002302E001C901C45B1CD717BF0FBF1876
:101CD000BF109F42F6D80721C906002313E0000079
:101CE0002000003006840000FA81000080000330EC
:101CF0000C000020FC1F000000100038FF0F000047
:101D000001C901C45B1CB342FAD388B2074FB84281
:101D100001DD0721C906064F39813846008A20387F
:101D200038826846808805B0F0BD0000FF0F0000D3
:101D30002000003009480A498860002008600948EE
:101D4000C8600020486008464068074908430449C5
:101D500048600020C0438861704700004001003C9B
:101D600000800B40FFFF00000710000000200A4920
:101D700088600A48C8600020086008464068FF2163
:101D8000C90108430449486008468069044908437A
:101D9000014988617047000000000C40FFFF00000F
:101DA00000C0FF3F0020094988600948C860002042
:101DB000086048600846406806490843034948608F
:101DC000084680690020C0438861704700800C404D
:101DD000FFFF0000018000003249C9690122D206DC
:101DE0001143304AD1613049886B80098001382124
:101DF0000143072211432C4A91630521294A91602E
:101E000000BF284909680C2211400C29F9D1254945
:101E1000C96801221143234AD1601146C9680222D0
:101E20001143204AD1602149516000BF1D49096812
:101E3000022211400229F9D11A49C9690822114325
:101E4000184AD16120211A4A11601649C96908222D
:101E50009143144AD1611146C96804221143114AC1
:101E6000D1601146C968921511430E4AD1601146DE
:101E7000C968521591430B4AD1601146C968F022D6
:101E80009143084AD1601146C968D16039210906D9
:101E900051631146C969074A1143024AD161064993
:101EA000916270470000024000800D40040B00006A
:101EB00000800140C000E002020200030D20214921
:101EC0004862012088626020C86210201D494031AC
:101ED00048601C4988631C480863704700BF194963
:101EE0008969202211402029F9D01649086000BFD5
:101EF00014498969082211400829F9D0704730B582
:101F000004460D46002303E0E05CFFF7E7FF5B1C9F
:101F1000AB42F9D330BD0146002001E0421CD0B2F3
:101F20000A5C002A01D07828F8DB704730B50446F7
:101F30002046FFF7F0FF054629462046FFF7DFFF62
:101F400030BD000000000340010300000D201B49CC
:101F50004862012088626020C86210201749403121
:101F600048601649886316480863704700BF1349E4
:101F70008969202211402029F9D01049086000BF4A
:101F80000E498969082211400829F9D0704730B5F7
:101F900004460D46002303E0E05CFFF7E7FF5B1C0F
:101FA000AB42F9D330BD70B504462046FFF7B3FF0E
:101FB000054629462046FFF7EAFF70BD0080034032
:101FC00001030000704770B50546002403E035A00A
:101FD000FEF719F9641C142CF9DB33A0FEF713F992
:101FE00032A0FEF710F930A0FEF70DF938A0FEF789
:101FF0000AF939A0FEF707F93AA0FEF704F941A063
:10200000FEF701F944A0FEF7FEF848A0FEF7FBF842
:102010004DA0FEF7F8F853A0FEF7F5F856A0FEF72E
:10202000F2F85AA0FEF7EFF85BA0FEF7ECF863A019
:10203000FEF7E9F86DA0FEF7E6F878A0FEF7E3F802
:1020400082A0FEF7E0F88DA0FEF7DDF895A0FEF780
:10205000DAF89EA0FEF7D7F8A3A0FEF7D4F8AEA05A
:10206000FEF7D1F810A0FEF7CEF8B1A0FEF7CBF83E
:10207000B8A0FEF7C8F8C4A0FEF7C5F8CFA0FEF7D9
:10208000C2F8D7A0FEF7BFF8E2A0FEF7BCF8EEA0BA
:10209000FEF7B9F8F9A0FEF7B6F893A0FEF7B3F88B
:1020A00002E200002D0000000D0000002E2E2E2E5A
:1020B0002E2E2E2E2E2E5465726D696E616C20CAE6
:1020C0003631342E2E2E2E2E2E2E2E2E0D0A0000C0
:1020D0004D454E55203A0D002D2D2D2D2D2D2D0D1C
:1020E00000000000D0E0F1F8E8F4F0EEE2EAE020D1
:1020F000F1F2F0F3EAF2F3F0FB20EAEEECE0EDE4CB
:10210000FB3A0D007E202D20F1F2E0F0F2EEE2FB32
:10211000E920E1E0E9F20D0031202D20E0E4F0E5D6
:10212000F120E0E1EEEDE5EDF2E00D00D3F1F2E0BB
:10213000EDEEE2E8F2FC5F4630202D2020EAEEECE6
:10214000E0EDE4E00D0000003D3330303030303061
:1021500030202D20E4E0EDEDFBE520EAEEECE0EDB3
:10216000E4FB0D003B2D20EAEEEDE5F620EFE0F775
:10217000EAE8200D000000002E2E2E2E2E2E2E2EF0
:102180002E2E2E2E2E2E200D00000000C0E4F0E595
:10219000F1E03A200D00000031202D2035D32DCA6A
:1021A0003631342020202C20F1E8EDF5F0EEEDE87A
:1021B000E7E0F2EEF0203A200D00000033202D2061
:1021C00035D32DCA3631322020202C20F1E8EDF213
:1021D000E5E7E0F2EEF020F7E0F1F2EEF2FB20E8C6
:1021E000E7EBF3F7E5EDE8FF20200D0034202D208C
:1021F00035D32DCA3631322D31202C20F1E8EDF2C5
:10220000E5E7E0F2EEF020F7E0F1F2EEF2FB20E39A
:10221000E5F2E5F0EEE4E8EDE0200D0036202D20BB
:1022200035D32DCA3631312020202C20F4EEF0ECAD
:10223000E8F0EEE2E0F2E5EBFC20EEEFEEF0EDFB95
:10224000F520F7E0F1F2EEF220200D002D2D2D2DDE
:102250002D2D2D2D2D2D2D2D2D2D2D2D2D2D2D2DAE
:102260002D2D2D2D2D2D2D2D2D2D2D2D2D2D2D2D9E
:102270002D2D2D2D2D2D2D2D2D0D0A0049502020D9
:102280003A3139322E3136382E312E313633202D37
:1022900020495020E0E4F0E5F120202020E1EBEEA1
:1022A000EAE00D00504F52543A32303534202020AD
:1022B000202020202020202D20EDEEECE5F020EF46
:1022C000EEF0F2E020E1EBEEEAE00D007E31206876
:1022D000656C703B202D20F2E5EAF3F9E5E520EC92
:1022E000E5EDFE0D000000002D2D2D2D2D2D2D2DA9
:1022F0002D2D2D2D2D2D2D2D2D2D2D2D2D2D2D2D0E
:102300002D2D2D2D2D2D2D2D2D2D2D2D2D2D2D2DFD
:102310002D2D2D0D0000000020D1E8EDF2E5E7E0C5
:10232000F2EEF02020352DD32DCA3631320D0000CB
:102330007E3320D3F1F2E0EDEEE2E8F2FC5F4630CE
:102340003D3433303030303030303B20E220C3F683
:102350000D0000007E3320D3F1F2E0EDEEE2E8F272
:10236000FC5FF7E0F1F2EEF2F35F465F6C6F773AF5
:102370003433303030303030303B20202028E4EB14
:10238000FF20CBD7CC290D007E3320D3F1F2E0ED36
:10239000EEE2E8F2FC5FF7E0F1F2EEF2F35F465FA7
:1023A000686967683A3433323030303030303B203F
:1023B0002028E4EBFF20CBD7CC290D007E3320D39F
:1023C000F1F2E0EDEEE2E8F2FC5FC0ECEFEBE8F2F8
:1023D000F3E4F33A31353B09E220C4C1EC0D0000CF
:1023E0007E3320D3F1F2E0EDEEE2E8F2FC5FE4E5CB
:1023F000E2E8E0F6E8FE5FCBD7CC3A32303030305E
:1024000030303B20E220C3F62028E4EBFF20CBD77E
:10241000CC290D007E3320C4EBE8F2E5EBFCEDEEB9
:10242000F1F2FC5FE8ECEFF3EBFCF1E05F54E8EC79
:10243000EF3A31303B2020E220ECEAF12028E4EBB7
:10244000FF20CBD7CC290D007E3320D7E0F1F2EE70
:10245000F2E05FEFEEE2F2EEF0E5EDE8FF5F46E876
:10246000ECEF3A3130303030303B2020E220C3F600
:102470002028E4EBFF20CBD7CC290D007E3320D3DE
:10248000F1F2E0EDEEE2E8F2FC5FCBD7CC3B202DA1
:1024900020E2EAEBFEF7E0E5F220CBD7CC20F1E832
:1024A000E3EDE0EB0D00000018A0FDF7ACFE1DA071
:1024B000FDF7A9FE1CA0FDF7A6FE24A0FDF7A3FED4
:1024C0002FA0FDF7A0FE3BA0FDF79DFE42A0FDF76B
:1024D0009AFE4EA0FDF797FE59A0FDF794FE65A069
:1024E000FDF791FE0FA0FDF78EFE0EA0FDF78BFE0F
:1024F0006BA0FDF788FE0BA0FDF785FE09A0FDF798
:1025000082FE08A0FDF77FFE70BD000020C3E5F24B
:10251000E5F0EEE4E8ED2020352DD32DCA3631323A
:102520002D310D000D0000007E3420D3F1F2E0EDDE
:10253000EEE2E8F2FC5F46303D343330303030308C
:1025400030303B20E220C3F60D0000007E3420D363
:10255000F1F2E0EDEEE2E8F2FC5FF7E0F1F2EEF22C
:10256000F35F465F6C6F773A343330303030303061
:10257000303B20202028E4EBFF20CBD7CC290D00D6
:102580007E3420D3F1F2E0EDEEE2E8F2FC5FF7E01A
:10259000F1F2EEF2F35F465F686967683A3433320E
:1025A0003030303030303B202028E4EBFF20CBD7D8
:1025B000CC290D007E3420D3F1F2E0EDEEE2E8F21A
:1025C000FC5FC0ECEFEBE8F2F3E4F33A31353B09A2
:1025D000E220C4C1EC0D00007E3420D3F1F2E0ED26
:1025E000EEE2E8F2FC5FE4E5E2E8E0F6E8FE5FCB6D
:1025F000D7CC3A323030303030303B20E220C3F696
:102600002028E4EBFF20CBD7CC290D007E3420C45A
:10261000EBE8F2E5EBFCEDEEF1F2FC5FE8ECEFF35A
:10262000EBFCF1E05F54E8ECEF3A31303B2020E284
:1026300020ECEAF12028E4EBFF20CBD7CC290D00D9
:102640007E3420D7E0F1F2EEF2E05FEFEEE2F2EE60
:10265000F0E5EDE8FF5F46E8ECEF3A31303030303E
:10266000303B2020E220C3F62028E4EBFF20CBD72C
:10267000CC290D007E3420D3F1F2E0EDEEE2E8F259
:10268000FC5FCBD7CC3B202D20E2EAEBFEF7E0E568
:10269000F220CBD7CC20F1E8E3EDE0EB0D00000019
:1026A0002B2B2B2B2B2B2B2B2B2B2B2B2B2B2B2B7A
:1026B0002B2B2B2B0D00000070B50546002411E0DC
:1026C0000A216143A24A88180422294600F0ECFC42
:1026D000002805D10A2060439D494018001D70BDA7
:1026E000601CC4B20A2CEBDB0020F8E7FEB50546FF
:1026F0000E460020019000270090002440E00A20B0
:1027000060439349401801460A7810464A781202FD
:1027100010438A7812041043C97809060843002838
:1027200005D00198002802D10120019000940A20D0
:1027300060438749401801460A7810464A781202D9
:1027400010438A7812041043C97809060843337885
:10275000194673781B021943B3781B041943F278A6
:1027600012061143884209D10A216143784A891827
:10277000081D0622294600F089FC0127601CC4B20E
:102780000A2CBCDB002F12D10A2200995143704A57
:1027900088180422314600F079FC0A22009951433E
:1027A0006B4A8918081D0622294600F06FFCFEBD01
:1027B0007CB504460D461C2000F09EFB6549086070
:1027C00006200968087104206249096848710222DC
:1027D00061496048006800F059FC02225F495D4889
:1027E0000068801C00F052FC06225D4959480068D0
:1027F000083000F04BFC04225A49564800680E305D
:1028000000F044FC0622294652480068123000F0CD
:102810003DFC042221464F480068183000F036FC89
:1028200051490A786846027149784171818801806E
:102830002B464B4A1C214748006800F092FB7CBDA8
:10284000F0B58DB005460E4617462C4602222146AD
:102850000CA800F01BFC0222A11C0BA800F016FC27
:102860000122211D0AA800F011FC0122611D09A806
:1028700000F00CFC0222A11D08A800F007FC0622B3
:102880002146083106A800F001FC042221460E3141
:1028900005A800F0FBFB06222146123103A800F038
:1028A000F5FB04222146183102A800F0EFFB2C466C
:1028B00004222C492046183000F0F6FB002844D1B1
:1028C00021460E31881FFFF711FF1C2000F014FB7A
:1028D000044602222049204600F0D8FB02221F496C
:1028E000A01C00F0D3FB062020710420607102229E
:1028F0001E49A01D00F0CAFB0622194920460830D7
:1029000000F0C4FB0422174920460E3000F0BEFB45
:102910000622294608312046123000F0B7FB062275
:1029200029460E312046183000F0B0FB0E490A78D7
:102930006846027149784171818801802B460833CD
:10294000074A1C21204600F00CFB0DB0F0BD000032
:10295000101C0020D40200203A030020380300207D
:102960000C000020000000203C030020663800001E
:1029700010B50446614804800088001D6049088045
:102980000846008800F0A6FA5E490860084600681C
:10299000001D5D4908600846006810BD30B502465C
:1029A0000B460021002007E0012800D103E044008D
:1029B000145B611800BF401C9842F5D30C0C8DB21B
:1029C0006119CC43548030BDF7B582B00F46144630
:1029D0004E480068054608354D480088083886B2DC
:1029E000204600F0B6F847490860084600680830FD
:1029F0004549086042480480008808383F490880FB
:102A0000444800783F490968087000203D4909683A
:102A1000487000213B4800688170C1703B480168E4
:102A20004879097900020843364909680871000AA3
:102A3000487136480168C8798979000208433149EC
:102A400009688871000AC871324629462E48006814
:102A500000F01CFB2A4802882A480168002000F088
:102A600053FB284909688870000AC87002980190D1
:102A700029480378224801882248019A006800F01A
:102A800012F905B0F0BD37B582B00C4615461F48A7
:102A90000460201D214908601D4805800088001F32
:102AA0001F49088020781F490978884205D102987B
:102AB0002A4621460190FFF787FF05B030BDF8B5E3
:102AC0000D4616461C46069F0F480068844208D0F3
:102AD0003846FFF74DFF3A4621460B48006800F0A4
:102AE000D5FA084800680570064800684670044832
:102AF000018804480068FFF751FFF8BDF402002088
:102B0000F6020020EC020020F0020020E00200208B
:102B1000EA020020F902002014030020E402002051
:102B2000E8020020F802002010B502460021002033
:102B300007E0052800D103E04300D35A591800BF2D
:102B4000401C0A28F5D30B0C8CB21919CB435381C6
:102B500010BD10B5044671480480008814307049D7
:102B600008800846008800F0B5F96E4908600846FC
:102B7000006814306C4908600846006810BD38B51C
:102B800004460D46042269492046103000F08CFAB4
:102B900000283FD166480460006814306549086029
:102BA0000222A11C644800F071FA63480088FF21EA
:102BB00009020840001260490978090208435E4989
:102BC00008800846008814385C490880607A5C49AF
:102BD000097888420CD1042221460C31684600F065
:102BE00065FB56480288534801680098FFF74BFF81
:102BF000607A5449097888420CD1042221460C316C
:102C0000684600F053FB4D4802884A480168009826
:102C100000F09EF838BD37B50446154600BF207851
:102C2000F021884340302070207800090001401DC9
:102C30002070002060703A480088FF210902084097
:102C400000123749097809020843A070000AE070B1
:102C5000002020716071E07980218843E071E07983
:102C600040218843E071E07920218843E071E079D8
:102C7000A17900020843400B4003A071000AE071F3
:102C80008020207265720020A072E0720422274921
:102C900020460C3000F00AFB042201A92046103027
:102CA00000F004FB3EBDFFB583B004460D461E4652
:102CB0001D480068844208D02846FFF74AFF2A468C
:102CC00021461948006800F0E1F9059832460146AE
:102CD000029014480068FFF79EFF14221148016813
:102CE000002000F011FA0F4909688872000AC872C2
:102CF00005A8FFF7E1FC074613490A786846027207
:102D000049784172018901803B46104A0448018894
:102D10000448006800F025F907B0F0BD1203002058
:102D200010030020080300200C03002000000020F6
:102D3000FC02002000030020040300200603002002
:102D40001403002015030020380300200C0000208D
:102D500037B582B00C4615464D4804602046083011
:102D60004C4908604C480580008808384B49088069
:102D700002980190084600880090628821884548A2
:102D800003680198FEF7F7FB05B030BD10B50446A7
:102D9000434804800088083042490880084600887B
:102DA000FFF7D7FE404908600846006808303F49F1
:102DB00008603D48006810BD7FB586B01C460E9D7A
:102DC0003A480068844208D02846FFF7DFFF2A46C9
:102DD00021463648006800F059F932480088FF2142
:102DE0000902084000122F4909780902084305909A
:102DF000022207A92C480068801C00F047F9022233
:102E000008A92948006800F041F9022205A92648CE
:102E10000068001D00F03AF9002023490968C880C5
:102E20000422234902A800F031F9042206A903A8CC
:102E300000F02CF90021684601741E4801786846AC
:102E40004174818A41820C2202A9002000F040F9DD
:102E500006461448028814480168304600F054F9C8
:102E60000190022201A910480068801D00F00EF9AF
:102E7000069800900F4803780A4801880A48009A8B
:102E80000068FFF710FF0AB070BD70477047000080
:102E90002003002024030020280300202A03002010
:102EA00036030020340300202C03002030030020D0
:102EB000000000201503002001466348634A1060AB
:102EC000634800680E30624A1060624801805F48C3
:102ED0000068704701466048604A1060104600680C
:102EE0000E305F4A10605F48018000880E305E4AF5
:102EF00010805B480068704701465C485C4A10607F
:102F0000104600680E305B4A10605B480180008804
:102F10000E305A4A10805748006870477FB5044603
:102F20000E46154606223146A01D00F0AFF80622D7
:102F30002946204600F0AAF8022203A920460C30B8
:102F400000F0A4F87FBDF8B506460F4614461D46AE
:102F5000069803462A46214600903046FFF7DEFFDA
:102F6000F8BDF8B504460D4616461F463C480068B5
:102F700084420FD1069803463A46314600903748BE
:102F80000068FFF7CBFF3848018834480068FEF737
:102F900058FD2AE03748006884420FD1069803465E
:102FA0003A463146009032480068FFF7B7FF334891
:102FB00001882F480068FEF744FD16E02846FFF719
:102FC00089FF2A462146009000F060F806980346E3
:102FD0003A463146009021480068FFF79FFF22489B
:102FE00001881E480068FEF72CFDF8BD70B5044648
:102FF0000D461648046000680E30154908601548F3
:103000000580008812381E49088002221D4920468A
:103010000C3000F049F8002805D1194801880C4807
:103020000068FFF7ACFD0222174920460C3000F083
:103030003BF8002806D1A21D114801880448006809
:10304000FFF7FEFB70BD0000741E00204C03002043
:103050005003002054030020741C00204003002073
:10306000440300204A03002048030020742000206D
:10307000580300205C03002062030020600300204E
:1030800056030020380300203C03002070B50C4696
:103090000546002305E026782E706D1C641C5E1C1E
:1030A000B3B29342F7DB70BDF0B503460D461E4642
:1030B000002409E030782F78B84201D00120F0BD1B
:1030C000761C6D1C601C84B29442F3DB0020F6E792
:1030D000F0B504460B461646D70FBF19FF033D0C4B
:1030E0002046002107E05F5C4E1C9E5D3602BE1943
:1030F00030188E1CB1B26E008E42F4DC6E00964227
:1031000001DA5E5C3018F0BDF0B505460C4610469D
:10311000D70F3F18FF033E0C2B46002107E0675CEA
:10312000481C205C00023818C318881C81B270004B
:103130008842F4DC7000904201DA605CC318180C1D
:103140009FB2C319D84380B2F0BD00000FB41CB5C4
:10315000074B06AA7B4469460090059800F03DFAAB
:103160000020694600F04CFA1CBC08BC04B01847AB
:10317000A9040000F8B50E4604460020206220464F
:10318000E1688847002829D0252802D06268A16814
:1031900020E0E16820460027884705001ED0284629
:1031A0004138192802D80127FF022035324620462F
:1031B00027602946FCF7B4FF002808D0012804D076
:1031C000F61DF608F6000836D9E7361DD7E762681F
:1031D0002846A1689047206A401CCFE7206AF8BDC6
:1031E000F7B5002575291068009914A611D0C046BE
:1031F000C046002802DA404211A608E0009909689A
:103200008A0701D50FA602E0490704D50EA60125BD
:1032100001E0C046C046009F0024243704E000F0CF
:103220002DFA30313955641C0028F8D12B4632462E
:103230002146009800F074F9FEBD00000000000077
:103240002D0000002B0000002000000070B5064695
:1032500000F062F90468054630460A22002100F0B9
:10326000D5F92C6070BD000030B5441C03E0017836
:10327000401C00290DD08107F9D10B4BDD0104C89A
:10328000D11A91432940FAD0001B0A0603D0C01E70
:1032900030BD001B30BD0A0401D0801E30BD0902C4
:1032A000FCD0401E30BD000001010101F8B5042A28
:1032B0002CD3830712D00B78491C0370401C521E7C
:1032C00083070BD00B78491C0370401C521E8307E8
:1032D00004D00B78491C0370401C521E8B079B0FB7
:1032E00005D0C91ADF002023DE1B08C90AE0FCF75D
:1032F0003BFFF8BD1D4608C9FD401C46B4402C43A9
:1033000010C0121F042AF5D2F308C91A521EF0D4B5
:103310000B78491C0370401C521EEAD40B78491CE0
:103320000370401C012AE4D409780170F8BD000044
:10333000024670B50A4392072AD11E4DEE0104C819
:1033400008C9541B9443344017D0D0B2D9B2401AA4
:103350002106014310D190B299B2401A21040143D1
:103360000AD110021902000A090A401A2102014377
:1033700002D1100E190E401A70BD9A42DFD010BA59
:1033800019BA884201D9012070BD0020C04370BD28
:1033900002780B78401C491C002A09D09A4207D1B8
:1033A00002780B78401C491C002A01D09A42EFD0C9
:1033B000D01A70BD01010101002203098B422CD3F8
:1033C000030A8B4211D300239C464EE003460B4375
:1033D0003CD4002243088B4231D303098B421CD3D7
:1033E000030A8B4201D394463FE0C3098B4201D3C9
:1033F000CB01C01A524183098B4201D38B01C01A01
:10340000524143098B4201D34B01C01A5241030977
:103410008B4201D30B01C01A5241C3088B4201D326
:10342000CB00C01A524183088B4201D38B00C01AD3
:10343000524143088B4201D34B00C01A5241411AFA
:1034400000D201465241104670475DE0CA0F00D0DD
:103450004942031000D34042534000229C460309D6
:103460008B422DD3030A8B4212D3FC22890112BA5C
:10347000030A8B420CD3890192118B4208D3890134
:1034800092118B4204D389013AD0921100E089094C
:10349000C3098B4201D3CB01C01A524183098B422D
:1034A00001D38B01C01A524143098B4201D34B0116
:1034B000C01A524103098B4201D30B01C01A524179
:1034C000C3088B4201D3CB00C01A524183088B4200
:1034D00001D38B00C01A5241D9D243088B4201D389
:1034E0004B00C01A5241411A00D201466346524174
:1034F0005B10104601D34042002B00D54942704773
:1035000063465B1000D3404201B50020C046C04670
:1035100002BD704770477047004870477422002012
:10352000FFB504460D4681B024300090216888061E
:1035300004D51022E0699143216000E00120A842F7
:1035400001DD471B00E000270498A1697A191018D3
:10355000081AA0612078C00602D42046C046C046A2
:10356000002608E003986268A168805D9047206AA1
:10357000401C761C206204988642F3DB2078C0064B
:103580000AD52046C046C04606E06268A1683020E1
:103590009047206A401C206238467F1E0028F4DCD9
:1035A00007E000986268A168405D9047206A401C6F
:1035B000206228466D1E0028F3DC2046C046C04627
:1035C0002078000602D5022005B0F0BD0120FBE7FF
:1035D00001694A1C02610878704700B58FB00291FA
:1035E0000021059105490193794403911146049006
:1035F0006846FFF7BFFD0FB000BD0000E5FFFFFF0D
:103600000A681070521C0A6070470000F7B50F4638
:103610000026009C2578641C002D05D000F046F89B
:103620000068405DC007F5D12B2D02D02D2D18D09C
:10363000641E3946029A204600F040F8002F04D05C
:103640003968A14201D1009939607105022400292D
:103650000BDA4042002803DDFFF75EFF0460A0079D
:10366000FEBD012080020643E3E70028F8DAFFF7F9
:1036700053FF04600048FEBDFFFFFF7F0146800846
:10368000081A02091018020A1018020C1018C008B3
:10369000820012185200891A01E0401C0A390A29D6
:1036A000FBD27047004870477422002010B500F02C
:1036B00077F8001D10BD00BF81010000F7B5154669
:1036C00082B00027029C2078641C0197302802D029
:1036D000002D15D015E020780127641C782804D02F
:1036E000582802D0002D09D00BE0002D01D0102D5C
:1036F00007D1207800271025641C02E0082500E08F
:103700000A250026009610E0009901276943081851
:1037100029467143020C80B200908E18380486420C
:1037200001D3012001902078641C294600F03CF868
:103730000028E9DA0398002805D0002F01D0641E84
:1037400000E0029C04600198002806D0FFF7E4FE28
:1037500002210160C81E05B0F0BD00993004084385
:10376000F9E77546FFF79EFFAE46050069465346EA
:10377000C008C000854618B020B5FEF77FF860BCD1
:1037800000274908B6460026C0C5C0C5C0C5C0C58B
:10379000C0C5C0C5C0C5C0C5403D49008D467047C5
:1037A00000487047942200203A2800D23038202365
:1037B00002469A43412A01D310463738884201D342
:1037C0000020C04370470446C046C0462046FCF770
:1037D000C5FC000001491820ABBEFEE72600020030
:1037E000704770B58C180578401C6B075B0F01D1D2
:1037F0000378401C2A1106D10278401C03E00678A9
:10380000401C0E70491C5B1EF9D12B0705D4002308
:10381000521E0DD40B70491CFAE70378401CCB1ADA
:10382000921C03E01D780D70491C5B1C521EF9D5DB
:10383000A142D8D3002070BD10B500290AD0087865
:10384000002807D005487844FFF772FD002801D012
:10385000002010BD0248784410BD00004200000066
:103860003A0000000001000298390000000000202A
:1038700064030000E2370000F83900006403002010
:10388000743F00000401000010010000430000002C
:10389000F8FFFFFF00404040404040404040414171
:1038A0004141414040404040404040404040404015
:1038B00040404040400502020202020202020202AF
:1038C00002020202022020202020202020202002AC
:1038D000020202020202909090909090101010103C
:1038E00010101010101010101010101010101010D8
:1038F000020202020202888888888888080808086C
:103900000808080808080808080808080808080837
:10391000020202024000000000000000000000005F
:103920000000000000000000000000000000000097
:103930000000000000000000000000000000000087
:103940000000000000000000000000000000000077
:103950000000000000000000000000000000000067
:103960000000000000000000000000000000000057
:103970000000000000000000000000000000000047
:103980000000000000000000000000000000000037
:1039900000000000000000001DC0A801A304D00C1E
:1039A000010806CB990123456789AB024401320522
:1039B0003206021B070A31316D29304A90350296D2
:1039C000030918D21A50B232101A30232908111ADA
:1039D000022E1A010D09183309183409453001B8AF
:1039E0000A31C2D3021B084301111AFF01091B400F
:0839F000042601080600000096
:04000005000000C136
:00000001FF
