:020000040800F2
:10000000D8640020652000086D2000086F200008DB
:10001000712000087320000875200008000000000F
:100020000000000000000000000000007720000831
:1000300079200008000000007B2000087D200008D7
:100040007F2000087F2000087F20000800000000BB
:10005000000000007F200008751A0008D31A00086D
:100060007F200008000000007F2000087F2000089B
:100070007F200008000000007F2000087F2000088B
:100080007F2000087F200008000000007F2000087B
:100090007F200008000000000000000000000000B9
:1000A0000000000000000000000000007F200008A9
:1000B0007F2000087F2000087F2000087F200008A4
:1000C00000F002F800F04BF80AA090E8000C82441F
:1000D0008344AAF10107DA4501D100F040F8AFF2FC
:1000E000090EBAE80F0013F0010F18BFFB1A43F016
:1000F00001031847182E0000382E0000103A24BFC4
:1001000078C878C1FAD8520724BF30C830C144BF7C
:1001100004680C60704700000023002400250026BE
:10012000103A28BF78C1FBD8520728BF30C148BF5A
:100130000B607047642902F09384782902F0CC8424
:10014000002070471FB502F097FE04000020002138
:1001500002F0B2FE401C60601FBD10B510BD02F081
:1001600066FE1146FFF7EEFF01F072FD02F096FE0B
:1001700003B4FFF7F2FF03BC02F096FE70B5FD4C2E
:1001800000200221A060E06020616061C4E90601F6
:10019000606003210125C4E908154020F64E208047
:1001A0002146304601F0CEFF2020656020802146A8
:1001B0003046BDE8704001F0C5BF2DE9F041ED4C7F
:1001C00000200226A060E06020616061C4E90606AC
:1001D000606003210125C4E90815E84F2580214608
:1001E000384601F0AFFF6560268021463846BDE8FD
:1001F000F04101F0A7BF2DE9F041DE4C01260025BA
:10020000C4E90265256165612420A56120806660DE
:1002100003276662DFF86883C4E907572146404632
:1002200001F090FF0820208066626560C4E90757EE
:100230002146404601F086FF4FF4E0602080666072
:100240006662DFF83483C4E907572146404601F06F
:1002500079FF8020208066626560C4E907572146E7
:10026000404601F06FFF278066606662DFF8148306
:10027000C4E907572146404601F064FF042020806E
:1002800066626560C4E907572146404601F05AFF9F
:100290004020208066606662DFF8EC82C4E9075780
:1002A0002146404601F04EFF8F2020806662656047
:1002B000C4E9075721464046BDE8F04101F042BF7E
:1002C00070B5AC4CC02001252080656000266562B9
:1002D000C4E907652146AA4801F034FF28022080BE
:1002E00065606562C4E907652146A34801F02AFFFD
:1002F0000220208065606562C4E907652146BDE88B
:100300007040A04801F01EBF9A4810B528304FF445
:10031000E1310160602181800021C1800181418142
:100320004FF440718181994C0146204602F07DFADC
:100330000121204602F0C8FA20460122BDE8104003
:10034000102102F0CCBA8B4810B528304FF4E131BF
:100350000160602181800021C180018141814FF4D1
:10036000407181818A4C0146204602F05EFA0121EB
:10037000204602F0A9FA20460122BDE810401021D3
:1003800002F0ADBA2DE9F05F7A4C082001262080FA
:100390006660002502276662C4E90757DFF8DC8142
:1003A00021464046656101F0CDFE60202080E76176
:1003B00066606561C4E908762146404601F0C2FEE8
:1003C00003202080DFF8CC8121464046666001F0A2
:1003D000B9FE0420208066606662C4E907572146A2
:1003E0004046656101F0AEFEDFF8ACB1042158462D
:1003F00002F0ECF90421694802F0E8F904F1380050
:1004000002F0A2F93834FF26268010276780A580E5
:100410004FF00F08A4F806804FF08009A4F8089068
:100420004FF0400AA4F80AA0A581E581214658466C
:1004300002F077F926806780A580A4F80680A4F8EA
:100440000890A4F80AA0A581E5812146534802F04E
:1004500068F90121584602F082F9BDE8F05F0121F8
:100460004E4802F07CB9C00000E0401E0028FCD1DC
:10047000704770B5484D04461021284602F0A1F996
:100480000128F9D0434A4FF49675012C0CD0002C6A
:1004900012D12846FFF7E7FF0421104601F0E7FEDE
:1004A0002846BDE87040DEE72846FFF7DCFF042160
:1004B000104601F0D8FEF3E770BD70B5374D044625
:1004C0001021284602F07DF90128F9D02B4A4FF47B
:1004D0009675012C0CD0002C12D12846FFF7C3FFD3
:1004E0000821104601F0C3FE2846BDE87040BAE777
:1004F0002846FFF7B8FF0821104601F0B4FEF3E7E5
:1005000070BD70B5244C05460121204602F059F912
:100510000028F9D029462046BDE8704002F04CB9C9
:1005200070B51E4C05460121204602F04AF900280C
:10053000F9D029462046BDE8704002F03DB910B51B
:10054000154C0421204602F03CF90028F9D0204641
:10055000BDE8104002F032B910B5104C042120461D
:1005600002F02FF90028F9D02046BDE8104002F033
:1005700025B900006C00002000000B4000000C407A
:1005800000800A4000800B4000800C400080034047
:100590000000034000800E400000044000000A40BC
:1005A00010B50121C80601F06FFE012001F0D1FE57
:1005B00001F0E1FE0128FBD10521022001F043FFFB
:1005C000012001F05BFF01F0D6FE0128FBD10820DD
:1005D00001F06EFF012001F04DFF4FF480742046C2
:1005E00001F05BFE0121102001F04EFE01214805C3
:1005F00001F04AFE0121880501F046FE0121C805EF
:1006000001F042FE0121080601F03EFE01214806EC
:1006100001F03AFE0121480701F036FE0121204693
:1006200001F032FE0121080501F02EFE01214020DB
:1006300001F02AFE0121802001F026FE0021EC4875
:1006400002F0A8F90021EB4802F0A4F9062001F01D
:1006500045FCBDE81040072001F040BC10B5042166
:10066000E54801F000FEBDE810400121E34801F03B
:10067000FABD10B50421E04801F0F9FDBDE81040D5
:100680000121DE4801F0F3BD70B5D94D044680214B
:10069000284602F07AF90128F9D121462846BDE81A
:1006A000704002F042B970B5D24D04468021284610
:1006B00002F06BF90128F9D121462846BDE87040C7
:1006C00002F033B9F0B591B00D46064600246F46EE
:1006D00005E0305D3855FFF7D7FF641CE4B2AC424B
:1006E000F7D311B0F0BDF0B591B00D460646002429
:1006F0006F4605E0305D3855FFF7D5FF641CE4B266
:10070000AC42F7D3EDE70146002001E0401CC0B247
:100710000A5C002A01D07828F8D3704710B5034648
:10072000FFF7F1FFC1B2BDE810401846CAE710B5A7
:100730000346FFF7E8FFC1B2BDE810401846D2E714
:1007400070B50546002402F000FA401E05E0295D60
:100750002A5C2A552954401E641C8442F7DB70BD74
:1007600030B40200054600D56A4200200A2392FBFD
:10077000F3F403FB142492FBF3F230340C54401CCA
:10078000002AF4DC002D02DA2D220A54401C00223B
:100790000A5430BC0846D3E710B50446FFF7BEFF45
:1007A0002046BDE81040C2E770B50C460546FFF78D
:1007B00089FF21462846BDE8704094E7002352B2E5
:1007C00003E05B1C00F8012B9BB28B42F9D370470E
:1007D0002022F3E770B58A4B00259A6B0D70DC6B15
:1007E00094420CD201240C70D96B05E0097800F812
:1007F000011BD96B491CD9639142F7D317E0A24280
:1008000013D2197889B17F4E06F1FF04D96B91425A
:100810000DD0097800F8011BD96BA14202D1DE632B
:100820001D70F3E7491CD963F0E7012070BD00207B
:1008300070BD704710B5002473A0FFF7ADFF641CB6
:10084000032CF9DB002471A0FFF7A6FF641C0F2C1A
:10085000F9DB6DA0FFF7A0FF6BA0FFF79DFF6AA07B
:10086000FFF79AFF68A0FFF797FF69A0FFF794FFD3
:1008700065A0FFF791FF64A0FFF78EFF62A0FFF76E
:100880008BFF6DA0FFF788FF6DA0FFF785FF6FA0BE
:10089000FFF782FF72A0FFF77FFF76A0FFF77CFFD4
:1008A0007AA0FFF779FF80A0FFF776FF83A0FFF71C
:1008B00073FF87A0FFF770FF88A0FFF76DFF91A07F
:1008C000FFF76AFF99A0FFF767FFA4A0FFF764FF97
:1008D000AEA0FFF761FFB3A0FFF75EFFB7A0FFF781
:1008E0005BFFBCA0FFF758FFC0A0FFF755FFC4A0F7
:1008F000FFF752FFC7A0FFF74FFFCBA0FFF74CFF5A
:10090000CEA0FFF749FFD0A0FFF746FFD4A0FFF726
:1009100043FFD7A0FFF740FFD9A0FFF73DFFDFA0BF
:10092000FFF73AFFE7A0FFF737FFEDA0FFF734FF2F
:1009300035A0FFF731FF34A0FFF72EFFF3A0FFF73C
:100940002BFF31A0FFF728FF2FA0FFF725FFBDE801
:1009500010402DA0E2E610B50C46F2A0FFF71CFFF8
:1009600064B2312C02D1F7A0FFF716FF322C02D16E
:10097000F6A0FFF711FFBDE8104023A00CE770B50B
:1009800005460C4620A0FFF707FFF2A0FFF704FF83
:100990002A46F6A1F64802F01BF8F548FFF7FCFEE0
:1009A00019A0FFF7F9FE2079312802D1E5A0FFF761
:1009B000F3FE2079322802D1E4A0FFF7EDFE12A069
:1009C000FFF7EAFE0A2D0CD0502D0ED0642D0DD06D
:1009D0007D2D0CD0E7A0FFF7DFFEBDE870400AA038
:1009E000DAE6A07920F02000DDE1D5E1D8E1DDE113
:1009F000000003400080034000800A4000800B405C
:100A000000000020B40100200D0000002A000000BA
:100A10002E2E2E2E2E2E5465726D696E616C20D492
:100A2000CED72D3120CAEEECEFEBE5EAF6E8FF2D4C
:100A300031322E2E2E2E0D004D454E55203A0D00F2
:100A40002D2D2D2D2D2D2D0D000000007E202D2073
:100A5000F1F2E0F0F2EEE2FBE920E1E0E9F20D0074
:100A600031202D20E0E4F0E5F120E0E1EEEDE5EDD0
:100A7000F2E00D0073746172745F544350202D20B6
:100A800020EAEEECE0EDE4E00D0000003D33303014
:100A90003030303030202D20E4E0EDEDFBE520EA71
:100AA000EEECE0EDE4FB0D003B2D20EAEEEDE5F68B
:100AB00020EFE0F7EAE8200D000000002E2E2E2E99
:100AC0002E2E2E2E2E2E2E2E2E2E200D000000002D
:100AD000C0E4F0E5F1E03A200D00000031202D20C7
:100AE00031D32DCA3678782020202C20F1E8EDF57E
:100AF000F0EEEDE8E7E0F2EEF020ECE0F1F2E5F008
:100B00003A200D0032202D2031D32DCA3678782D91
:100B100031202C20F1E8EDF5F0EEEDE8E7E0F2EE23
:100B2000F020F0E5E7E5F0E20D00000033202D2095
:100B300031D32DCA367878202C20F1E8EDF2E5E7A4
:100B4000E0F2EEF020F7E0F1F2EEF2FB20E8E7EB66
:100B5000F3F7E5EDE8FF20200D00000034202D2004
:100B600031D32DCA367878202C20F1E8EDF2E5E774
:100B7000E0F2EEF020F7E0F1F2EEF2FB20E3E5F236
:100B8000E5F0EEE4E8EDE020200D000036202D2019
:100B900031D32DCA367878202C20D4CED720200D02
:100BA000000000002B2B2B2B2B2B2B2B2B2B2B2B41
:100BB0002B2B2B2B2B2B2B0D000000007E312077B5
:100BC000617463685F7265675FD4C0CFD7313B0DD6
:100BD000000000007E312077617463685F72656792
:100BE0005FD4C0CFD7323B0D000000007E3120D44F
:100BF000C0CFD7315F4B6469763128293B0D0000A7
:100C00007E3120D4C0CFD7325F4B6469763128293A
:100C10003B0D00007E3120D4C0CFD7315F4B6469DB
:100C2000763228293B0D00007E3120D4C0CFD73248
:100C30005F4B6469763228293B0D00007E312068C5
:100C4000656C703B0D0000007E31205350495F738E
:100C5000656E6428293A307835353B0D0000000078
:100C60007E3120D4C0CFD7315F696E69743B0D00EF
:100C70007E3120D4C0CFD7325F696E69743B0D00DE
:100C80007E3120C2EAEBFEF7E8F2FC5FF1E8EDF21C
:100C9000E5E7E0F2EEF03B0D000000007E3120C8F9
:100CA000EDE4E8EAE0F6E8FF5FF1EEF1F2EEFFEDE9
:100CB000E8FF5FF1E8EDF2E5E7E0F2EEF0E03B0D92
:100CC000000000007E3120D3F1F2E0EDEEE2E8F228
:100CD000FC5FC0ECEFEBE8F2F3E4F33D303B0D00DA
:100CE0007E31204144433D313B2020EFF0EEE2E5F0
:100CF000F0EAE02041444320ECE8EAF0EEEAEEEDD1
:100D0000F2F0EEEBEBE5F0E00D0000002B2B2B2BCF
:100D10002B2B2B2B2B2B2B2B2B2B2B2B2B2B2B2B23
:100D20000D0A0000C8EDE4E8EAE0F6E8FF20F1F281
:100D3000F0F3EAF2F3F0FB20E1E8F220D4C0CFD7E1
:100D40003A000000D4C0CFD7310D0000D4C0CFD7B7
:100D5000320D00002E2EF3F1F2E0EDEEE2EAE0209B
:100D6000EAEEE4E0204B646976313A002564000045
:100D7000340300202E2E4B64697631202D20CDC502
:100D8000D220D2C0CACEC3CE20CACEC4C021212117
:100D90002E2E2E0D00000000A07920F0200008E08B
:100DA000A07940F0200020F0400004E0A07940F05D
:100DB000200040F04000A0710FE670B50C460546DB
:100DC000AFF2BC30FFF7E8FCF7A0FFF7E5FC2A46DE
:100DD000AFF26801FA4801F0FBFDF948FFF7DCFCCF
:100DE000AFF2DC30FFF7D8FC2079312803D1AFF225
:100DF000AC00FFF7D1FC2079322803D1AFF2B40068
:100E0000FFF7CAFCAFF20040FFF7C6FCA02D11D0DF
:100E1000502D13D0282D17D0142D19D0C82D1BD02C
:100E2000642D21D0322D27D00A2D2FD0BDE870405F
:100E3000E4A0B1E4A07920F0800010E0A07920F0D7
:100E4000800014E0E07170BDA07920F0800016E011
:100E5000A07920F080001CE0A07940F08000A07113
:100E6000E07920F001000EE0A07940F08000A07150
:100E7000E07920F0010010E0A07940F08000A0713E
:100E8000E07940F0010020F00200DBE7A07940F0BB
:100E90008000A071E07940F0010040F00200D1E74D
:100EA00070B50C460546AFF2A040FFF775FCCEA02A
:100EB000FFF772FC2A46AFF24C11C14801F088FDE1
:100EC000BF48FFF769FCAFF2C040FFF765FC20792F
:100ED000312803D1AFF29410FFF75EFC207932285D
:100EE00003D1AFF29810FFF757FCAFF2E440FFF7E1
:100EF00053FCA5606068290C61F39D60606070BD63
:100F0000704710B5BE4C00202073FFF7A7FBAFF26F
:100F10000850FFF741FCBBA0FFF73EFCA27DAFF2FB
:100F2000B411A748803801F053FDA5488038FFF779
:100F300033FCB9A0FFF730FCA27DAFF2D011A0487E
:100F4000803801F045FD9E488038FFF725FCB3A0AE
:100F5000FFF722FCAFF25050FFF71EFCBDE8104037
:100F6000FFF787BB2DE9F05F07460023FFF7CBFBB8
:100F7000DFF88C92C1B2387889F80E0099F80E002B
:100F800099F80E00DFF838A201250AF1C00A002600
:100F90000AF1400B7E2803D0D9F8440064281AD9FE
:100FA000C9F8446089F81C5089F80D6089F81D6003
:100FB00089F81E6089F81F6089F8056089F8065075
:100FC00089F8075089F8086089F8096020208AF8B4
:100FD00000008BF8000099F81C00794C403401287F
:100FE0007ED0BDE8F09FFA5C99F80DC0484604F841
:100FF0000C20FE5499F80D20A25C202A04D190F810
:101000002020521C80F82020427BA25C3B2A00D189
:10101000C577427BA25C3D2A03D0427BA25C3A2A80
:1010200000D10572427BA25C2E2A00D14572427B20
:10103000022A5FD9A278202A5CD1427BA25C202AB6
:101040000FD0427BA25C3B2A0BD0027A012A08D047
:10105000427B14F802C05A4A90F80580803202F8A8
:1010600008C0027A012A18D1427BA25C202A14D03F
:10107000427BA25C3B2A10D0427BA25C3D2A0CD072
:10108000427BA25C3A2A08D0427A32B9427B14F8F9
:1010900002C090F806800AF808C0027A012A19D125
:1010A000427BA25C202A15D0427BA25C3B2A11D055
:1010B000427BA25C3D2A0DD0427BA25C3A2A09D039
:1010C000427A012A06D1427B14F802C090F80780C8
:1010D0000BF808C0027A012A0DD0427BA25C00E026
:1010E00039E03D2A07D0427BA25C3A2A03D04279FC
:1010F000521C427128E0027A012A10D1427BA25C84
:101100003D2A0CD0427BA25C3A2A08D0427BA25CEA
:101110002E2A04D0427A12B98279521C8271027A44
:10112000012A11D1427BA25C3D2A0DD0427BA25CF8
:101130003A2A09D0427BA25C2E2A05D0427A012AA3
:1011400002D1C279521CC271427B521C42735B1C99
:10115000491EDBB2C9B200297FF445AF99F80D00F2
:1011600099F81F0001287DD120787E2805D199F8B3
:101170001E0040F0010089F81E00607899F8041004
:10118000884205D199F81E0040F0020089F81E003F
:1011900099F81E000328E6D1094821A1803001F00A
:1011A000F3FC00B940E049E02E2EF3F1F2E0EDEE61
:1011B000E2EAE020EAEEE4E0204B646976323A00AD
:1011C000340300202E2E4B64697632202D20CDC5AD
:1011D000D220D2C0CACEC3CE20CACEC4C0212121C3
:1011E0002E2E2E0D000000002E2EF3F1F2E0EDEE7B
:1011F000E2EAE020EAEEE4E0204B646976333A006C
:10120000000000207E3120F1EEF1F2EEFFEDE8E586
:101210005FCA3631313A00002E0000003B0000006A
:1012200068656C7000000000F8A0FFF7B5FA742044
:10123000FFF700FB89F80B60C9F82C50F7A1FB48B9
:1012400001F0A2FC38B9FAA0FFF7A6FA09F15000A4
:1012500007C8FFF780FBFCA1F44801F095FC48B9F2
:10126000FDA000E0C8E3FFF797FA09F15C0007C8AA
:10127000FFF771FBFEA1ED4801F086FCB8B9EB4821
:10128000403001F055FCC9F84000FAA0FFF784FA9D
:10129000E648FBA18038D9F8402001F099FBE348EB
:1012A0008038FFF779FAAFF28850FFF775FAF5A1A9
:1012B000DE4801F069FC38BBDC48403001F038FC06
:1012C000C9F84000F5A0FFF767FAD848ECA18038CC
:1012D000D9F8402001F07CFBD4488038FFF75CFA55
:1012E000AFF6DC00FFF758FAD0488038FFF716FA5F
:1012F000AFF6EC00FFF750FACC488038FFF717FA4A
:10130000AFF6FC00FFF748FAECA1C84801F03CFC3E
:1013100008BBC648403001F00BFCC9F84000EAA009
:10132000FFF73AFAC148D6A18038D9F8402001F039
:101330004FFBBE488038FFF72FFAAFF63410FFF7A7
:101340002BFAB9F8400080B2FFF7DBF8B9F840009B
:1013500080B2FFF7E5F8E1A1B44801F015FC10BB3D
:10136000B248403001F0E4FBC9F84000DFA0FFF7CD
:1013700013FAAFF20861AD48D9F84020803801F087
:1013800027FBAA488038FFF707FAAFF68410FFF76B
:1013900003FADC49D9F84000FFF7F1FA09F15000EF
:1013A00007C800F0ADFDD8A1A04801F0EDFB18BBC7
:1013B0009E48403001F0BCFBC9F84000D6A0FFF7C2
:1013C000EBF9AFF258619948D9F84020803801F024
:1013D000FFFA96488038FFF7DFF9AFF6D410FFF731
:1013E000DBF9C849D9F840000C31FFF7C8FA09F118
:1013F0005C0007C800F0DDFDCDA18C4801F0C4FB06
:1014000010BB8A48403001F093FBC9F84000CCA0E3
:10141000FFF7C2F9AFF2AC618448D9F840208038B8
:1014200001F0D6FA81488038FFF7B6F9AFF62820E8
:10143000FFF7B2F9B349D9F84000FFF7BEFC09F154
:10144000500007C800F05CFDC3A1784801F09CFB88
:1014500018BB7648403001F06BFBC9F84000C2A0D1
:10146000FFF79AF9AFF2FC617048D9F84020803854
:1014700001F0AEFA6D488038FFF78EF9AFF67820AC
:10148000FFF78AF99F49D9F840000C31FFF795FC26
:1014900009F15C0007C800F08CFDB9A1634801F0B8
:1014A00073FB10BB6148403001F042FBC9F84000BB
:1014B000B7A0FFF771F9AFF24C715C48D9F8402042
:1014C000803801F085FA59488038FFF765F9AFF6A2
:1014D000C820FFF761F98B49D9F84000FFF7E0FC1D
:1014E00009F1500007C800F00BFDAFA14F4801F013
:1014F0004BFB18BB4D48403001F01AFBC9F84000C7
:10150000ADA0FFF749F9AFF29C714848D9F84020E7
:10151000803801F05DFA45488038FFF73DF9AFF6B5
:101520001830FFF739F97749D9F840000C31FFF747
:10153000B7FC09F15C0007C800F03BFDA4A13B48E3
:1015400001F022FB88BBA5A0FFF726F999F8160049
:1015500010B9A7A0FFF720F999F81600012802D1C9
:10156000A7A0FFF719F999F81600022802D1A9A03F
:10157000FFF712F999F81600032802D1AAA0FFF785
:101580000BF9ADA0FFF708F999F81620AFF6240182
:101590002648803801F01CFA24488038FFF7FCF810
:1015A00096A0FFF7F9F8FFF7ACFCA7A11F4801F0E0
:1015B000EBFA38B9A7A0FFF7EFF809F1500007C818
:1015C00000F09EFCA8A1194801F0DEFA38B9A9A0E4
:1015D000FFF7E2F809F15C0007C800F0EAFCAAA1F5
:1015E000124801F0D1FA20B9AAA0FFF7D5F889F87E
:1015F0001760ADA10D4801F0C7FA10B9B2A0FFF70E
:10160000CBF8BBA1094801F0BFFA7BE1EFF0E8EDB0
:10161000FFEB2068656C700D00000000776174635B
:10162000685F7265675FD4C0CFD73100B403002014
:10163000EFF0E8EDFFEB2077617463685F72656738
:101640005FD4C0CFD7310D0077617463685F726576
:10165000675FD4C0CFD73200EFF0E8EDFFEB207723
:10166000617463685F7265675FD4C0CFD7320D0065
:1016700041444300EFF0E8EDFFEB204144433A00E2
:1016800025780000D3F1F2E0EDEEE2E8F2FC5FC075
:10169000ECEFEBE8F2F3E4F300000000EFF0E8ED2C
:1016A000FFEB20D3F1F2E0EDEEE2E8F2FC5FC0ECFC
:1016B000EFEBE8F2F3E4F33A000000005350495F27
:1016C00073656E6428290000EFF0E8EDFFEB20530E
:1016D00050495F73656E6428293A0000D4C0CFD7A3
:1016E000315F4B646976312829000000EFF0E8EDA6
:1016F000FFEB20D4C0CFD7315F4B64697631282906
:101700003A00000050000020D4C0CFD7325F4B64B5
:101710006976312829000000EFF0E8EDFFEB20D4D6
:10172000C0CFD7325F4B6469763128293A00000078
:10173000D4C0CFD7315F4B646976322829000000CE
:10174000EFF0E8EDFFEB20D4C0CFD7315F4B6469F9
:10175000763228293A000000D4C0CFD7325F4B64DC
:101760006976322829000000EFF0E8EDFFEB20D485
:10177000C0CFD7325F4B6469763228293A00000027
:10178000D4C0CFD7315F4B6469763328290000007D
:10179000EFF0E8EDFFEB20D4C0CFD7315F4B6469A9
:1017A000763328293A000000D4C0CFD7325F4B648B
:1017B0006976332829000000EFF0E8EDFFEB20D434
:1017C000C0CFD7325F4B6469763328293A000000D6
:1017D0004C445F636F6E74726F6C0000EFF0E8ED65
:1017E000FFEB204C445F636F6E74726F6C0D0000F2
:1017F000C7E0F5E2E0F2EEE220EDE5F20D000000D8
:10180000C7E0F5E2E0F220C3E5F2E5F0EEE4E8ED52
:10181000E00D0000C7E0F5E2E0F220D1E8EDF2E5EE
:10182000E7E0F2EEF00D0000CEE1E020E220E7E09C
:10183000F5E2E0F2E50D00004C445F636F6E7472F8
:101840006F6C28293A000000D4C0CFD7315F696E91
:1018500069740000EFF0E8EDFFEB20D4C0CFD73182
:101860005F696E69740D0000D4C0CFD7325F696EB6
:1018700069740000EFF0E8EDFFEB20D4C0CFD73261
:101880005F696E69740D0000D4CED75F696E6974AC
:1018900000000000EFF0E8EDFFEB20D4CED75F6949
:1018A0006E69740D00000000C8EDE4E8EAE0F6E8B7
:1018B000FF5FF1EEF1F2EEFFEDE8FF5FF1E8EDF230
:1018C000E5E7E0F2EEF0E000EFF0E8EDFFEB20C836
:1018D000EDE4E8EAE0F6E8FF5FF1EEF1F2EEFFEDAD
:1018E000E8FF5FF1E8EDF2E5E7E0F2EEF0E00D0091
:1018F000C2EAEBFEF7E8F2FC5FF1E8EDF2E5E7E0C3
:10190000F2EEF00010B9F3A0FEF746FFF8A1FE4892
:1019100001F03AF9D0B9FC48403001F009F989F8F2
:101920002200F948803001F003F9C0B289F82100A3
:1019300099F82210814209D1F348403001F0F8F8BB
:1019400089F81550C9F8486089F80A60EFA1EE4897
:1019500001F01AF9D0B9EC48403001F0E9F889F803
:101960002200E948803001F0E3F8C0B289F8210094
:1019700099F82210814209D1E348403001F0D8F8AB
:1019800089F81350C9F8486089F80A60E6A1DE4872
:1019900001F0FAF848B989F8105089F80F60C9F8D1
:1019A000486089F80A60C9F84C60E2A1D64801F0A5
:1019B000EBF838B989F81150C9F8486089F80A601D
:1019C000C9F84C60E0A1D04801F0DEF838B989F8D8
:1019D0001450C9F8486089F80A60C9F84C60E1A160
:1019E000C94801F0D1F838B989F81250C9F84860EF
:1019F00089F80A60C9F84C6099F81F00012801D1E4
:101A000099F81E0099F81F0001287FF4EAAABE4940
:101A100000200E54401CC0B24028FAD3002051468A
:101A20000E54401CC0B24028FAD3002059460E5430
:101A3000401CC0B24028FAD300202654401CC0B23B
:101A40004028FAD3C9F8446089F81C6089F80D6011
:101A500089F81D6089F81E6089F81F6089F80560A3
:101A600089F8066089F8086089F8076089F80960D4
:101A7000BDE8F09F2DE9F041C14F1021384600F03C
:101A80003DFF0125BF4C01281AD0606A012815D1FD
:101A900000263846666200F04BFFA570A16B087007
:101AA000E06B814204D1207808B165702670A57082
:101AB000B54881420AD1FF38A0632570BDE8F081A6
:101AC0001021384600F01FFF6562E1E7491CA16361
:101AD000F4E72DE9F041AD4F1021384600F00EFF3C
:101AE0000125A84C012819D0A06A0128E6D10026BA
:101AF0003846A66200F01CFFA570A16B0870E06B71
:101B0000814204D1207808B165702670A5709E4886
:101B1000814209D1FF38A0632570CFE710213846F4
:101B200000F0F1FEA562E2E7491CA163C6E710B52B
:101B3000944CA07801280ED19348E11C4130FEF767
:101B400049FE0020A07090484130FFF70BFABDE835
:101B50001040FEF78EBD10BD10B502218C4800F07C
:101B60007BFB044604218B4800F076FB40EA4400EE
:101B7000C0B210BD10B50446052810D0082C10D0F6
:101B8000072C10D0062C10D0012C10D0042C10D013
:101B9000032C10D0022C12D0092C12D018E07EA0F9
:101BA0000AE081A008E086A006E08BA004E090A0F7
:101BB00002E093A000E098A0FFF7D4F908E09CA011
:101BC000FAE7A1A0FFF7CEF96E4901200024C875FD
:101BD000641CE0B210BD6F4B6A4950B10A46D27E18
:101BE000D243D2B2012807D0022805D003280AD058
:101BF00003E00020C87609E0CA76C87E30B1022131
:101C0000184600F034BBFF20C876F8E702211846DA
:101C100000F029BB10B504468F48012C08D0022CD7
:101C200008D0032C08D0042C0AD0052C0CD00CE0D2
:101C3000802102E0802104E0402100F014FB04E058
:101C4000402100F014FB00E00024641CE0B210BD51
:101C500000252C46FEF7A4FCFEF7CDFAFEF730FB7C
:101C6000FEF78CFAFEF76FFBFEF7A7FAFEF74CFBC8
:101C7000FEF788FB434E794800217063306300F51E
:101C80008070F063B06300F5C07041556D1C402D4D
:101C9000FBD33D4A002041321154401C4028FBD365
:101CA000194A00201154401C4028FBD3164A00203A
:101CB00040321154401C4028FBD3134A002080328C
:101CC0001154401C4028FBD30F4A0020403A1154C5
:101CD000401CC5E0EFF0E8EDFFEB20C2EAEBFEF7B9
:101CE000E8F2FC5FF1E8EDF2E5E7E0F2EEF00D007E
:101CF000F1E8E3EDE0EBFB5FE7E0F5E2E0F2E05F67
:101D000031D32DCA36313100B4030020E7EDE0F7BE
:101D1000E5EDE8E55FF3F0EEE2EDE5E95F31D32DC7
:101D2000CA36313100000000696E69745F4B36318C
:101D300031000000F1EEF1F2EEFFEDE8E55F31D3A6
:101D40002DCA363131000000F1E8E3EDE0EBFB5F36
:101D5000EAEEEDF2F0EEEBFF5F31D32DCA36313112
:101D600000000000EAEEEDF2F0EEEBFC5FF3F0EEC7
:101D7000E2EDE5E95F31D32DCA36313100000000D4
:101D80000000034000000020B30200200080034058
:101D900000800C4000800B407E3620D4C0CFD7326C
:101DA0005F696E69743B00007E3620D4C0CFD732A5
:101DB0005F4B6469763128293D31303B00000000DB
:101DC0007E3620D4C0CFD7325F4B64697632282963
:101DD0003A32303B000000007E3620D4C0CFD732EC
:101DE0005F4B6469763328293A333630303B000044
:101DF0007E3620D4C0CFD7315F696E69743B000056
:101E00007E3620D4C0CFD7315F4B64697631282924
:101E10003D31303B000000007E3620D4C0CFD731AA
:101E20005F4B6469763228293A31303B000000006C
:101E30007E3620D4C0CFD7315F4B646976332829F2
:101E40003A323030303B00007E36204C445F636FC6
:101E50006E74726F6C3B000000800A40B40000207A
:101E60004028FFF434AF0025FEF703FC4FF48071E7
:101E7000204800F0FCF9DFF88080DFF8809001E076
:101E8000BD4201D26D1C00E000254746BC4201D294
:101E9000641C00E00024FFF74AFEFFF75DFEB0750A
:101EA000BC4203D1B07EFFF7B5FEB076BC4202D192
:101EB000B07DFFF790FE4F46BD4205D1F07D18B9C9
:101EC000707EFFF757FE7076BD42D9D1307E002874
:101ED000D6D1FEF7AFFC01203076D1E700F01F022B
:101EE000012191404009800000F1E020C0F800117C
:101EF0007047000000000B4070110100A086010037
:101F000070B594B2C1F3072290098303C1F307406F
:101F100000F0010543EA4533C0F3400543EA0533C9
:101F2000C0F3800543EAC523C0F3C00543EA852317
:101F3000C0F3001543EA4523C0F3401543EA0523E7
:101F4000C0F3801543EAC513C1F3836543EAC503B3
:101F5000C00943EA8003080E00F0010143EA41058D
:101F6000C0F340000543D007800EC2F3400140EAB1
:101F70000110C2F3800140EAC100C2F3C00140EA8F
:101F80008100C2F3001140EA4100C2F3401108434E
:101F9000C043FEF7B6FAE843FEF7B3FAE043FEF7B4
:101FA000B0FA0020FEF765FABDE870400120FEF7A8
:101FB00060BA70B594B2C1F3072290098303C1F3EC
:101FC000074000F0010543EA4533C0F3400543EA0A
:101FD0000533C0F3800543EAC523C0F3C00543EAD7
:101FE0008523C0F3001543EA4523C0F3401543EAB7
:101FF0000523C0F3801543EAC513C1F3836543EAA3
:10200000C503C00943EA8003080E00F0010143EA5A
:102010004105C0F340000543D007800EC2F34001E4
:1020200040EA0110C2F3800140EAC100C2F3C001DE
:1020300040EA8100C2F3001140EA4100C2F34011BE
:102040000843C043FEF76CFAE843FEF769FAE04341
:10205000FEF766FA0020FEF730FABDE87040012076
:10206000FEF72BBA0948804709480047FEE7FEE71C
:10207000FEE7FEE7FEE7FEE7FEE7FEE7FEE7FEE738
:1020800004480549054A064B704700000121000835
:10209000C1000008D8040020D8640020D8340020F3
:1020A000D83400201E4B10B5D8681E4C800701D5CF
:1020B000600000E02046D968C90700D04008D96810
:1020C000490704D55968C1F30321491C4843D9681D
:1020D000154AC1F3012131B1012906D002290BD0E3
:1020E00049F640400AE0146010BDD968C1F30311FD
:1020F000491CB0FBF1F001E04FF40040106010BD4E
:1021000007480A49C161C1680021C1604268416055
:10211000826881600269016142694161C2E7000031
:102120000000024000127A00680000201000000841
:102130000021C16001614160016081604161816194
:10214000C16170472DE9FF4F426802928268019297
:10215000D0F80CE0D0F81090D0F814A0826900926A
:10216000D0F81CB00022012303254FF001140E8883
:1021700052E0F7074BD0029FD1F804C09F430CFAFE
:1021800002FC47EA0C0702975700D1F81CC00397DE
:102190000CFA07FC019FAF434CEA070CCDF804C0D2
:1021A000D1F824C02EEA03070CFA02FC47EA0C0E11
:1021B000D1F8088002F1100729EA040C08FA07F8A0
:1021C0004CEA080CD1F80C8008FA02F84CEA08092D
:1021D000D1F810802AEA040C08FA07F84F694CEA93
:1021E000080C97404CEA070AD1F820C0039F0CFA6C
:1021F00007FC009FAF434CEA070CCDF800C0D1F8B4
:1022000018C02BEA03070CFA02FC47EA0C0B5B0030
:10221000AD0064007608521C002EAAD102994160DC
:1022200001998160C0F80CE0C0F81090C0F814A0CB
:1022300000998161C0F81CB0BDE8FF8F4FF6FF71B7
:102240000180002141608160C16001614161816163
:10225000C1610162416270470068084000D00120FE
:1022600070470068704702680A430260704702685E
:102270008A430260704703680AB10B4300E08B4356
:102280000360704701607047FE4A0029D16901D0A0
:10229000014300E08143D1617047FA4AD16821F4DB
:1022A00040710143D1607047C0F34211012909D048
:1022B000F549C96B00F01F0201209040084000D092
:1022C00001207047EF490968F4E708B500204FF492
:1022D000C06300901720FFF7E7FF0099491C0091A9
:1022E000994201D20028F5D01720FFF7DDFF002822
:1022F00000D0012008BDE54908607047E34900B5FA
:1023000001200860FFF7E1FF0020FFF7C6FFDD486E
:10231000C1680021C16042684160826881600269D1
:1023200001614269416182698161D949C16100BD30
:1023300000B5FFF7E3FF0121C806FFF7A5FFD2486C
:10234000C16B41F48101C163C16B01F48101C163BF
:1023500000BDCC498A6822F003028A60012806D0B9
:10236000022803D1886840F00300886070478868BD
:1023700040F00100F9E708B500204FF4C063009079
:102380002220FFF791FF0099491C0091994201D248
:102390000028F5D02220FFF787FF002800D0012079
:1023A00008BDB949CA6B22F00302CA63012806D0EE
:1023B000022803D1C86B40F00300C8637047C86BA4
:1023C00040F00100F9E708B500204FF4C063009029
:1023D0000D20FFF769FF0099491C0091994201D235
:1023E0000028F5D00D20FFF75FFF002800D0012066
:1023F00008BDA54AD16B21F07C5141EA0060D06351
:102400007047A2491C39086070479F4AD16B21F47C
:10241000F81141EA0040D063704708B500204FF43E
:10242000C06300901520FFF73FFF0099491C009101
:10243000994201D20028F5D01520FFF735FF00287A
:1024400000D0012008BD8F4AD36823F00303034363
:10245000D360506820F4706040EA012050608D48DD
:10246000D0F88810002904D0012140F88C1F0021E9
:10247000016070478749C1F8880170478549C1F8F4
:102480008800704708B500204FF4C06300902120F9
:10249000FFF70AFF0099491C0091994201D20028D8
:1024A000F5D02120FFF700FF002800D0012008BD53
:1024B000744AD16821F0F00141EA0010D060704701
:1024C000704A136923F0030303431361506820F03B
:1024D000F00040EA011050606E48D0F880100029EA
:1024E00004D0012140F8841F002101607047694930
:1024F000C1F8080270476749C1F88000704708B505
:1025000000204FF4C06300902020FFF7CDFE00991B
:10251000491C0091994201D20028F5D02020FFF7F4
:10252000C3FE002800D0012008BD5A49C1F810029E
:1025300070475849C1F820027047524A516921F04A
:1025400033010143516170474E4A516921F4706172
:1025500041EA0020506170474E49C1F8B40270470B
:10256000484A916921F0F00141EA001090617047FA
:102570004849C1F824037047424A916921F00F018C
:102580000143916170474349C1F8200370472DE929
:10259000F04FDFF8F0C0DCF80C103F4F89074FEA2E
:1025A000670501D5394600E02946DCF80C20D20742
:1025B00000D04908DCF80C200B46520706D5DCF8A1
:1025C0000420C2F30322521C01FB02F3DCF80C20AE
:1025D0004FF4004AC2F3012249F6404B01265AB19A
:1025E000012A0BD0022A1BD0C0F800B0DCF8102062
:1025F000920718D53A4617E00560F7E7DCF80C209B
:102600001209120701D41A4608E0DCF80C20C2F3C4
:102610000212521C06FA02F2B3FBF2F20260E5E784
:10262000C0F800A0E2E72A46DCF81040E40700D03A
:102630005208DCF8108014465FEA487807D5DCF8C9
:102640000480C8F3031808F1010802FB08F4E1460E
:10265000DCF810C0A0465FEACC6C01D54FEA540804
:10266000C0F80480D9F818C04FEA1C1C5FEA0C7847
:1026700007D50CF0070808F1010806FA08FCB5FBBD
:10268000FCF50BE00000024000800D40D807B0438D
:1026900010000008000040420024F400C560D9F892
:1026A00018C05FEA0C7807D50CF0070808F101089C
:1026B00006FA08FCB7FBFCF70761D9F814C04F46CF
:1026C0001CF0030C06D0BCF1010F19D0BCF1020FB5
:1026D00018D021467A69C2F30112AAB1012A15D095
:1026E000022A00D029467A69120A130705D502F09A
:1026F0000702521C9640B1FBF6F18160BDE8F08FF5
:102700001146E7E71946E5E75146ECE75946EAE79F
:102710000021016041600161416141620321016268
:10272000704710B54A8802610A894B890C881A449F
:102730008B8903EB04231A44CB881A440260CA89AC
:1027400089881144416010BD002181800722C28028
:1027500041810181818102224280018070470029EC
:10276000416802D041F0020102E04FF6FD721140D3
:1027700041607047002A426901D00A4300E08A4361
:10278000426170478069814301D000207047012079
:102790007047C069084000D001207047026A0A43B0
:1027A00002627047002A426A01D00A4302E0C9432C
:1027B00089B20A404262704781607047806880B287
:1027C0007047C068084000D0012070470B4B10B51F
:1027D000DA6A0B4CA04205D122F0FF0040F0807273
:1027E0000A4308E0074CA04205D122F47F4040F0A4
:1027F000007040EA0122DA6210BD000000000240D1
:102800000000044000000A4000210163C1624160F1
:10281000902282610162416281620222426381638D
:1028200081644FF440710163704770B586B004460F
:102830000D466846FFF7ABFE62490098896A624B15
:1028400001229C4202D101F0070104E05F4B9C424F
:1028500004D1C1F302218A40B0FBF2F029688A0852
:10286000B0FBF2F39A0903F03F03800003EB8216FA
:10287000B0FBF6F0401AC001B0FBF1F0022802D91B
:10288000002006B070BD6262A362E06AA988EA888F
:102890006B8911432A891A4311430143E162206B7A
:1028A0004FF680718843A989014321630120E8E73D
:1028B0004FF41651016000218180C1800181418166
:1028C0004FF44071818170470029016B02D041F0C3
:1028D000010102E04FF6FE72114001637047002AC9
:1028E000826B01D00A4300E08A4382637047C06B69
:1028F000814301D00020704701207047006C0840E0
:1029000000D001207047426C0A434264704742EA9B
:10291000C10141637047002A826C01D00A4302E082
:10292000C94389B20A4082647047C9B201607047E6
:10293000006880B270470029C16A02D041F00101ED
:1029400002E04FF6FE721143C162704730B585B0A8
:102950000D460446042908D16846FFF718FE009882
:102960004FF4E111B0FBF1F02062206B28432063AB
:1029700005B030BD0029016B02D041F0020102E038
:102980004FF6FD721143016370478069084000D023
:10299000012070470B4B10B59A6A0B4CA04205D131
:1029A00022F0FF0040F080720A4308E0074CA0428A
:1029B00005D122F47F4040F0007040EA01229A6283
:1029C00010BD0000000002400000034000800340F2
:1029D0000FB41CB5074B06AA7B44694600900598C6
:1029E00000F079F90020694600F088F91CBC5DF818
:1029F00014FB0000210300002DE9F0410E460446BF
:102A0000002020622046E168884730B3252805D0A1
:102A1000D4E901219047206A401CF2E7E168204692
:102A200000278847050018D0A5F14100192802D8D1
:102A300020354FF400673246294620462760FDF7CF
:102A400079FB40B1012804D0F61D26F007060836B0
:102A5000D8E7361DD6E72846DAE7206ABDE8F081D8
:102A60002DE9F0410646002410687529314616A567
:102A700010D0AFF30080002802DA404213A507E02F
:102A800031688A0701D512A502E0490704D511A5CE
:102A9000012401E0AFF3008000210A2206F124079F
:102AA00009E0B0FBF2FCB0FBF2F302FB1C0030309B
:102AB00078541846491C0028F3D123462A4630464C
:102AC000BDE8F04100F0A8B8000000002D000000B3
:102AD0002B0000002000000070B504460D46214682
:102AE0001068AFF300802188090502D50F4A7A44A7
:102AF00002E00E4A7A440E32002104F1240305E07C
:102B000000F00F060009965D5E54491C0028F7D1BD
:102B100020780023000704D5702D02D009B10223CC
:102B200011322046BDE8704000F076B8F203000094
:102B300070B5064600F06CF80468054630460A2277
:102B4000002100F0E0F82C6070BD10B5431C02E0DD
:102B500010F8011B71B18107FAD14FF0013202C8A0
:102B60008C1A8C4314EAC211F9D0C01A0A0603D099
:102B7000C01E10BDC01A10BD0A0401D0801E10BDB9
:102B80000902FCD0401E10BD4FF0013C50F8042B50
:102B900051F8043B9A4221D1A2EB0C03934313EA70
:102BA000CC1317D150F8042B51F8043B9A4215D19D
:102BB000A2EB0C03934313EACC130BD150F8042B74
:102BC00051F8043B9A4209D1A2EB0C03934313EA58
:102BD000CC13DBD04FF00000704700BFD01A01BA11
:102BE000B1FA81F101F0180122FA01F0CB40C1F1F4
:102BF0002001DBB2C0B2C01A2CFA01F3D11A914302
:102C000011EAC311E6D17047704770477047000062
:102C100000487047740400202DE9F0470D4699469E
:102C20009246044600F124080168880604D5E0694C
:102C300021F01001216000E00120A84201DD471BC6
:102C400000E00027A1697A1902EB0900081AA061C7
:102C50002078C00602D42046AFF30080002608E0AA
:102C6000D4E901211AF806009047206A401C761C1E
:102C700020624E45F4DB2078C0060AD52046AFF32B
:102C8000008006E0D4E9012130209047206A401CF2
:102C90002062381EA7F10107F4DC07E0D4E9012126
:102CA00018F805009047206A401C2062281EA5F1F4
:102CB0000105F3DC2046AFF300802078000602D542
:102CC0000220BDE8F0870120FBE7000001694A1CF3
:102CD00002610878704700B58FB0CDE9013100215D
:102CE000059105497944CDE9031011466846FFF77F
:102CF00083FE0FB000BD0000E5FFFFFF0A6802F889
:102D0000010B0A6070472DE9F04791460F46804657
:102D10000446002614F8015B2DB100F031F800687C
:102D2000405DC007F6D12B2D02D02D2D18D0641E8A
:102D30004A463946204600F02BF827B13968A142AF
:102D400001D1C7F800804FF0020471050BD5404255
:102D5000002803DDFFF75CFF0460A007BDE8F087F3
:102D600046F48066E4E70028F8DAFFF751FF0460D4
:102D70006FF00040F2E70000004870477404002044
:102D800010B500F079F8001D10BD00BF2D01000046
:102D90002DE9F05F824615468B4600270AF10104B3
:102DA000B9460078302801D09DB113E014F8010B2A
:102DB0000127782803D0582801D045B10AE00DB189
:102DC000102D07D1002714F8010B102502E008256B
:102DD00000E00A250026B0460EE005FB080005FBD2
:102DE00006F101271FFA80F801EB1046B6F5803F87
:102DF00000D3B94614F8010B294600F041F8002829
:102E0000EBDABBF1000F05D00FB1641E00E05446B1
:102E1000CBF80040B9F1000F06D0FFF7F9FE022110
:102E20000160C81EBDE8F09F48EA0640FAE7754613
:102E3000FFF7A2FFAE4605006946534620F00700A3
:102E4000854618B020B5FFF71BF9BDE820404FF0CC
:102E500000064FF000074FF000084FF0000B21F084
:102E60000701AC46ACE8C009ACE8C009ACE8C00951
:102E7000ACE8C0098D4670470048704794040020B4
:102E80003A2800D2303820F02002412A01D3A2F1A2
:102E90003700884201D34FF0FF3070470446AFF34C
:102EA00000802046FDF764F901491820ABBEFEE71B
:102EB000260002007047000010B500290AD00878EB
:102EC000002807D005487844FFF75EFE002801D0AF
:102ED000002010BD0248784410BD000066000000CC
:102EE0005E000000303132333435363738394142F4
:102EF000434445464030580030313233343536375C
:102F00003839616263646566403078003C3000089F
:102F1000000000206C000000FC000008A830000841
:102F20006C0000206C640000180100081001000013
:102F300043000000F8FFFFFF004040404040404099
:102F4000404041414141414040404040404040407C
:102F50004040404040404040400502020202020220
:102F6000020202020202020202202020202020206F
:102F70002020200202020202020290909090909083
:102F80001010101010101010101010101010101041
:102F900010101010020202020202888888888888B5
:102FA00008080808080808080808080808080808A1
:102FB00008080808020202024000000000000000A9
:102FC0000000000000000000000000000000000001
:102FD00000000000000000000000000000000000F1
:102FE00000000000000000000000000000000000E1
:102FF00000000000000000000000000000000000D1
:1030000000000000000000000000000000000000C0
:1030100000000000000000000000000000000000B0
:1030200000000000000000000000000000000000A0
:103030000000000000000000000000000000000090
:10304000360000000000000000000000000000004A
:103050000000000000000000000000000000000070
:103060000000000000000000000000000000000060
:103070000000000000000000000000000000000050
:10308000000000000000000000000000D4C0CFD706
:1030900031001000F0000000D4C0CFD73200100083
:0830A000F000000000127A00AC
:04000005080000C12E
:00000001FF
