:020000040000FA
:10000000583B002021200000252000002720000070
:1000100000000000000000000000000000000000E0
:100020000000000000000000000000002920000087
:1000300000000000000000002B2000002D20000028
:100040002F20000031200000332000003520000068
:100050003720000039200000C3190000291A0000D1
:100060003F20000041200000432000004520000008
:1000700047200000492000004B2000004D200000D8
:100080004F200000512000008F1A00005520000072
:1000900057200000592000005B2000005D20000078
:1000A0005F20000000000000000000006120000050
:1000B0006320000065200000672000006920000028
:1000C00000F002F800F055F80CA030C808382418E9
:1000D0002D18A246671EAB4654465D46AC4201D180
:1000E00000F047F87E460F3E0FCCB646012633425D
:1000F00000D0FB1AA246AB463343184728960000AF
:10010000489600000023002400250026103A01D361
:1001100078C1FBD8520700D330C100D50B607047BF
:1001200010B5662902D109F04BF910BD642902D13E
:1001300005F06CFD10BD752902D105F067FD10BDFD
:10014000782902D105F098FD10BD002010BD1FB523
:1001500007F0F6F904000020002108F0D5FF401C4C
:1001600060600020002108F0B9FFE0601FBD10B5FD
:1001700010BD07F03FFE1146FFF7E9FF01F032FD29
:1001800007F066FE03B4FFF7F2FF03BC07F0B8FE0A
:1001900070B505460C46164602E00FCC0FC5103E62
:1001A000102EFAD2082E02D303CC03C5083E042E2B
:1001B00007D301CC01C5361F03E021782970641CE8
:1001C0006D1C761EF9D270BDC00000E0401E0028F4
:1001D000FCD17047F8B504460025204605F086FDA1
:1001E000461E05E0675DA05D6055A7556D1C761E37
:1001F000B542F7DBF8BDF8B506460C46371E00DA07
:100200007642002500BF0A21304605F021FE30313C
:1002100028466D1C21540A21304605F019FE061EA1
:10022000F1DC002F03DA2D2228466D1C2254002019
:1002300060552046FFF7CEFFF8BD0146002001E0E3
:10024000421CD0B20A5C002A01D07828F8DB704743
:1002500000BFFE498969202211402029F9D0FB49BD
:10026000086000BFF9498969082211400829F9D0BE
:10027000704730B504460D46002303E0E05CFFF70D
:10028000E7FF5B1CAB42F9D330BD30B504462046D6
:10029000FFF7D3FF054629462046FFF7EAFF30BDAA
:1002A00000BFEB498969202211402029F9D0E84993
:1002B000086000BFE6498969082211400829F9D081
:1002C000704730B504460D46002303E0E05CFFF7BD
:1002D000E7FF5B1CAB42F9D330BD30B50446204686
:1002E000FFF7ABFF054629462046FFF7EAFF30BD82
:1002F00070B50446002500262046FFF7C6FF2046BD
:10030000FFF7EBFF70BD30B504460D462946204689
:10031000FFF7AFFF29462046FFF7D3FF30BD01208E
:100320008002CC49086240000862704701208002C8
:10033000C849486240004862704710B5C6A0FFF740
:10034000D7FFCEA0FFF7D4FFCDA0FFF7D1FFD3A0FA
:10035000FFF7CEFFD8480078012802D1D7A0FFF7D9
:10036000C7FFD5480078002802D1D8A0FFF7C0FF0A
:10037000C2A0FFF7BDFFDAA0FFF7BAFFCE48DEA1AB
:100380004268DE4805F0F8FBDC48FFF7B1FFBBA090
:10039000FFF7AEFFDAA0FFF7ABFFC748D6A1826830
:1003A000D64805F0E9FBD548FFF7A2FFB3A0FFF759
:1003B0009FFFD9A0FFF79CFFBF48CFA1C268CF48DD
:1003C00005F0DAFBCD48FFF793FFACA0FFF790FFF5
:1003D000AAA0FFF78DFFD6A0FFF78AFFB648C6A1F7
:1003E0000269C64805F0C8FBC448FFF781FFA3A017
:1003F000FFF77EFFA1A0FFF77BFFD5A0FFF778FFF7
:10040000AD48BDA14269BD4805F0B6FBBB48FFF74A
:100410006FFF9AA0FFF76CFF98A0FFF769FFD5A0C8
:10042000FFF766FFA448B4A18269B44805F0A4FBB5
:10043000B248FFF75DFF91A0FFF75AFF8FA0FFF7CB
:1004400057FFD3A0FFF754FF9B48027FAAA1AB48F8
:1004500005F092FBA948FFF74BFF88A0FFF748FF84
:10046000D1A0FFF745FF85A0FFF742FF10BDF1B512
:1004700082B0029804F006FE0190D3A0FFF738FF87
:100480009DA19E48019A05F077FB9C48FFF730FF3D
:100490007AA0FFF72DFF019806F047FA0446CC4AF0
:1004A000CC4B06F087FA064605F078FD0090CAA00E
:1004B000FFF71EFF009806F0A1FB044622460B46FC
:1004C000C7A18E4805F058FB8C48FFF711FF6BA0C1
:1004D000FFF70EFFFEBDFEB5074600240020029088
:1004E000384606F0A9FC0290BE49029806F0B0FB1F
:1004F0000290029806F082FB02460B4601910090A2
:100500000020B94907F00EFE054605F047FD0290B0
:10051000029806F04DFC0446A402B448844200D977
:1005200004462046FEBDF0B58BB0064600240027E9
:1005300000200A90089000250790069005900490EE
:100540000390029001903046FFF777FEC4B23078F6
:10055000A7490870084600780990084600787E2868
:1005600003D0A448006864281FD90020A14908606E
:100570000120A14908700020A0490870A049087016
:10058000A0490870A0490870A04908700120A0493E
:100590000870A049087000209F4908709F490870A2
:1005A00020209F4908709F490870934800780128CF
:1005B00001D001F036F8F5E1F05D9B498F4A1278E1
:1005C00088540020F05508468C490978405C202862
:1005D00004D196480078401C944908709248874995
:1005E0000978405C3B2802D10120874908708E4879
:1005F00082490978405C3D2805D08B487F490978BD
:10060000405C3A2802D101208349087086487B4922
:100610000978405C2E2802D1012080490870774873
:10062000007802280FDD8048807820280BD17E4892
:1006300072490978405C202806D07B486F490978C8
:10064000405C3B28F4E0A4E1FFE000000000034030
:100650000080034000800A402D2D2D2D2D2D2D2DA5
:100660002D2D2D2D2D2D2D2D2D2D2D2D2D2D2D2DBA
:100670002D2D2D2D2D2D2D2D2D2D2D000D0A000074
:10068000D1EEF1F2EEFFEDE8E520F1E8EDF2E5E77D
:10069000E0F2EEF0E03A0D0A00000000D0E5E6E8F6
:1006A000EC20F0E0E1EEF2FB20F1E8EDF2E5E7E02E
:1006B000F2EEF0E03A0000004C000020F1E8EDF22C
:1006C000E5E720CBD7CC0D0A00000000F1E8EDF201
:1006D000E5E720E3E0F0ECEEEDE8EAE80D0A0000E3
:1006E000F7E0F1F2EEF2E020F6E5EDF2F0E0EBFCFF
:1006F000EDE0FF2046303A0025640000AF120020F4
:10070000F7E0F1F2EEF2E020EDE8E6EDFFFF202069
:1007100020465F6C6F773A00F7E0F1F2EEF2E020EE
:10072000E2E5F0F5EDFFFF20465F686967683A0093
:10073000C4EBE8F2E5EBFCEDEEF1F2FC20E8ECEFC7
:10074000F3EBFCF1EEE220E220ECEAF13A000000EB
:10075000D7E0F1F2EEF2E020F1EBE5E4EEE2E0EDDD
:10076000E8FF20E8ECEFF3EBFCF1EEE220E220C33F
:10077000F63A0000C0ECEFEBE8F2F3E4E02C20EFF7
:10078000EEE4E0E2EBE5EDE8E520E220C4E13A004A
:10079000EDE0EFF0E0E2EBE5EDE8E520EFE8EBFB84
:1007A00020CBD7CC3A0000002D2D2D2D2D2D2D2D19
:1007B0002D2D2D2D2D2D2D2D2D2D2D2D2D2D2D2D69
:1007C0002D2D2D2D2D0000004144433A0000000046
:1007D0006666666666664A3F552832293A0000001A
:1007E000256600000000204100002440FF7F00003B
:1007F0001E010020E8000020CE0000201A01002089
:10080000D3000020D5000020D6000020D900002011
:10081000DA000020DB000020DC000020DD000020EA
:100820000C0A00204C0A00208C090020D700002070
:100830000BD0FB480078012807D0FA48FA4909781C
:10084000415CFA48FA4A12788154F5480078012848
:1008500023D1F448F4490978405C20281DD0F148A0
:10086000F1490978405C3B2817D0EE48EE490978F9
:10087000405C3D2811D0EB48EB490978405C3A28B0
:100880000BD0EC480078002807D1E648E649097803
:10089000415CE948E94A12788154E148007801282E
:1008A00023D1E048E0490978405C20281DD0DD488C
:1008B000DD490978405C3B2817D0DA48DA490978E5
:1008C000405C3D2811D0D748D7490978405C3A2888
:1008D0000BD0D8480078012807D1D248D2490978EE
:1008E000405CD749D74A12788854CD48007801280F
:1008F00011D0CC48CC490978405C3D280BD0C94880
:10090000C9490978405C3A2805D0C9480078401C9C
:10091000C74908703DE0C248007801281AD1C14893
:10092000C1490978405C3D2814D0BE48BE490978C9
:10093000405C3A280ED0BB48BB490978405C2E2861
:1009400008D0BC480078002804D1BC480078401C7E
:10095000BA490870B248007801281AD1B148B249A2
:100960000978405C3D2814D0AE48AF490978405C16
:100970003A280ED0AB48AC490978405C2E2808D004
:10098000AC480078012804D1AE480078401CAD493D
:100990000870A5480078401CA3490870781CC7B2AD
:1009A000601EC4B2002C00DD06E69F480478A6480D
:1009B000007801287ED19B4800787E2805D1A34885
:1009C000007801210843A149087096484078A04961
:1009D0000978884205D19D480078022108439B4947
:1009E00008709A4800780328E4D19AA18F4805F04E
:1009F000E1F9002805D199A0FFF77AFC742001F0F5
:100A00009AFE9AA1894805F0D5F9002805D199A048
:100A1000FFF76EFC742001F08EFE9AA1834805F06A
:100A2000C9F9002805D19BA0FFF762FC01209F496E
:100A300008709FA17D4805F0BDF9002805D1A0A050
:100A4000FFF756FCA44802F079FDA4A1774805F011
:100A5000B1F9002818D1784805F03AF9A0490860A2
:100A6000A0A0FFF745FCA2A0FFF742FC7348007866
:100A7000401EC1B27048FFF746FC81A0FFF738FC6A
:100A800097490878FFF7F3FC9CA1684805F092F9B4
:100A9000002809D19CA0FFF72BFCA0480068012189
:100AA000C90308439D4908609DA1604805F082F98B
:100AB000002800E048E309D19CA0FFF719FC974803
:100AC00000680121C9038843944908609CA15748E4
:100AD00005F070F9002806D19CA0FFF709FC7E49BB
:100AE0009F4802F052FA9FA1504805F063F9002890
:100AF00012D19EA0FFF7FCFB7749012002F082F99A
:100B000080B201909D490198FFF775FB9B48FFF764
:100B1000EFFB5BA0FFF7ECFB99A1444805F04AF915
:100B2000002813D198A0FFF7E3FB6B498120400117
:100B300002F068F980B2019090490198FFF75BFBE1
:100B40008E48FFF7D5FB4EA0FFF7D2FB92A13748A6
:100B500005F030F900281AD1374805F0B9F880B20D
:100B600001908FA0FFF7C4FB61A0FFF7C1FB3348E2
:100B70000078401EC1B23048FFF7C5FB40A0FFF728
:100B8000B7FB554A81214901019802F0A3F889A1D8
:100B9000264805F00FF9002813D188A0FFF7A8FB1D
:100BA0004D498120400103F0F6FB80B2019073496A
:100BB0000198FFF720FB7148FFF79AFB30A0FFF781
:100BC00097FB82A1194805F0F5F800281AD11A48B8
:100BD00005F07EF880B201907EA0FFF789FB44A06B
:100BE000FFF786FB15480078401EC1B21248FFF798
:100BF0008AFB23A0FFF77CFB374A8121490101983A
:100C000003F0BFFB78A1094805F0D4F8002805D10E
:100C1000094805F05DF832490860F1E00CE1000098
:100C2000DC0000208C0900201A010020CC090020E3
:100C3000D9000020DD0000200C0A0020DA0000208E
:100C40004C0A0020DB000020D6000020D500002048
:100C5000D000002068656C7000000000EFF0E8ED47
:100C6000FFEB2068656C700D0000000068656C701B
:100C700032000000EFF0E8EDFFEB2068656C7032A9
:100C80000D000000544553545F4255535F4F555477
:100C900000000000EFF0E8EDFFEB20544553545FF7
:100CA0004255535F4F55540D0000000019010020BC
:100CB00077617463685F7265675F646473000000E6
:100CC000EFF0E8EDFFEB2077617463685F726567B2
:100CD0005F6464730D000000140000204144430071
:100CE0005C010020EFF0E8EDFFEB204144433A00C7
:100CF000444154415F576F72643A000077726E5FEF
:100D00006464735F31000000EFF0E8EDFFEB2077E3
:100D1000726E5F6464735F310D00000000000C4070
:100D200077726E5F6464735F30000000EFF0E8ED8F
:100D3000FFEB2077726E5F6464735F300D0000001C
:100D4000696E69745F64647300000000EFF0E8EDA1
:100D5000FFEB20696E69745F646473200D0000000E
:100D60004C00002069645F6464730000EFF0E8EDFC
:100D7000FFEB2069645F6464733A0000AF120020E7
:100D800072645F6464730000EFF0E8EDFFEB2072C3
:100D9000645F6464733A000077725F646473000098
:100DA000EFF0E8EDFFEB2077725F6464733A200D9B
:100DB0000000000072645F7473740000EFF0E8EDEF
:100DC000FFEB2072645F7473743A000077725F7493
:100DD00073740000EFF0E8EDFFEB2077725F74733F
:100DE000743A200D00000000D3F1F2E0EDEEE2E8ED
:100DF000F2FC5FC0ECEFEBE8F2F3E4F3000000007C
:100E0000D2A0FFF775FAD9480068D9498861D74858
:100E1000D8A10268D84804F0AFFED748FFF768FAB7
:100E2000D6A0FFF765FAD649D14803F068FBFFF773
:100E300076FAD4A0FFF75CFAD6A1DE4804F0BAFF38
:100E4000002804D1DCA0FFF753FAFFF776FAE5A1FA
:100E5000D84804F0AFFF002802D1E7A0FFF748FA16
:100E6000ECA1D44804F0A6FF002805D1EDA0FFF7BF
:100E70003FFA0120BE490877F1A1CE4804F09AFF5D
:100E8000002805D1F3A0FFF733FAFF20B84908770F
:100E9000F7A1C84804F08EFF002827D1F84804F0D5
:100EA00017FFB2490860F7A0FFF722FAFB48FFF7E7
:100EB0001FFAFB480078401EC1B2F148FFF723FA41
:100EC000AEA0FFF715FAA9480068A94948600020BC
:100ED0000870AB49A64802F058F8A949A44803F0A5
:100EE00064FAFFF71CFAA7A0FFF702FAEDA1B148D8
:100EF00004F060FF002824D1E14804F0E9FE9B499A
:100F00000860ECA0FFF7F4F9E448FFF7F1F9E448D2
:100F10000078401EC1B2DA48FFF7F5F997A0FFF755
:100F2000E7F90120924908709549914802F02DF89F
:100F300093498F4803F04BFCFFF7F1F991A0FFF7BD
:100F4000D7F9E3A19B4804F035FF002829D1CC480C
:100F500004F0BEFE85490860E3A0FFF7C9F9CF4859
:100F6000FFF7C6F9CE480078401EC1B2C448FFF76B
:100F7000CAF982A0FFF7BCF97D4840687B4909683F
:100F80004908401A7A4988600846406877490968E4
:100F9000490840187649C860FFF7C1F979A0FFF702
:100FA000A7F9DAA1834804F005FF00281DD1B44851
:100FB00004F08EFE6D490860DBA0FFF799F9B74891
:100FC000FFF796F9B6480078401EC1B2AC48FFF76B
:100FD0009AF96AA0FFF78CF9644800686449886050
:100FE000FFF79DF967A0FFF783F9D8A1714804F0D6
:100FF000E1FE00281DD1A24804F06AFE5B490860AA
:10100000D9A0FFF775F9A548FFF772F9A448007851
:10101000401EC1B29A48FFF776F958A0FFF768F969
:10102000524800685249C860FFF779F955A0FFF7A8
:101030005FF9D6A15F4804F0BDFE00281DD190489D
:1010400004F046FE49490860D7A0FFF751F99348DC
:10105000FFF74EF992480078401EC1B28848FFF76A
:1010600052F946A0FFF744F940480068404908613A
:10107000FFF755F943A0FFF73BF9D5A14D4804F020
:1010800099FE00281DD17E4804F022FE37490860F1
:10109000D5A0FFF72DF98148FFF72AF9804800789D
:1010A000401EC1B27648FFF72EF934A0FFF720F9B1
:1010B0002E4800682E494861FFF731F931A0FFF74B
:1010C00017F9D2A13B4804F075FE002812D1D3488D
:1010D0000078012802D1D2A0FFF70AF90120D949EE
:1010E00008700020D8490870D8490860D8490870AD
:1010F000D8490860D8A12F4804F05CFE002820D110
:101100005F4804F0E5FDC5B2C4480078012819D154
:10111000D5A0FFF7EDF8DA492846FFF76CF8D84874
:10112000FFF7E6F8D7A0FFF7E3F8042028400428EB
:1011300002D1D5A0FFF7DCF802202840022802D116
:10114000A8E1D2E1B0E1A8E111E20000EFF0E8EDA2
:10115000FFEB20D3F1F2E0EDEEE2E8F2FC5FC0EC51
:10116000EFEBE8F2F3E4F33A200D00005C0100201D
:101170004C00002025640000AF1200200D0000008C
:10118000140000207E3120434F4D4D414E445F4FAF
:101190004B3B0000C8EDE4E8EAE0F6E8FF5FF1EE63
:1011A000F1F2EEFFEDE8FF5FF1E8EDF2E5E7E0F2E6
:1011B000EEF0E000CC090020EFF0E8EDFFEB20C8F6
:1011C000EDE4E8EAE0F6E8FF5FF1EEF1F2EEFFEDC4
:1011D000E8FF5FF1E8EDF2E5E7E0F2EEF0E00D0A9E
:1011E00000000000C2EAEBFEF7E8F2FC5FF1E8ED78
:1011F000F2E5E7E0F2EEF000EFF0E8EDFFEB20C201
:10120000EAEBFEF7E8F2FC5FF1E8EDF2E5E7E0F289
:10121000EEF00D00C2EAEBFEF7E8F2FC5FCBD7CCB4
:101220005F555000EFF0E8EDFFEB20C2EAEBFEF770
:10123000E8F2FC5FCBD7CC5F5550202020200D007A
:10124000C2EAEBFEF7E8F2FC5FCBD7CC5F444F5726
:101250004E000000EFF0E8EDFFEB20C2EAEBFEF7F6
:10126000E8F2FC5FCBD7CC5F444F574E20200D00F7
:10127000D3F1F2E0EDEEE2E8F2FC5F463000000070
:101280000C0A0020EFF0E8EDFFEB20D3F1F2E0EDE7
:10129000EEE2E8F2FC5F46303A200D00F00C000070
:1012A000DA000020D3F1F2E0EDEEE2E8F2FC5FCBF1
:1012B000D7CC0000EFF0E8EDFFEB20D3F1F2E0ED4A
:1012C000EEE2E8F2FC5FCBD7CC3A200D0000000044
:1012D000D3F1F2E0EDEEE2E8F2FC5FE4E5E2E8E013
:1012E000F6E8FE5FCBD7CC00EFF0E8EDFFEB20D3C4
:1012F000F1F2E0EDEEE2E8F2FC5FE4E5E2E8E0F6D0
:10130000E8FE5FCBD7CC3A200D000000D3F1F2E02D
:10131000EDEEE2E8F2FC5FF7E0F1F2EEF2F35F46A9
:101320005F6C6F7700000000EFF0E8EDFFEB20D37B
:10133000F1F2E0EDEEE2E8F2FC5FF7E0F1F2EEF25E
:10134000F35F465F6C6F773A200D0000D3F1F2E057
:10135000EDEEE2E8F2FC5FF7E0F1F2EEF2F35F4669
:101360005F68696768000000EFF0E8EDFFEB20D3ED
:10137000F1F2E0EDEEE2E8F2FC5FF7E0F1F2EEF21E
:10138000F35F465F686967683A200D00C4EBE8F2D6
:10139000E5EBFCEDEEF1F2FC5FE8ECEFF3EBFCF1DA
:1013A000E05F54E8ECEF0000EFF0E8EDFFEB20C465
:1013B000EBE8F2E5EBFCEDEEF1F2FC5FE8ECEFF3CD
:1013C000EBFCF1E05F54E8ECEF3A200D0000000088
:1013D000D7E0F1F2EEF2E05FEFEEE2F2EEF0E5EDF3
:1013E000E8FF5F46E8ECEF00EFF0E8EDFFEB20D719
:1013F000E0F1F2EEF2E05FEFEEE2F2EEF0E5EDE8C2
:10140000FF5F46E8ECEF3A200D000000C2EAEB5F18
:10141000F1E8EDF2E5E75F4B36313200D100002014
:10142000EFF0E8EDFFEB20C2EAEBFEF7E8F2FC5F3D
:10143000F1E8EDF2E5E7E0F2EEF0204B3631322054
:10144000200D00003E0200203D020020540200203A
:10145000E000002060020020F1EEF1F2EEFFEDE886
:10146000E55F4B3631320000EFF0E8EDFFEB20F1A5
:10147000EEF1F2EEFFEDE8E5204B3631323A0000B6
:101480000C0B00200D0A000054454D502D4F4B0D04
:1014900000000000FBA0FEF72BFFE807C00F0028AC
:1014A00002D0FBA0FEF724FFFC4805700078042161
:1014B0000840002807D0FA4880794021884340300E
:1014C000F749887105E0F648807940218843F4495E
:1014D00088710120F34908700020F3490870F3492E
:1014E0000860F3490870F3490860F3A1F64804F076
:1014F00061FC002812D1F5480078012802D1F4A03F
:10150000FEF7F6FE0120FB4908700020FA4908703A
:10151000E6490860E6490870F8490860F8A1EA4819
:1015200004F048FC002822D1F94804F0D1FBC5B2F0
:10153000E648007801280CD1F6A0FEF7D9FEFB4959
:101540002846FEF758FEF948FEF7D2FEF8A0FEF74F
:10155000CFFEF84805700120F74908700020E649E1
:101560000870D2490860D2490870E4490860F3481D
:101570000078012804D1F2480078012800D100BF8A
:10158000EE48007801284CD1002404E00020CE4928
:101590000855601CC4B2402CF8DB002404E0002095
:1015A000DB490855601CC4B2402CF8DB002404E081
:1015B0000020E4490855601CC4B2402CF8DB00242C
:1015C00004E00020E0490855601CC4B2402CF8DB60
:1015D000002403E000203055601CC4B2402CF9DB2D
:1015E000002404E00020D9490855601CC4B2402CF6
:1015F000F8DB0020D6490860D6490870D649087043
:10160000D6490870CE4908700024CC490870D449E6
:101610000870D4490870D4490870D4490870D44976
:1016200008700BB0F0BD002802D10221D14A5162EE
:10163000012802D10221CF4A1162704710B5002360
:1016400003E00270401C5C1CA3B28B42F9DB10BDAE
:1016500030B504460D46202229462046FFF7EEFF0E
:1016600030BD10B50246C448036800200870C34866
:101670000068984211D20120087009E0BF48006854
:1016800000781070521CBD480068401CBB4C2060A4
:10169000BA4800689842F1D328E0B848006883420D
:1016A00022D2B748007800281CD016E0B348006862
:1016B00000781070521C491CB0480468B14884423C
:1016C00006D1FF38AD4C20600020AD4C207004E006
:1016D000AA480068401CA94C2060A84800689842AD
:1016E000E4D103E0012010BD0120FCE70020FAE76F
:1016F00010B5A548007801280BD1A4499348FFF7FD
:10170000B0FF0020A04908709048FEF70CFFFEF7DC
:101710000DFE10BDC107C90F002904D0FF21013102
:101720009B4A116203E0FF210131994A5162022173
:101730000140002904D001214902954A116203E0C9
:1017400001214902924A516204210140002904D03A
:10175000012189028E4A116203E0012189028C4A2B
:10176000516208210140002904D00121C902884AA0
:10177000116203E00121C902854A51621021014032
:10178000002904D001210903814A116203E00121EB
:1017900009037F4A516220210140002904D0012120
:1017A00049037B4A116203E001214903784A5162EF
:1017B00040210140002904D001218903744A1162AB
:1017C00003E001218903724A51628021014000290E
:1017D00004D00121C9036E4A116203E00121C9034B
:1017E0006B4A5162012149020140002904D00121C4
:1017F0004902684A116203E001214902654A5162C7
:10180000012189020140002903D00421624A1162AA
:1018100002E00421604A51620121C902014000290D
:1018200004D0012189025B4A116203E0012189028F
:10183000584A5162012109030140002904D00121C5
:10184000C902544A116203E00121C902514A51629E
:10185000012149030140002904D0012109034D4A17
:10186000116203E0012109034A4A516201218903FF
:101870000140002904D001214903464A116291E048
:101880008CE00000566F6C7461672D4F4B0D0000AB
:101890004C6576656C5F462D4F4B0D004F02002066
:1018A000A80200203F0200203D0200205402002038
:1018B000E000002060020020C2EAEB5FF1E8EDF2F8
:1018C000E5E75F4B36313300CC090020D100002022
:1018D000EFF0E8EDFFEB20C2EAEBFEF7E8F2FC5F89
:1018E000F1E8EDF2E5E7E0F2EEF0204B3631330DB2
:1018F000000000004102002040020020640200209D
:10190000F1EEF1F2EEFFEDE8E55F4B36313300002A
:101910000C0A0020EFF0E8EDFFEB20F1EEF1F2EE23
:10192000FFEDE8E5204B3631333A00000C0B002088
:101930000D0000005002002042020020D6000020CE
:10194000D50000204C0A00208C0900204C0B002000
:10195000E8000020CE0000201A010020D300002063
:10196000D9000020DA000020DC000020DB0000208D
:10197000DD00002000800A40840000208800002054
:10198000740000208B08002076000020B9000020A1
:1019900000800E4000000C4000800B4001214903F4
:1019A000DF4A51620121C9030140002904D001210D
:1019B0008903DB4A116203E001218903D84A51629D
:1019C000704708B51021D74A5160D6494039096897
:1019D000CAB2009269460878D34909680870D249AA
:1019E0000968D24A126891420CD1D149097800297C
:1019F00005D00121CF4A11700021CD4A117001217B
:101A0000CD4A1170C8490A68CC498A4206D1FF39CB
:101A1000C54A11600121C64A117004E0C249096833
:101A2000491CC14A116008BD08B51021C44A516063
:101A3000C34940390968CAB2009269460878BA4970
:101A400009680870B8490968B84A126891420CD10F
:101A5000B7490978002905D00121B64A1170002143
:101A6000B34A11700121B44A1170AF490A68B349F1
:101A70008A4206D1FF39AC4A11600121AC4A11708B
:101A800004E0A9490968491CA74A116008BD10B5BE
:101A9000AC4844884480E007C00F002809D0AA4819
:101AA00000F0C6FCA949088008460188A64803F052
:101AB000B3FF10BD704770477047FFB583B00E4647
:101AC00017461C460C9D03982346C122D20011469E
:101AD0000095029003F086FE29462046FEF7C9FBDA
:101AE0009BA0FEF7D2FB07B0F0BD08209949086221
:101AF000102048622020086240200862802008628E
:101B000040000862042094490862082008621020FE
:101B10000862202008624020086280200862704726
:101B200010B58E480078332811D18DA0FEF7FBFC4C
:101B300092A0FEF7F8FC9BA0FEF7F5FCA2A0FEF732
:101B4000F2FCAAA0FEF7EFFCADA0FEF7ECFC834888
:101B50000078342811D1B1A0FEF7E5FCB6A0FEF75D
:101B6000E2FCBFA0FEF7DFFCC6A0FEF7DCFCCEA0C7
:101B7000FEF7D9FCD1A0FEF7D6FCFEF7D7FB10BDCF
:101B800010B576480078332811D175A0FEF7CBFC4C
:101B9000D1A0FEF7C8FCDAA0FEF7C5FCE0A0FEF776
:101BA000C2FC92A0FEF7BFFCE7A0FEF7BCFC6B48AE
:101BB0000078342811D199A0FEF7B5FCE9A0FEF712
:101BC000B2FCF2A0FEF7AFFCF8A0FEF7ACFCB6A0AA
:101BD000FEF7A9FCB9A0FEF7A6FCFEF7A7FB10BD17
:101BE0007047704708B50024002500BF0026012774
:101BF00000BF00F0FBFC00F075FD00F087FD00F079
:101C000045FA00F05BFA00F0ADFC00F08DFC00F04E
:101C1000C5FC00F0D7FC03F021FA062000F075F8AF
:101C2000072000F072F8EB480068052149020843DC
:101C3000E8490860E848E9490860E94908603F4820
:101C4000FF383A490860384908604120009000BFD9
:101C500003E00020E3490855641C402CF9D300F050
:101C60006AFD02203B490862FFF73FFF3B480078CE
:101C700034280AD1DC48DD490860C105DC48DD4A6A
:101C800011605060DC48DD49086034480078332832
:101C90000AD1DB48D54908600021DA48D54A1160ED
:101CA0005060D948D5490860D849D94801F06DF944
:101CB0002AE0FFF71DFDCD480068844201D2641C74
:101CC00000E00024D348854201D26D1C00E00025CD
:101CD000C6480068844209D1002F07D1FFF750FFA2
:101CE000012700260024CC48C0490860BF4800688E
:101CF000844209D1002E07D1FFF712FF01260027E9
:101D00000024C548B9490860D3E7C206D20E0121B4
:101D1000914042099200C14BD218116070470000F7
:101D200000000C4040000340840000208800002098
:101D30007400002075000020760000208B08002031
:101D40004080034020000030480400208806002026
:101D50000D0A000000800A4000800E40D0000020E4
:101D60007E3320D3F1F2E0EDEEE2E8F2FC5F4630A4
:101D70003D3433353030303030303B007E3320D38B
:101D8000F1F2E0EDEEE2E8F2FC5FE4E5E2E8E0F635
:101D9000E8FE5FCBD7CC3D31303435303030303B8E
:101DA000000000007E3320D7E0F1F2EEF2E05FEFBA
:101DB000EEE2F2EEF0E5EDE8FF5F46E8ECEF3D31F4
:101DC0003030303B000000007E3320C4EBE8F2E509
:101DD000EBFCEDEEF1F2FC5FE8ECEFF3EBFCF1E095
:101DE0005F54E8ECEF3D3132383B00007E3320D3C6
:101DF000F1F2E0EDEEE2E8F2FC5FCBD7CC3B000085
:101E00007E3320D3F1F2E0EDEEE2E8F2FC5FC0ECCD
:101E1000EFEBE8F2F3E4F33A333B00007E3420D3F7
:101E2000F1F2E0EDEEE2E8F2FC5F46303D333839A6
:101E30003030303030303B007E3420D3F1F2E0EDF2
:101E4000EEE2E8F2FC5FE4E5E2E8E0F6E8FE5FCB14
:101E5000D7CC3D31303435303030303B00000000DD
:101E60007E3420D7E0F1F2EEF2E05FEFEEE2F2EE48
:101E7000F0E5EDE8FF5F46E8ECEF3D313030303B18
:101E8000000000007E3420C4EBE8F2E5EBFCEDEE50
:101E9000F1F2FC5FE8ECEFF3EBFCF1E05F54E8EC0F
:101EA000EF3D3132383B00007E3420D3F1F2E0EDDB
:101EB000EEE2E8F2FC5FCBD7CC3B00007E3420D3CF
:101EC000F1F2E0EDEEE2E8F2FC5FC0ECEFEBE8F2FD
:101ED000F3E4F33A383B00007E3320D3F1F2E0ED37
:101EE000EEE2E8F2FC5FE4E5E2E8E0F6E8FE5FCB74
:101EF000D7CC3D31303235303030303B000000003F
:101F00007E3320D7E0F1F2EEF2E05FEFEEE2F2EEA8
:101F1000F0E5EDE8FF5F46E8ECEF3D313B00000007
:101F20007E3320C4EBE8F2E5EBFCEDEEF1F2FC5F72
:101F3000E8ECEFF3EBFCF1E05F54E8ECEF3D36301A
:101F4000303030303B0000007E3320D3F1F2E0ED42
:101F5000EEE2E8F2FC5FC0ECEFEBE8F2F3E4F33A18
:101F6000343B00007E3420D3F1F2E0EDEEE2E8F203
:101F7000FC5FE4E5E2E8E0F6E8FE5FCBD7CC3D317C
:101F8000303235303030303B000000007E3420D716
:101F9000E0F1F2EEF2E05FEFEEE2F2EEF0E5EDE816
:101FA000FF5F46E8ECEF3D313B0000007E3420C48B
:101FB000EBE8F2E5EBFCEDEEF1F2FC5FE8ECEFF3C1
:101FC000EBFCF1E05F54E8ECEF3D36303030303080
:101FD0003B00000000800B408C06002080000020A9
:101FE0007C0000204C0B0020001BB700F0020020FA
:101FF00074D2BA41A002002000E9A435EC0200200E
:102000008096980065CDBD4100CA9A3B140000201F
:102010004C000020701101000095BA0A00E100E0B8
:1020200015480047FEE7FEE7FEE7FEE7FEE7FEE7AE
:10203000FEE7FEE7FEE7FEE7FEE7FEE7FEE7FEE778
:10204000FEE7FEE7FEE7FEE7FEE7FEE7FEE7FEE768
:10205000FEE7FEE7FEE7FEE7FEE7FEE7FEE7FEE758
:10206000FEE7FEE7FEE7FEE7FEE70000034804495F
:10207000044A054B70470000C1000000581B0020B7
:10208000583B0020582B0020582B002000200949E5
:1020900088600948C86000200860486008464068B9
:1020A0000549084303494860084680690020C04349
:1020B0008861704700800A40FFFF000000200A4945
:1020C00088600A48C8600020086048600846806947
:1020D0000020C04388617047034908607047024987
:1020E000096888B27047000000000B40FFFF000045
:1020F00010B50246F74B988A77231B011840D3028C
:102100004C0023435B1C1843F24CA08200BFF14BF0
:10211000DB8A10242340002BF9D010BD30B5ED4CE4
:10212000E280C406E40C0325AD032C43CD06ED0E7E
:102130002C4320252C432346E64CA38000BFE54CCE
:10214000A4880125ED032C40002CF8D030BD10B53B
:102150000246D006C00C0724640320432030CC067E
:10216000E40E20430346DB4CA38000BFD94880889F
:102170000124E40320400028F8D0D648C08810BDD0
:102180000721C906002002E0002204C1401C0122F0
:10219000D2029042F8D3704700B503200007C0690F
:1021A0000321090408430903C861FFF7E9FF01207F
:1021B00000030321090708800020088148818881E5
:1021C0000120C003C881602008825020488201207D
:1021D000400288820520C882BF480883BF484883E0
:1021E000BF48C8610020BB490880401E48800020CD
:1021F0000881C801488103200007C0690D218903B7
:10220000884303210907C86100BD00B503211C20D4
:10221000FFF76EFFB3480088032109074880B148E3
:1022200040888880AF488088C880FFF7B5FF0F20BE
:10223000A849088000BDF3B583B00B46A54EF689CA
:102240000296A44E7589029EAE4207D9029E761B65
:10225000B7B26E46B7800027F7800CE00126760300
:10226000761BB7B26E46B78001273F03029EF61B6E
:10227000B7B26E46F7806E46B788F688BE19083E3C
:102280009E4254DB1C46039A0726F606A81910C086
:102290006E46B688361FB7B26E46B78086B2924F8A
:1022A000BE4200DD9148DE1C0096F617B70F009E77
:1022B000BE19B4106E46B6889E4208DB002103E0CA
:1022C00040CA40C04E1CB1B2A142F9D321E06E46D3
:1022D000B6880096F617B70F009EBE19B610A41B5D
:1022E000002103E040CA40C04E1CB1B26E46B68821
:1022F0000096F617B70F009EBE19B6108E42F1DC9D
:102300007A48002103E040CA40C04E1CB1B2A1424D
:10231000F9D386B2744FBE4200DD7448002410C069
:1023200086B2714FBE4200DD70486A4F788105B0B9
:10233000F0BDF3B585B00C46002604960396654EB5
:10234000B6890296634E35890598029EAE4206DD37
:10235000029E761BB6B203960026049606E001267E
:102360003603761BB6B20396029E04960726F6063F
:10237000AA19E61C0096F617B70F009EBE19B60301
:10238000340C039EB44215DC002310E040CA0196D1
:1023900001A90E780670401C4E780670401C8E789D
:1023A0000670401CCE780670401C5E1CB3B2A3427F
:1023B000ECDB2FE0039EA61BB4B2002310E040CA62
:1023C000019601A90E780670401C4E780670401CDC
:1023D0008E780670401CCE780670401C5E1CB3B22E
:1023E000039EB342EBDB0722D206002310E040CA73
:1023F000019601A90E780670401C4E780670401CAC
:102400008E780670401CCE780670401C5E1CB3B2FD
:10241000A342ECDB96B2364FBE4201DD0722D20664
:102420002C4F3A813E46368A203E3E8207B0F0BDB0
:10243000F1B584B0002003900022264880890290E4
:10244000244805890298A84205DD0298401B82B203
:102450000020039005E001200003401B82B2029897
:1024600003900720C0062918049C01C90190101F81
:1024700082B288B21E4FB84201DD0721C906684604
:102480008088C01C0090C017870F009838188610ED
:1024900068468088904207DC002302E001C901C43D
:1024A0005B1CB342FAD32AE01046D717BF0F3F1880
:1024B000BF10F61B002302E001C901C45B1CD71743
:1024C000BF0FBF18BF109F42F6D80721C9060023CF
:1024D00013E000002000003006840000FA810000B4
:1024E000800003300C000020FC1F000000100038AA
:1024F000FF0F000001C901C45B1CB342FAD388B2CC
:10250000074FB84201DD0721C906064F3981384619
:10251000008A203838826846808805B0F0BD000007
:10252000FF0F0000200000300A480B49886000209F
:1025300008600A48C8600020C043886100204860E5
:10254000084640680649084303494860002048613E
:10255000704700004001003C00800B401CEA000076
:10256000048A000000200B4988600B48C8600020E6
:10257000086048600846406807491C390843054917
:1025800048600020C043886100204861480108611C
:102590007047000000000C407FFE0000002007494B
:1025A00088600748C860002008600548486000202F
:1025B000C0438861002048617047000000800C40E3
:1025C000FFFF00000020074988600748C86000201E
:1025D0000860054848600020C043886100204861C9
:1025E0007047000000800E40FFFF00003649C969B7
:1025F0000122D2061143344AD1613449886B8009E3
:1026000080013821014307221143304A916305219B
:102610002D4A916000BF2C4909680C2211400C29F9
:10262000F9D12949C96801221143274AD1601146CD
:10263000C96802221143244AD1602549516000BF74
:1026400021490968022211400229F9D11E49C969AC
:10265000082211431C4AD16120211E4A11601A49E7
:10266000C96908229143184AD1611146C9680422F8
:102670001143154AD1601146C96892151143124A97
:10268000D1601146C968521591430F4AD160114675
:10269000C968F02291430C4AD1601146C968D160E3
:1026A0003921090651631146C9690B4A1143064A8B
:1026B000D1610A4991620021516111464969084A74
:1026C0001143014A516170470000024000800D40F3
:1026D000040B000000800140C000E223020200035E
:1026E000222F00000D2007494862012088626020E7
:1026F000C86210200349403148600249886302489B
:102700000863704700000340010300000D200749E3
:102710004862012088626020C8621020034940316D
:10272000486002498863024808637047008003409C
:1027300001030000704770B50546002403E04FA078
:10274000FDF7A3FD641C142CF9DB002403E04CA06E
:10275000FDF79BFD641C402CF9DB48A0FDF795FDBF
:1027600046A0FDF792FD45A0FDF78FFD43A0FDF7C4
:102770008CFD44A0FDF789FD40A0FDF786FD3FA03C
:10278000FDF783FD3DA0FDF780FD45A0FDF77DFD34
:1027900046A0FDF77AFD48A0FDF777FD4CA0FDF7B8
:1027A00074FD51A0FDF771FD55A0FDF76EFD5CA015
:1027B000FDF76BFD5FA0FDF768FD63A0FDF765FD0C
:1027C00064A0FDF762FD6EA0FDF75FFD76A0FDF74A
:1027D0005CFD81A0FDF759FD8BA0FDF756FD90A093
:1027E000FDF753FD94A0FDF750FD98A0FDF74DFDBA
:1027F0009AA0FDF74AFD9DA0FDF747FD9FA0FDF7BC
:1028000044FDA2A0FDF741FDA4A0FDF73EFDA7A059
:10281000FDF73BFDA9A0FDF738FDACA0FDF735FDA8
:10282000ADA0FDF732FDB1A0FDF72FFDB6A0FDF77D
:102830002CFDBFA0FDF729FDC3A0FDF726FDC8A014
:10284000FDF723FDCEA0FDF720FDD5A0FDF71DFD72
:10285000D9A0FDF71AFDE1A0FDF717FDE9A0FDF7EE
:1028600014FDF3A0FDF711FDFCA0FDF70EFD03A084
:10287000FDF70BFD01A0FDF708FD05E20D0A0000C4
:102880002A0000002E2E2E2E2E2E5465726D696E9B
:10289000616C20423630302D312E2E2E2E0D0A0046
:1028A0004D454E55203A0D0A000000002D2D2D2DCE
:1028B0002D2D2D0D0A0000007E202D20F1F2E0F0DC
:1028C000F2EEE2FBE920E1E0E9F20D0A000000008F
:1028D00031202D20E0E4F0E5F120E0E1EEEDE5ED42
:1028E000F2E00D0A0000000073746172745F5443DB
:1028F00050202D2020EAEEECE0EDE4E00D0A00008F
:102900003D3330303030303030202D20E4E0EDEDFC
:10291000FBE520EAEEECE0EDE4FB0D0A0000000030
:102920003B2D20EAEEEDE5F620EFE0F7EAE8200D9A
:102930000A0000002E2E2E2E2E2E2E2E2E2E2E2E65
:102940002E2E200D0A000000C0E4F0E5F1E03A2050
:102950000D0A000031202D2031D32DCA3678782081
:1029600020202C20F1E8EDF5F0EEEDE8E7E0F2EEC6
:10297000F020ECE0F1F2E5F03A200D0A0000000052
:1029800032202D2031D32DCA3678782D31202C20BD
:10299000F1E8EDF5F0EEEDE8E7E0F2EEF020F0E53D
:1029A000E7E5F0E20D0A000033202D2031D32DCAD7
:1029B000367878202C20F1E8EDF2E5E7E0F2EEF051
:1029C00020F7E0F1F2EEF2FB20E8E7EBF3F7E5EDBC
:1029D000E8FF20200D0A000034202D2031D32DCA1D
:1029E000367878202C20F1E8EDF2E5E7E0F2EEF021
:1029F00020F7E0F1F2EEF2FB20E3E5F2E5F0EEE4A1
:102A0000E8EDE020200D0A0036202D2031D32DCA1C
:102A1000367878202C20D4CED720200D0A00000054
:102A20002B2B2B2B2B2B2B2B2B2B2B2B2B2B2B2BF6
:102A30002B2B2B0D0A0000007E3120776174636818
:102A40005F7265675F6464733B0D0A007E312069C5
:102A5000645F6464733B0D0A000000007E312077E0
:102A6000726E5F6464735F313B0D0A007E312077C4
:102A7000726E5F6464735F303B0D0A007E312069C3
:102A80006E69745F6464733B0D0A00007E312072CE
:102A9000645F6464733B0D0A000000007E312077A0
:102AA000725F6464733D313B0D0A00007E31207219
:102AB000645F7473743B0D0A000000007E31207760
:102AC000725F7473743D313B0D0A00007E312068E3
:102AD000656C703B0D0A00007E3120544553545FF5
:102AE0004255535F4F55543B0D0A00007E3120C2C2
:102AF000EAEBFEF7E8F2FC5FF1E8EDF2E5E7E0F281
:102B0000EEF03B0D0A0000007E3120C8EDE4E8EA5B
:102B1000E0F6E8FF5FF1EEF1F2EEFFEDE8FF5FF1C6
:102B2000E8EDF2E5E7E0F2EEF0E03B0D0A00000030
:102B30007E3120C2EAEBFEF7E8F2FC5FCBD7CC5F38
:102B400055503B0D0A0000007E3120C2EAEBFEF733
:102B5000E8F2FC5FCBD7CC5F444F574E3B0D0A00E9
:102B60007E3120D3F1F2E0EDEEE2E8F2FC5FC0EC62
:102B7000EFEBE8F2F3E4F33D303B0D0A0000000018
:102B80007E3120D3F1F2E0EDEEE2E8F2FC5F463078
:102B90003D36303030303030303B0D0A0000000020
:102BA0007E3120D3F1F2E0EDEEE2E8F2FC5FCBD72C
:102BB000CC3B0D0A000000007E3120D7E0F1F2EEA0
:102BC000F2E05FEFEEE2F2EEF0E5EDE8FF5F46E8FF
:102BD000ECEF3D3130303B0D0A0000007E3120C467
:102BE000EBE8F2E5EBFCEDEEF1F2FC5FE8ECEFF385
:102BF000EBFCF1E05F54E8ECEF3D3130303B0D0A87
:102C0000000000007E3120D3F1F2E0EDEEE2E8F2C8
:102C1000FC5FF7E0F1F2EEF2F35F465F6C6F773D39
:102C20003433303030303030303B0D0A000000009B
:102C30007E3120D3F1F2E0EDEEE2E8F2FC5FF7E066
:102C4000F1F2EEF2F35F465F686967683D34343055
:102C50003030303030303B0D0A0000007E312041F2
:102C600044433D313B2020EFF0EEE2E5F0EAE02086
:102C700041444320ECE8EAF0EEEAEEEDF2F0EEEB50
:102C8000EBE5F0E00D0A000006A0FDF7FEFA0AA051
:102C9000FDF7FBFA08A0FDF7F8FA07A0FDF7F5FA33
:102CA00070BD00002B2B2B2B2B2B2B2B2B2B2B2BF3
:102CB0002B2B2B2B2B2B2B2B0D0A000010B5014699
:102CC00064244C432346002201E0401C521C9A42DB
:102CD000FBD310BD70B505460E4614460120FFF724
:102CE000EDFFA0690068227F012191400843A1699E
:102CF00008600120FFF7E2FFFE48216848600120DC
:102D0000FFF7DCFFA0680068227B01219140884327
:102D1000A16808600120FFF7D1FF206A0068242124
:102D20000A5D012191408843216A08600120FFF774
:102D3000C5FF206806600120FFF7C0FF206900681A
:102D4000227D012191408843216908600120FFF71D
:102D5000B5FF20690068227D012191400843216967
:102D600008600120FFF7AAFF206A006824210A5D9D
:102D7000012191400843216A08600120FFF79EFF6E
:102D8000A0680068227B012191400843A168086087
:102D90000120FFF793FF206A006824210A5D0121CA
:102DA00091408843216A08600120FFF787FF20686F
:102DB00005600120FFF782FF20690068227D012164
:102DC00091408843216908600120FFF777FF20695F
:102DD0000068227D0121914008432169086001209B
:102DE000FFF76CFF206A006824210A5D01219140F1
:102DF0000843216A08600120FFF760FFBD48216891
:102E0000086070BDF0B505460C4600260027A06995
:102E10000068227F012191400843A16908600120D8
:102E2000FFF74CFFB34821684860206A00682421FE
:102E30000A5D012191408843216A08600120FFF763
:102E40003DFF20690168227D012090408143206977
:102E500001600120FFF732FFA0680068227B01219A
:102E600091408843A1680860206805600120FFF751
:102E700025FF20690068227D0121914008432169D6
:102E800008600120FFF71AFF206A006824210A5D0C
:102E9000012191400843216A0860A0680068227BF4
:102EA000012191400843A16808600120FFF706FF57
:102EB0000020216848600120FFF700FFA06800683B
:102EC000227B012191400843A1680860206A0068C4
:102ED00024210A5D012191408843216A0860A0698C
:102EE0000068227F012191408843A1690860012088
:102EF000FFF7E4FE20690068227D012191408843AC
:102F0000216908600120FFF7D9FE2068006887B2B8
:102F10000120FFF7D3FE20690068227D0121914046
:102F20000843216908600120FFF7C8FEA069006816
:102F3000227F012191400843A16908600120FFF729
:102F4000BDFE206A006824210A5D012191400843EA
:102F5000216A08600120FFF7B1FEF01980B2F0BDD0
:102F6000F0B504460D46164600273246294620464F
:102F7000FFF7B0FE31462846FFF744FFA04201D1DB
:102F8000012700E000273846F0BD70B506460D4623
:102F90000024286B006834214A5D012191400843D8
:102FA000296B0860A86A00682C214A5D01219140C4
:102FB0000843A96A0860286900682A7D01219140B8
:102FC000084329690860A86900682A7F01219140A7
:102FD0000843A9690860286A006824214A5D012124
:102FE00091400843296A08600120FFF767FE4248C4
:102FF000FFF764FE414841882A4601200003FFF79D
:10300000AFFF002801D1601CC4B23C4801882A46A9
:103010000020FFF7A5FF002801D1601CC4B237488B
:103020004038C18F2A460020FFF79AFF002801D1BF
:10303000601CC4B2314881882A460020FFF790FF07
:10304000002801D1601CC4B22C484038C18D2A46EA
:1030500003204003FFF784FF002801D1601CC4B2A5
:1030600026484038018E2A4603204003FFF778FFA8
:10307000002801D1601CC4B220484038418E2A4645
:1030800003204003FFF76CFF002801D1601CC4B28D
:103090001A484038818E2A4603204003FFF760FF1C
:1030A000002801D1601CC4B21448803801882A4627
:1030B0000020FFF755FF002801D1601CC4B20F4863
:1030C0008038C1892A460020FFF74AFF002801D135
:1030D000601CC4B209488038018A2A460020FFF7E4
:1030E0003FFF002801D1601CC4B204488038418AE7
:1030F0002A4605E0FFFF0000102700009E03002085
:103100000020FFF72DFF002801D1601CC4B2FB484E
:10311000818A2A460020FFF723FF002801D1601C86
:10312000C4B2F648C18A2A460020FFF719FF0028DA
:1031300001D1601CC4B2F148018B2A460020FFF780
:103140000FFF002801D1601CC4B2EC48418B2A4615
:103150000020FFF705FF002801D1601CC4B2E7483A
:10316000818B2A460020FFF7FBFE002801D1601C5E
:10317000C4B2E248C18B2A460020FFF7F1FE0028C6
:1031800001D1601CC4B2DD48018C2A460020FFF743
:10319000E7FE002801D1601CC4B2D848418C2A4601
:1031A0000020FFF7DDFE002801D1601CC4B2D34827
:1031B000818C2A460020FFF7D3FE002801D1601C35
:1031C000C4B2CE48C18C2A460020FFF7C9FE0028B1
:1031D00001D1601CC4B2C948018D2A460020FFF706
:1031E000BFFE002801D1601CC4B2C448418D2A46EC
:1031F0000020FFF7B5FE002801D1601CC4B2BF4813
:10320000818D2A460020FFF7ABFE002801D1601C0B
:10321000C4B2BA48C18D2A460020FFF7A1FE00289B
:1032200001D1601CC4B2B548018E2A460020FFF7C8
:1032300097FE002801D1601CC4B2B048418E2A46D6
:103240000020FFF78DFE002801D1601CC4B2AB48FE
:10325000818E2A460020FFF783FE002801D1601CE2
:10326000C4B2A648C18E2A460020FFF779FE002886
:1032700001D1601CC4B2A148018F2A460020FFF78B
:103280006FFE002801D1601CC4B29C48418F2A46C1
:103290000020FFF765FE002801D1601CC4B29748EA
:1032A000818F2A460020FFF75BFE002801D1601CB9
:1032B000C4B29248C18F2A460020FFF751FE002871
:1032C00001D1601CC4B28D48403001882A460020DC
:1032D000FFF746FE002801D1601CC4B28748403089
:1032E000C1892A460020FFF73BFE002801D1601C5F
:1032F000C4B282484030018A2A460020FFF730FEDF
:10330000002801D1601CC4B27C484030418A2A4662
:103310000020FFF725FE002801D1601CC4B27748C9
:103320004030818A2A460020FFF71AFE002801D18A
:10333000601CC4B271484030C18A2A460020FFF7A1
:103340000FFE002801D1601CC4B26C484030018BD4
:103350002A460020FFF704FE002801D1601CC4B2F9
:1033600066484030418B2A460020FFF7F9FD0028CF
:1033700001D1601CC4B261484030818B2A460020D4
:10338000FFF7EEFD002801D1601CC4B25B4840305D
:10339000C18B2A460020FFF7E3FD002801D1601C05
:1033A000C4B256484030018C2A460020FFF7D8FDB1
:1033B000002801D1601CC4B250484030418C2A46DC
:1033C0000020FFF7CDFD002801D1601CC4B24B489E
:1033D0004030818C2A460020FFF7C2FD002801D131
:1033E000601CC4B245484030C18C2A460020FFF71B
:1033F000B7FD002801D1601CC4B240484030018DA7
:103400002A460020FFF7ACFD002801D1601CC4B2A1
:103410003A484030418D2A460020FFF7A1FD0028A0
:1034200001D1601CC4B235484030818D2A4600204D
:10343000FFF796FD002801D1601CC4B22F48403030
:10344000C18E2A460020FFF78BFD002801D1601CA9
:10345000C4B22A484030018F2A460020FFF780FD81
:10346000002801D1601CC4B224484030418F2A4654
:103470000020FFF775FD002801D1601CC4B21F4871
:103480004030818F2A460020FFF76AFD002801D1D5
:10349000601CC4B21948803041892A460020FFF7D9
:1034A0005FFD002801D1601CC4B2144841882A463F
:1034B0000720FFF755FD002801D1601CC4B20F485A
:1034C00001892A46D420FFF74BFD002801D1601C5A
:1034D000C4B20BA0FCF70CFF0EA0FCF709FF1049CB
:1034E0002046FCF788FE0E48FCF702FF0DA0FCF713
:1034F000FFFE11A0FCF7FCFE70BD00001E030020C3
:103500002D2D2D2D2D2D2D2D2D2D2D2D2D2D2D0D0B
:103510000A0000006661696C7572653A000000007F
:10352000AF1200200D0A2D2D2D2D2D2D2D2D2D2DE1
:103530002D2D2D2D2D2D00000D0A000070B50446F7
:103540000025D8A0FCF7D4FEDFA0FCF7D1FEE049AF
:10355000C8882146FFF756FC0546DE492846FCF799
:103560004AFEDC48FCF7C4FEDBA0FCF7C1FED5A098
:10357000FCF7BEFED3A0FCF7BBFEE2A0FCF7B8FE52
:10358000D349803988882146FFF73CFC0546D1495C
:103590002846FCF730FECF48FCF7AAFEDDA0FCF77A
:1035A000A7FEC8A0FCF7A4FEE8A0FCF7A1FEC8494E
:1035B0008039C8882146FFF725FC0546C5492846BD
:1035C000FCF719FEC348FCF793FEE3A0FCF790FE5E
:1035D000BCA0FCF78DFEBBA0FCF78AFEE8A0FCF7C0
:1035E00087FEBB4948882146FFF70CFC0546B949D0
:1035F0002846FCF700FEB748FCF77AFEE2A0FCF78D
:1036000077FEB0A0FCF774FEE5A0FCF771FEB049B0
:1036100088882146FFF7F6FB0546AE492846FCF7A9
:10362000EAFDAC48FCF764FEE0A0FCF761FEA5A053
:10363000FCF75EFEE6A0FCF75BFEA5490888214684
:10364000FFF7E0FB0546A3492846FCF7D4FDA14857
:10365000FCF74EFEE0A0FCF74BFE9AA0FCF748FEFC
:1036600098A0FCF745FEE4A0FCF742FE98494039DB
:10367000C88F2146FFF7C6FB054696492846FCF74A
:10368000BAFD9448FCF734FEDDA0FCF731FE8DA0B6
:10369000FCF72EFE8BA0FCF72BFEE7A0FCF728FE24
:1036A0008B49803948892146FFF7ACFB054689499B
:1036B0002846FCF7A0FD8748FCF71AFEE0A0FCF7BF
:1036C00017FE80A0FCF714FEE9A0FCF711FE80496C
:1036D000803988892146FFF795FB05467D492846B4
:1036E000FCF789FD7B48FCF703FEE3A0FCF700FE36
:1036F00074A0FCF7FDFD73A0FCF7FAFDEAA0FCF74F
:10370000F7FD7349803908892146FFF77BFB0546A1
:1037100070492846FCF76FFD6E48FCF7E9FDE4A010
:10372000FCF7E6FD67A0FCF7E3FD66A0FCF7E0FD13
:10373000EBA0FCF7DDFD66494039C88E2146FFF756
:1037400061FB054663492846FCF755FD6148FCF7D7
:10375000CFFDE7A0FCF7CCFD5AA0FCF7C9FD59A0AE
:10376000FCF7C6FDF0A0FCF7C3FD59494039C88DF0
:103770002146FFF747FB054656492846FCF73BFD27
:103780005448FCF7B5FDEBA0FCF7B2FD4DA0FCF7EB
:10379000AFFD4CA0FCF7ACFDF2A0FCF7A9FD4C4935
:1037A000403948892146FFF72DFB054649492846FF
:1037B000FCF721FD4748FCF79BFDEEA0FCF798FDC8
:1037C00040A0FCF795FD3FA0FCF792FDF5A0FCF7AB
:1037D0008FFD3F49803908882146FFF713FB0546D6
:1037E0003C492846FCF707FD3A48FCF781FDF0A06C
:1037F000FCF77EFD33A0FCF77BFDF5A0FCF778FD20
:1038000033494039C8892146FFF7FCFA054631495A
:103810002846FCF7F0FC2F48FCF76AFDEFA0FCF708
:1038200067FD28A0FCF764FDF8A0FCF761FD2849BE
:103830004039088A2146FFF7E5FA0546254928461A
:10384000FCF7D9FC2348FCF753FD1EA0FCF750FD04
:10385000F1A0FCF74DFD1E494039488A2146FFF78B
:10386000D1FA05461B492846FCF7C5FC1948FCF768
:103870003FFD14A0FCF73CFD12A0FCF739FDE9A0C8
:10388000FCF736FD1249403948882146FFF7BAFA5D
:10389000054610492846FCF7AEFC0E48FCF728FD0B
:1038A000C8E100002F2F2D2D2D2D2D2D2D2D2D2D4F
:1038B0002D2D2D2D2D2D2D2D2D2D2D2D2D2D2D2D38
:1038C0002D2D2D2D0D0A000044455649443A000087
:1038D0009E030020AF120020092F2FC8E4E5EDF26F
:1038E000E8F4E8EAE0F2EEF020F3F1F2F0EEE9F1CC
:1038F000F2E2E02C20F2EEEBFCEAEE20F7F2E5ED4E
:10390000E8E50000545F53454C5F53544154453A39
:1039100000000000092F2FCEF2EBE0E4EEF7EDFB04
:10392000E920F0E5E3E8F1F2F03A20F2E5EAF3F914
:10393000E5E520F1EEF1F2EEFFEDE8E520E2FBE255
:10394000EEE4EEE22053454C00000000545F455F7A
:1039500053454C3A00000000092F2FCEF2EBE0E473
:10396000EEF7EDFBE920F0E5E3E8F1F2F03A20FDB7
:10397000F4F4E5EAF2E8E2EDFBE92053454C0000FF
:103980004354523A00000000092F2FD0E5E3E8F13C
:10399000F2F020F3EFF0E0E2EBE5EDE8FF000000ED
:1039A00053454C5F5245473A00000000092F2FC293
:1039B000FBE1EEF020E0EAF2E8E2EDEEE3EE20EFEC
:1039C000F0EEF4E8EBFF20F1E8EDF2E5E7E00000CF
:1039D00053594E433A000000092F2FD3EFF0E0E295
:1039E000EBE5EDE8E520F1E8EDF5F0EEEDE8E7E0F8
:1039F000F6E8E5E900000000434C523A0000000000
:103A000009092F2FCEF7E8F1F2EAE020E0EAEAF325
:103A1000ECF3EBFFF2EEF0EEE220F4E0E7FB2C201B
:103A2000E7E0EFF3F1EA20E820EEF1F2E0EDEEE27C
:103A3000EAE020CBD7CC000054435F4C3A000000B2
:103A40000909092F2FC4E5EBE8F2E5EBFC20F7E8C4
:103A5000EFEEE2EEE920F1EAEEF0EEF1F2E82C20F2
:103A6000E1E8F2FB205B31353A20305D00000000D8
:103A700054435F483A0000000909092F2FC4E5EBC1
:103A8000E8F2E5EBFC20F7E8EFEEE2EEE920F1EA00
:103A9000EEF0EEF1F2E82C20E1E8F2FB205B3331AE
:103AA0003A31365D00000000524F5554453A00004F
:103AB0000909092F2FD3EFF0E0E2EBE5EDE8E5206F
:103AC000EFEEF2EEEAEEEC20E4E0EDEDFBF520E8BF
:103AD00020F0E0EDE4EEECE8E7E0F6E8E5E90000F0
:103AE0004348315F4F6666736574303A00000000EA
:103AF000092F2FD0E5E3E8F1F2F020F3EFF02E20CC
:103B0000F1ECE5F9E5EDE8E5EC20E2FBF5EEE4EDBE
:103B1000EEE3EE20F1E8E3EDE0EBE02C20EFF0EE59
:103B2000F4E8EBFC203000004348315F4D756C3009
:103B30003A00000009092F2FD0E5E3E8F1F2F02068
:103B4000F3EFF0E0E2EBE5EDE8FF20E0ECEFEBE88F
:103B5000F2F3E4EEE92C20EFF0EEF4E8EBFC203099
:103B6000000000004348315F4D756C5F616C6C3A3A
:103B7000000000002F2FD0E5E3E8F1F2F020F3EF92
:103B8000F0E0E2EBE5EDE8FF20E0ECEFEBE8F2F34C
:103B9000E4EEE92C20EFF0EEF4E8EBFC20414C4C95
:103BA000000000004348315F4C535F4354523A00D9
:103BB00009092F2FD3EFF0E0E2EBE5EDE8E520F186
:103BC000E8EDF2E5E7EEEC20CBD7CC2E00000000CC
:103BD0004348315F645068305F4C3A00092F2FD062
:103BE000E5E3E8F1F2F020EFF0E8F0E0F9E5EDE8E8
:103BF000FF20F4E0E7FB205B31353A20305D2C20DC
:103C0000EFF0EEF4E8EBFC20300000004348315FB9
:103C1000645068305F4D3A004348315F645068300B
:103C20005F483A004348315F6450685F616C6C5F85
:103C30004C3A0000E5A0FCF75BFBF0A0FCF758FB5A
:103C4000EFA0FCF755FBF24988882146FFF7DAF828
:103C50000546F0492846FCF7CEFAEE48FCF748FB4B
:103C6000E6A0FCF745FBECA0FCF742FBE849C8885E
:103C70002146FFF7C7F80546E6492846FCF7BBFA98
:103C8000E448FCF735FBDDA0FCF732FBDBA0FCF7DA
:103C90002FFBE5A0FCF72CFBDD494039C88E2146FF
:103CA000FFF7B0F80546DB492846FCF7A4FAD948E7
:103CB000FCF71EFBE0A0FCF71BFBD0A0FCF718FBF9
:103CC000E7A0FCF715FBD2494039088F2146FFF7E2
:103CD00099F80546CF492846FCF78DFACD48FCF700
:103CE00007FBC6A0FCF704FBE1A0FCF701FBC849F9
:103CF0004039488F2146FFF785F80546C5492846D3
:103D0000FCF779FAC348FCF7F3FABCA0FCF7F0FA29
:103D1000BAA0FCF7EDFADAA0FCF7EAFABC494039A0
:103D2000888F2146FFF76EF80546BA492846FCF70A
:103D300062FAB848FCF7DCFAD5A0FCF7D9FAAFA0D4
:103D4000FCF7D6FADDA0FCF7D3FAB1494039C88FA9
:103D50002146FFF757F80546AE492846FCF74BFACF
:103D6000AC48FCF7C5FAA5A0FCF7C2FAD7A0FCF74F
:103D7000BFFAA74908882146FFF744F80546A54938
:103D80002846FCF738FAA348FCF7B2FA9BA0FCF7E8
:103D9000AFFA9AA0FCF7ACFAD0A0FCF7A9FA9C49BC
:103DA0004039C88C2146FFF72DF805469949284629
:103DB000FCF721FA9748FCF79BFACCA0FCF798FA9D
:103DC0008EA0FCF795FAD4A0FCF792FA90494039FE
:103DD000088D2146FFF716F805468E492846FCF760
:103DE0000AFA8C48FCF784FA84A0FCF781FACEA08A
:103DF000FCF77EFA86494039488D2146FFF702F8E4
:103E0000054684492846FCF7F6F98248FCF770FA23
:103E10007AA0FCF76DFA79A0FCF76AFAC6A0FCF765
:103E200067FA7B494039888D2146FEF7EBFF05464E
:103E300078492846FCF7DFF97648FCF759FA94A050
:103E4000FCF756FA6DA0FCF753FABFA0FCF750FA46
:103E50006F494039C88D2146FEF7D4FF05466D49AC
:103E60002846FCF7C8F96B48FCF742FA63A0FCF758
:103E70003FFAB9A0FCF73CFA65494039088E214663
:103E8000FEF7C0FF054663492846FCF7B4F96148D0
:103E9000FCF72EFA59A0FCF72BFA58A0FCF728FAE9
:103EA000B1A0FCF725FA5A494039C8892146FEF7E6
:103EB000A9FF054657492846FCF79DF95548FCF7E8
:103EC00017FAADA0FCF714FA4CA0FCF711FAB7A052
:103ED000FCF70EFA4E494039088A2146FEF792FF58
:103EE00005464C492846FCF786F94A48FCF700FA93
:103EF00042A0FCF7FDF9B1A0FCF7FAF944494039BA
:103F0000488A2146FEF77EFF054642492846FCF7CF
:103F100072F94048FCF7ECF938A0FCF7E9F937A052
:103F2000FCF7E6F9A9A0FCF7E3F939494039888A9A
:103F30002146FEF767FF054636492846FCF75BF940
:103F40003448FCF7D5F9A5A0FCF7D2F92BA0FCF773
:103F5000CFF9AFA0FCF7CCF92D494039C88A2146EA
:103F6000FEF750FF05462B492846FCF744F929483F
:103F7000FCF7BEF921A0FCF7BBF9A9A0FCF7B8F942
:103F800023494039088B2146FEF73CFF054621496D
:103F90002846FCF730F91F48FCF7AAF917A0FCF7F0
:103FA000A7F916A0FCF7A4F9A1A0FCF7A1F91849FC
:103FB0004039488B2146FEF725FF0546154928461E
:103FC000FCF719F91348FCF793F939E1092F2FC7CA
:103FD000E0EFE8F1FC20EFF0E8F0E0F9E5EDE8FFD4
:103FE00020F4E0E7FB205B31353A305D20E2EE2043
:103FF000E2F1E520EFF0EEF4E8EBE8000D0A000056
:104000004348315F6450685F616C6C5F4D3A0000FB
:104010005E030020AF1200204348315F6450685FA8
:10402000616C6C5F483A00004348315F4C535F64F9
:1040300046315F4C3A000000202F2FD0E5E3E8F135
:10404000F2F020EFF0E8F0E0F9E5EDE8FF20F7E02E
:10405000F1F2EEF2FB2031205B31353A20305D0089
:104060004348315F4C535F6446315F4D3A00000076
:104070004348315F4C535F6446315F483A0000006B
:104080004348315F4C535F6446325F4C3A00000056
:104090002F2FD0E5E3E8F1F2F020EDE0F7E0EBFCC4
:1040A000EDEEE920F7E0F1F2EEF2FB20CBD7CC20E9
:1040B00032205B31353A305D000000004348315F0B
:1040C0004C535F6446325F4D3A0000004348315F15
:1040D0004C535F6446325F483A0000004348315F0A
:1040E0004C535F46315F4C3A000000002F2FD0E563
:1040F000E3E8F1F2F020EDE0F7E0EBFCEDEEE92093
:10410000F7E0F1F2EEF2FB20CBD7CC2031205B318F
:10411000353A305D000000004348315F4C535F4644
:10412000315F4D3A000000004348315F4C535F4619
:10413000315F483A000000004348315F4C535F460E
:10414000325F4C3A000000004348315F4C535F46F9
:10415000325F4D3A000000004348315F4C535F46E8
:10416000325F483A00000000D148315F4C535F5441
:104170005048315F4C3A00002F2FD0E5E3E8F1F2D0
:10418000F020E4EBE8F2E5EBFCEDEEF1F2E82031B3
:104190002DEEE920F4E0E7FB20CBD7CC2DF1E8E3CE
:1041A000EDE0EBE0205B31353A305D00D148315F26
:1041B0004C535F545048315F4D3A0000D148315F55
:1041C0004C535F545048315F483A0000D148315F4A
:1041D0004C535F545048325F4C3A00002F2FD0E5CB
:1041E000E3E8F1F2F020E4EBE8F2E5EBFCEDEEF1D0
:1041F000F2E820322DEEE920F4E0E7FB20CBD7CC2B
:104200002DF1E8E3EDE0EBE0205B31353A305D0085
:10421000D148315F4C535F545048325F4D3A0000F3
:10422000D148315F4C535F545048325F483A0000E8
:10423000D148315F4C535F545048335F4C3A0000D3
:10424000F0A0FCF755F8FCA0FCF752F8FBA0FCF737
:104250004FF8FE49888B2146FEF7D4FD0546FC4900
:104260002846FBF7C8FFFA48FCF742F8F2A0FCF733
:104270003FF8F8A0FCF73CF8F449C88B2146FEF75C
:10428000C1FD0546F2492846FBF7B5FFF048FCF7AB
:104290002FF8E9A0FCF72CF8E7A0FCF729F8F1A02B
:1042A000FCF726F8E949088C2146FEF7ABFD0546E8
:1042B000E7492846FBF79FFFE548FCF719F8EDA012
:1042C000FCF716F8DCA0FCF713F8F7A0FCF710F8E1
:1042D000DE49488C2146FEF795FD0546DC49284617
:1042E000FBF789FFDA48FCF703F8D3A0FCF700F8E6
:1042F000F1A0FBF7FDFFD549888C2146FEF782FD32
:104300000546D3492846FBF776FFD148FBF7F0FF77
:10431000C9A0FBF7EDFFC8A0FBF7EAFFEAA0FBF797
:10432000E7FFCA49488E2146FEF76CFD0546C8499D
:104330002846FBF760FFC648FBF7DAFFE5A0FBF76E
:10434000D7FFBDA0FBF7D4FFEAA0FBF7D1FFBF4921
:10435000888E2146FEF756FD0546BD492846FBF7E7
:104360004AFFBB48FBF7C4FFE5A0FBF7C1FFB2A0C3
:10437000FBF7BEFFB0A0FBF7BBFFE948FBF7B8FFB8
:1043800070BD70B504460D46164632462946204695
:10439000FEF7A0FC70BD70B504460D4629462046C8
:1043A000FEF730FD0646304670BDF3B58BB00746CC
:1043B0000024DCA0FBF79CFFDD48006802F0B5FAA2
:1043C00007910690786802F0B0FA01910090D94800
:1043D0000CC8009801F0B4FF09910890079B069A59
:1043E0000999089801F0C4FF1F22D243D24B0191D2
:1043F000009002F0DFFA099108900999089802F0FC
:1044000035FA05460E46CDA0FBF772FFD1A0FBF7AB
:104410006FFF2A463346D0A18D4801F0ADFB8C4892
:10442000FBF766FF84A0FBF763FFA8B2059090A09E
:10443000FBF75EFF86490598FBF7DDFE8448FBF736
:1044400057FF7DA0FBF754FF3104280C084380B2CE
:1044500004907DA0FBF74CFF7D490498FBF7CBFE51
:104460007B48FBF745FF74A0FBF742FFB0B2039017
:104470007BA0FBF73DFF76490398FBF7BCFE744831
:10448000FBF736FF6CA0FBF733FFB4A0FBF730FF60
:104490006E484030C1890C9A0598FEF761FD0028EE
:1044A00001D1601CC4B269484030018A0C9A04985A
:1044B000FEF756FD002801D1601CC4B263484030AD
:1044C000418A0C9A0398FEF74BFD002801D1601C2D
:1044D000C4B293481830FBF70BFFA948FBF708FF5D
:1044E0005B492046FBF787FE5948FBF701FFA5A073
:1044F000FBF7FEFE50A0FBF7FBFE0DB0F0BDF0B5E4
:1045000085B005460E460024A1480390A86902F034
:1045100093FC04909F49049802F09AFB0146019095
:104520009D4804F0BFFA074684A0FBF7E1FE9BA07C
:10453000FBF7DEFE384602F061FB02460B460191B6
:10454000009099A1424801F017FB4148FBF7D0FECB
:1045500039A0FBF7CDFE039802F06EFC39460090BF
:1045600002F076FB019002F023FC80B202908BA057
:10457000FBF7BEFE36490298FBF73DFE3448FBF7D9
:10458000B7FE2DA0FBF7B4FE3048403041893246DB
:104590000298FEF7E5FC002801D1601CC4B22B484C
:1045A0004030C18D32460298FEF7DAFC002801D176
:1045B000601CC4B225484030018E32460298FEF796
:1045C000CFFC002801D1601CC4B220484030418E8D
:1045D00032460298FEF7C4FC002801D1601CC4B228
:1045E0001A484030818E32460298FEF7B9FC002806
:1045F00001D1601CC4B24A481830FBF779FE60480C
:10460000D4E000002F2FD0E5E3E8F1F2F020E4EB56
:10461000E8F2E5EBFCEDEEF1F2E820332DEEE920D7
:10462000F4E0E7FB20CBD7CC2DF1E8E3EDE0EBE0C5
:10463000205B31353A305D000D0A0000D148315F12
:104640004C535F545048335F4D3A00001E03002026
:10465000AF120020D148315F4C535F545048335F54
:10466000483A0000D148315F4C535F545048345FA2
:104670004C3A00002F2FD0E5E3E8F1F2F020E4EB14
:10468000E8F2E5EBFCEDEEF1F2E820342DEEE92066
:10469000F4E0E7FB20CBD7CC2DF1E8E3EDE0EBE055
:1046A000205B31353A305D00D148315F4C535F5467
:1046B0005048345F4D3A0000D148315F4C535F544D
:1046C0005048345F483A00004348315F4C535F50D4
:1046D00068313A002F2FD0E5E3E8F1F2F020EDE069
:1046E000F7E0EBFCEDEEE920F4E0E7FB20CBD7CCE4
:1046F000203100004348315F4C535F5068323A002C
:104700002F2FD0E5E3E8F1F2F020EDE0F7E0EBFC4D
:10471000EDEEE920F4E0E7FB20CBD7CC203200001F
:10472000A4380000776F726B2E2E0D0A0000000077
:10473000EC020020A0020020FFFFEF42F0E0F1F7C2
:10474000B8F220EFF0EEE8E7E2E5E4B8ED3A0D0A62
:1047500000000000663A000025640000EAEEEDE289
:10476000E5F0F2E0F6E8FF20E220313620E1E8F261
:10477000EDFBE920F4EEF0ECE0F20D0A00000000A1
:10478000143500000D0A2D2D2D2D2D2D2D2D2D0034
:10479000F87F00000000A04100002041616D706CB6
:1047A000697475643A00000025660000FBF7A0FDFF
:1047B000FA492046FBF71FFDF848FBF799FDF8483A
:1047C000FBF796FDF7A0FBF793FD05B0F0BDF3B541
:1047D000A1B007460024002107910691F0486038F7
:1047E000FBF786FDF048006802F09FF811911090E9
:1047F000B86802F09AF805910490EC480CC8049847
:1048000001F09EFD1B911A90119B109A1B991A980A
:1048100001F0AEFD1F22D243E54B0591049002F05A
:10482000C9F8199118901999189802F01FF81F915A
:104830001E90DB484838FBF75BFDDEA0FBF758FD18
:10484000DEA1D648199B189A01F096F9D348FBF7D8
:104850004FFDD4A0FBF74CFD1E9881B20D91D8A05E
:10486000FBF746FDD7A1CD480D9A01F085F9CB485D
:10487000FBF73EFDCBA0FBF73BFD1F9909041E98FB
:10488000000C084380B20C90CFA0FBF731FDCDA106
:10489000C2480C9A01F070F9C048FBF729FDC1A08D
:1048A000FBF726FD1F9880B20B90C8A0FBF720FDF8
:1048B000C4A1BA480B9A01F05FF9B848FBF718FD9C
:1048C000B8A0FBF715FDC248C18C229A0D98FEF7DF
:1048D00047FB002801D1601CC4B2BD48018D229A5B
:1048E0000C98FEF73DFB002801D1601CC4B2B8480B
:1048F000418D229A0B98FEF733FB002801D1601CF2
:10490000C4B2B4A0FBF7F4FCF86802F00EF805910D
:104910000490A6480CC8049801F012FD1B911A904F
:10492000A148006802F001F811911090119B109AB3
:104930001B991A9801F01CFD1F22D2439C4B059134
:10494000049002F037F81791169000BFA3A0FBF770
:10495000CFFC9AA19148179B169A01F00DF98F4848
:10496000FBF7C6FC8FA0FBF7C3FC9948818D229A08
:104970000D98FEF7F5FA002801D1601CC4B29448E6
:10498000C18D229A0C98FEF7EBFA002801D1601C29
:10499000C4B28F48018E229A0B98FEF7E1FA0028E4
:1049A00001D1601CC4B28BA0FBF7A2FC7E4800685A
:1049B00001F0BBFF11911090179B169A1999189846
:1049C00001F0B3FC139112900022864B11991098BC
:1049D00001F0CEFC03910290386901F0A6FF01912D
:1049E0000090039B029A01F0E5FF00227E4B0591A7
:1049F000049001F0BDFC159114901599149801F0E4
:104A000035FF05460E462846314601F0CFFF0246E7
:104A10000B46059104901399129801F0A9FC0F918F
:104A20000E9072A0FBF764FC64A15C480F9B0E9A89
:104A300001F0A2F85948FBF75BFC5AA0FBF758FCC1
:104A40006FA0FBF755FC5DA15448159B149A01F02B
:104A500093F85248FBF74CFC52A0FBF749FC6DA0C1
:104A6000FBF746FC55A14D48139B129A01F084F8C0
:104A70004A48FBF73DFC4BA0FBF73AFCA9B20A9170
:104A80004FA0FBF735FC4FA144480D9A01F074F894
:104A90004248FBF72DFC43A0FBF72AFC3104280C0D
:104AA000084381B2099148A0FBF722FC45A13B488D
:104AB0000C9A01F061F83948FBF71AFC39A0FBF7B2
:104AC00017FCB1B2089141A0FBF712FC3DA133489D
:104AD0000B9A01F051F83148FBF70AFC31A0FBF7C3
:104AE00007FC3B48C189229A0A98FEF739FA002848
:104AF00001D1601CC4B23648018A229A0998FEF797
:104B00002FFA002801D1601CC4B23148418A229A90
:104B10000898FEF725FA002801D1601CC4B241A014
:104B2000FBF7E6FB44A0FBF7E3FB4BA11B487A69CC
:104B300001F022F81948FBF7DBFB1AA0FBF7D8FBC2
:104B40004648796901F07AF9059001F0EEFE1B9173
:104B50001A900022234B1199109801F009FC03913F
:104B600002901B9B1A9A01F025FF00221E4B059113
:104B7000049001F0FDFB159114902846314601F098
:104B800015FF03910290159B149A01F0D9FB059132
:104B9000049001F06BFE05460E4661E0AF12002066
:104BA000844700000D0A0000EC020020A002002053
:104BB000FFFFEF426446313A000000002566000026
:104BC0004C3A0000255800004D3A0000483A0000D9
:104BD0001E0300202E2E2E0D0A0000006446323ADD
:104BE000000000000000104080842E41646F756258
:104BF0006C6520F8E0E32064465F737465703A00EA
:104C0000E4EBE8F2E5EBFCEDEEF1F2FC2074696D0B
:104C1000653A0000F0E0E7EDE8F6E020F7E0F1F2B9
:104C2000EEF23A004348315F4C535F545048312E06
:104C30002E2E0D0A00000000F7E0F1F2EEF2E02067
:104C4000F1EBE5E4EEE2E0EDE8FF20E8ECEFF3EB7A
:104C5000FCF1EEE23A0000002575000040420F0032
:104C6000CAA0FBF745FBD1A1D148159B149A00F0CF
:104C700083FFCF48FBF73CFBCEA0FBF739FBA9B283
:104C80000D91CDA0FBF734FBCCA1C9480D9A00F0E3
:104C900073FFC748FBF72CFBC6A0FBF729FB3104C9
:104CA000280C084381B20C91C5A0FBF721FBC3A1DE
:104CB000BF480C9A00F060FFBD48FBF719FBBDA090
:104CC000FBF716FBB1B20B91BEA0FBF711FBBBA12A
:104CD000B7480B9A00F050FFB548FBF709FBB5A0A9
:104CE000FBF706FBB848818A229A0D98FEF738F93F
:104CF000002801D1601CC4B2B348C18A229A0C9822
:104D0000FEF72EF9002801D1601CC4B2AE48018B19
:104D1000229A0B98FEF724F9002801D1601CC4B236
:104D2000AAA0FBF7E5FAA848418B0020229AFEF7DB
:104D300017F9002801D1601CC4B2A348818B002060
:104D4000229AFEF70DF9002801D1601CC4B29E48DA
:104D5000C18B0020229AFEF703F9002801D1601CC4
:104D6000C4B29FA0FBF7C4FA9748018C0020229A96
:104D7000FEF7F6F8002801D1601CC4B29248418CBD
:104D80000020229AFEF7ECF8002801D1601CC4B282
:104D90008D48818C0020229AFEF7E2F8002801D18C
:104DA000601CC4B293A0FBF7A3FA387F01280CD192
:104DB000002095490F9B0E9A01F0FCFD059104908F
:104DC00001F0FAFC1D911C9009E0387F401C00287E
:104DD00005D10F990E9801F0EFFC1D911C908B48A6
:104DE000FBF786FA71A172480F9B0E9A00F0C4FE81
:104DF0006F48FBF77DFA6FA0FBF77AFA84A0FBF708
:104E000077FA3A7F89A16A4800F0B6FE6848FBF756
:104E10006FFA68A0FBF76CFA85A0FBF769FA83A12B
:104E200063481D9B1C9A00F0A7FE6148FBF760FADF
:104E300060A0FBF75DFA1C9881B20D915EA0FBF7B4
:104E400057FA5EA15A480D9A00F096FE5848FBF7B3
:104E50004FFA58A0FBF74CFA1D9802041C99080C55
:104E6000104381B20C9156A0FBF742FA53A150486F
:104E70000C9A00F081FE4E48FBF73AFA4DA0FBF782
:104E800037FA1D9881B20B914EA0FBF731FA4BA176
:104E900047480B9A00F070FE4548FBF729FA45A0F9
:104EA000FBF726FA4848C18E229A0D98FEF758F86B
:104EB000002801D1601CC4B24348018F229A0C988B
:104EC000FEF74EF8002801D1601CC4B23E48418F65
:104ED000229A0B98FEF744F8002801D1601CC4B256
:104EE00056A0FBF705FA3848418E0020229AFEF7BB
:104EF00037F8002801D1601CC4B23348818E0020ED
:104F0000229AFEF72DF8002801D1601CC4B22E4869
:104F10008030018801208003229AFEF721F80028C2
:104F200001D1601CC4B24949069801430691264844
:104F30000188229A0698FEF713F8002801D1601C18
:104F4000C4B215210798014307911F484030C18F13
:104F5000229A0798FEF704F8002801D1601CC4B219
:104F60003B48FBF7C5F93B48FBF7C2F9104920461F
:104F7000FBF741F90E48FBF7BBF93748FBF7B8F9E7
:104F80000CA0FBF7B5F923B0F0BD0000EFE5F0E8A9
:104F9000EEE420F1EBE5E4EEE2E0EDE8FF20E8EC02
:104FA000EFF3EBFCF1EEE23A0000000025660000B2
:104FB000AF1200200D0A00004C3A000025580000F6
:104FC0004D3A0000483A00001E0300204348315F7C
:104FD0004C535F545048322E2E2E0D0A0000000014
:104FE0004348315F4C535F545048332E2E2E0D0AE8
:104FF000000000004348315F4C535F545048342E4A
:105000002E2E0D0A000000000000F0BFEC4B000047
:10501000CDE0EFF0E0E2EBE5EDE8E520CBD7CC200A
:10502000EFF0E8EDFFF2EEE53A0000002564000045
:10503000F8E0E320CBD7CC203A0000004348315FB2
:105040004C535F6446312E2E2E0D0A0070940000E2
:10505000BC380000143500008447000000201C49C3
:105060000860084600681B49084319490860002089
:1050700088620846806A18490843154988620020FA
:1050800008627047014612480068FF22F1329043DF
:105090000F4A1060104600680A0110430C4A106065
:1050A0001046006802221043094A106000BF0848F9
:1050B000006A042210400428F9D105488069074A93
:1050C0001040074A10601046008880B27047000008
:1050D000008008401510C2FE03000080F8FF0000A9
:1050E000B003002070B50546002411E00A21614399
:1050F000A24A88180422294600F0ECFC002805D1B9
:105100000A2060439D494018001D70BD601CC4B258
:105110000A2CEBDB0020F8E7FEB505460E46002022
:10512000019000270090002440E00A20604393494A
:10513000401801460A7810464A78120210438A78CD
:1051400012041043C97809060843002805D00198C5
:10515000002802D10120019000940A206043874971
:10516000401801460A7810464A78120210438A789D
:1051700012041043C9780906084333781946737836
:105180001B021943B3781B041943F278120611432A
:10519000884209D10A216143784A8918081D0622EC
:1051A000294600F089FC0127601CC4B20A2CBCDB34
:1051B000002F12D10A2200995143704A8818042204
:1051C000314600F079FC0A22009951436B4A891854
:1051D000081D0622294600F06FFCFEBD7CB5044682
:1051E0000D461C2000F09EFB6549086006200968FA
:1051F00008710420624909684871022261496048C7
:10520000006800F059FC02225F495D480068801C7C
:1052100000F052FC06225D4959480068083000F051
:105220004BFC04225A49564800680E3000F044FCFA
:105230000622294652480068123000F03DFC042244
:1052400021464F480068183000F036FC51490A7872
:105250006846027149784171818801802B464B4A2A
:105260001C214748006800F092FB7CBDF0B58DB072
:1052700005460E4617462C46022221460CA800F091
:105280001BFC0222A11C0BA800F016FC0122211D10
:105290000AA800F011FC0122611D09A800F00CFC15
:1052A0000222A11D08A800F007FC062221460831B1
:1052B00006A800F001FC042221460E3105A800F0EA
:1052C000FBFB06222146123103A800F0F5FB042265
:1052D0002146183102A800F0EFFB2C4604222C498D
:1052E0002046183000F0F6FB002844D121460E314C
:1052F000881FFFF711FF1C2000F014FB0446022258
:105300002049204600F0D8FB02221F49A01C00F0D3
:10531000D3FB062020710420607102221E49A01DCB
:1053200000F0CAFB062219492046083000F0C4FBF1
:105330000422174920460E3000F0BEFB0622294603
:1053400008312046123000F0B7FB062229460E3104
:105350002046183000F0B0FB0E490A78684602710A
:1053600049784171818801802B460833074A1C2106
:10537000204600F00CFB0DB0F0BD0000941400209E
:10538000B80300201E0400201C0400200C00002094
:105390000000002020040020D293000010B5044635
:1053A000614804800088001D604908800846008824
:1053B00000F0A6FA5E49086008460068001D5D49D5
:1053C00008600846006810BD30B502460B46002153
:1053D000002007E0012800D103E04400145B6118BD
:1053E00000BF401C9842F5D30C0C8DB26119CC4320
:1053F000548030BDF7B582B00F4614464E48006861
:10540000054608354D480088083886B2204600F029
:10541000B6F8474908600846006808304549086002
:1054200042480480008808383F4908804448007892
:105430003F490968087000203D490968487000210B
:105440003B4800688170C1703B4801684879097920
:1054500000020843364909680871000A4871364855
:105460000168C8798979000208433149096888715F
:10547000000AC871324629462E48006800F01CFB1D
:105480002A4802882A480168002000F053FB284976
:1054900009688870000AC87002980190294803784A
:1054A000224801882248019A006800F012F905B0EC
:1054B000F0BD37B582B00C4615461F480460201D6C
:1054C000214908601D4805800088001F1F49088089
:1054D00020781F490978884205D102982A4621463A
:1054E0000190FFF787FF05B030BDF8B50D461646B1
:1054F0001C46069F0F480068844208D03846FFF7D4
:105500004DFF3A4621460B48006800F0D5FA08489E
:105510000068057006480068467004480188044821
:105520000068FFF751FFF8BDD8030020DA03002020
:10553000D0030020D4030020C4030020CE030020A9
:10554000DD030020F8030020C8030020CC03002066
:10555000DC03002010B502460021002007E00528EA
:1055600000D103E04300D35A591800BF401C0A2859
:10557000F5D30B0C8CB21919CB43538110BD10B568
:105580000446714804800088143070490880084639
:10559000008800F0B5F96E490860084600681430CC
:1055A0006C4908600846006810BD38B504460D46D1
:1055B000042269492046103000F08CFA00283FD1BF
:1055C0006648046000681430654908600222A11C26
:1055D000644800F071FA63480088FF21090208401E
:1055E000001260490978090208435E4908800846AC
:1055F000008814385C490880607A5C4909788842E0
:105600000CD1042221460C31684600F091FB56482B
:105610000288534801680098FFF74BFF607A5449AD
:10562000097888420CD1042221460C31684600F0EA
:105630007FFB4D4802884A480168009800F09EF8B8
:1056400038BD37B50446154600BF2078F0218843A1
:1056500040302070207800090001401D207000209B
:1056600060703A480088FF2109020840001237495B
:10567000097809020843A070000AE0700020207138
:105680006071E07980218843E071E07940218843AE
:10569000E071E07920218843E071E079A17900028E
:1056A0000843400B4003A071000AE0718020207283
:1056B00065720020A072E0720422274920460C3057
:1056C00000F036FB042201A92046103000F030FB28
:1056D0003EBDFFB583B004460D461E461D4800681A
:1056E000844208D02846FFF74AFF2A462146194837
:1056F000006800F0E1F9059832460146029014482E
:105700000068FFF79EFF142211480168002000F096
:1057100011FA0F4909688872000AC87205A8FFF7D4
:10572000E1FC074613490A786846027249784172DB
:10573000018901803B46104A0448018804480068FA
:1057400000F025F907B0F0BDF6030020F4030020B7
:10575000EC030020F003002000000020E003002004
:10576000E4030020E8030020EA030020F8030020FF
:10577000F90300201C0400200C00002037B582B083
:105780000C4615464D480460204608304C490860D8
:105790004C480580008808384B49088002980190E1
:1057A000084600880090628821884548036801986F
:1057B000FCF783F905B030BD10B5044643480480BA
:1057C000008808304249088008460088FFF7D7FE65
:1057D000404908600846006808303F4908603D4875
:1057E000006810BD7FB586B01C460E9D3A48006823
:1057F000844208D02846FFF7DFFF2A462146364874
:10580000006800F059F932480088FF210902084079
:1058100000122F490978090208430590022207A9BE
:105820002C480068801C00F047F9022208A929488A
:10583000006800F041F9022205A926480068001D11
:1058400000F03AF9002023490968C880042223495E
:1058500002A800F031F9042206A903A800F02CF9EF
:105860000021684601741E48017868464174818AA7
:1058700041820C2202A9002000F040F9064614489B
:10588000028814480168304600F054F90190022261
:1058900001A910480068801D00F00EF906980090DC
:1058A0000F4803780A4801880A48009A0068FFF701
:1058B00010FF0AB070BD704770470000040400205C
:1058C000080400200C0400200E0400201A0400200C
:1058D0001804002010040020140400200000002000
:1058E000F903002001466348634A1060634800687A
:1058F0000E30624A1060624801805F48006870475D
:1059000001466048604A1060104600680E305F4AE9
:1059100010605F48018000880E305E4A10805B484E
:105920000068704701465C485C4A10601046006899
:105930000E305B4A10605B48018000880E305A4A86
:1059400010805748006870477FB504460E461546DC
:1059500006223146A01D00F0AFF806222946204657
:1059600000F0AAF8022203A920460C3000F0A4F8A7
:105970007FBDF8B506460F4614461D4606980346F9
:105980002A46214600903046FFF7DEFFF8BDF8B505
:1059900004460D4616461F463C48006884420FD117
:1059A000069803463A463146009037480068FFF7AC
:1059B000CBFF3848018834480068FCF73CFC2AE0FB
:1059C0003748006884420FD1069803463A4631466C
:1059D000009032480068FFF7B7FF334801882F482E
:1059E0000068FCF728FC16E02846FFF789FF2A46E6
:1059F0002146009000F060F8069803463A4631468A
:105A0000009021480068FFF79FFF224801881E4848
:105A10000068FCF710FCF8BD70B504460D4616484A
:105A2000046000680E30154908601548058000883C
:105A300012381E49088002221D4920460C3000F011
:105A400049F8002805D1194801880C480068FFF77B
:105A5000ACFD0222174920460C3000F03BF800282C
:105A600006D1A21D1148018804480068FFF7FEFB1B
:105A700070BD0000F816002030040020340400201F
:105A800038040020F81400202404002028040020FA
:105A90002E0400202C040020F81800203C040020D4
:105AA0004004002046040020440400203A04002062
:105AB0001C0400202004002070B50C46054600237D
:105AC00005E026782E706D1C641C5E1CB3B29342F8
:105AD000F7DB70BDF0B503460D461E46002409E015
