:020000040000FA
:4D000000FFFF62FF3900FFFFFFFFFFFFFFFFFFFFFFFFFFFFFFFFFFFFFFFFFFFFFFFFFFFFFFFFFFFFFFFFFFFFFFFFFFFFFFFFFFFFFFFFFFFFFFFFFFFFFFFFFFFFFFFFFFFFFFFFFFFFFFFFFFFFFFFFFFFFFF62
:4D004D00000C8001300006C00018000360000C8001300006C00018000360000C8001000000000000000000000000000000000C8001300006C00018000360000C8001300006C00018000360000C800198FFBD
:4D009A0000124002480009200124800490001240024800092001248004900012400200000000000000000000000000000000124002480009200124800490001240024800092001248004900012400298FFE2
:4D00E70000000000000000000000000000000000000000000000000000000000000000000000000000000000000000000000000000000000000000000000000000000000000000000000000000000098FF35
:4D01340000000000000000000000000000000000000000000000000000000000000000000000000000000000000000000000000000000000000000000000000000000000000000000000000000000098FFE7
:4D01810000000000000000000000000000000000000000000000000000000000000000000000000000000000000000000000000000000000000000000000000000000000000000000000000000000098FF9A
:4D01CE00000000000000000000000000000000000000000000000000000000000000000000000000000000400000000000000000000000000000000000000000000000000000000000000000000000D8FFCD
:4D021B0000000000000000000000000000000000000000000000000000000000000000000000000000000000000000000000000000000000000000000000000000000000004A00000000000000000038FB19
:4D02680000000000000000000000000000000000000000000000000000000000000000000000000000000000000000000000000000000000000000000000000000000000001008000000000000000090FEA3
:4D02B50000000000000000000000000000000000000000000000000000000000000000000000000000000000000000000000000000000000000000000000000000000000000E00000000000000000078FF77
:4D030200000000000000000000000000000000000000000000000000000000000000000000000000000000000000000000000000000000000000000000000000000000000012000000000000000000B8FEE6
:4D034F0000000000000000000000000000000000000000000000000000000000000000000000000000000000000000000000000000000000000000000000000000000000000800000000000000000018FF42
:4D039C00000000000000000000000000000000000000000000000000000000000000000000000000000000000000000000000000000000000000000000000000000000000016000000000000000000F8FE08
:4D03E90000000000000000000000000000000000000000000000000000000000000000000000000000000000000000000000000000000000000000000000000000000000000800000000000000000018FFA8
:4D04360000000000000000000000000000000000000000000000000000000000000000000000000000000000000000000000000000000000000000000000000000000000001000000000000000000098FED3
:4D048300000000000000000000000000000000000000000000000000000000000000000000000000000000000000000000000000000000000000000000000000000000000000000000000000000000DCFB55
:4D04D00000000000000000000000000000000000000000000000000000000000000000000000000000000000000000000000000000000000000000000000000000000000000000000000000000000098FF48
:4D051D0000000000000000000000000000000000000000000000000000000000000000000000000000000000000000000000000000000000000000000000000000000000000000000000000000000098FFFA
:4D056A00080000000000000000000000000000000000000000000000000000000000000000000000000000000000000000000000000000000000000000000000000000000000000000000000000000A3FC9D
:4D05B70000000000000000000000000000000000000000000000000000000000000000000000000000000000000000000000000000000000000000000000000000000000000000000000000000000089FE70
:4D06040000000000000000000000000000000000000000000000000000000000000000000000000000000000000000000000000000000000000000000000000000000000000000000000000000000098FF12
:4D065100040000000000000000000000000000000000000000000000000000000000000000000000000000000000000000000000000000000000000000000000000000000000000000000000000000EBF875
:4D069E0000000000000000000000000000000000000000000000000000000000000000000000000000000000000000000000000000000000000000000000000000000000000000000000000000000098FF78
:4D06EB0000000000000000000000000000000000000000000000000000000000000000000000000000000000000000000000000000000000000000000000000000000000000000000000000000000098FF2B
:4D07380000000000000000000000000000000000000000000000000000000000000000000000000000000000000000000000000000000000000000000000000000000000000000000000000000000098FFDD
:4D07850000000000000000000000000000000000000000000000000000000000000000000000000000000000000000000000000000000000000000000000000000000000000000000000000000000098FF90
:4D07D200080000000000000000000000000000000000000000000000000000000000000000000000000000000000000000000000000000000000000000000000000000000000000000000000000000B2FD23
:4D081F0000000000000000000000000000000000000000000000000000000000000000000000000000000000000000000000000000000000000000000000000000000000000000000000000000000098FFF5
:4D086C0000000000000000000000000000000000000000000000000000000000000000000000000000000000000000000000000000000000000000000000000000000000000000000000000000000098FFA8
:4D08B900040000000000000000000000000000000000000000000000000000000000000000000000000000000000000000000000000000000000000000000000000000000000000000000000000000C9FA2B
:4D09060000000000000000000000000000000000000000000000000000000000000000000000000000000000000000000000000000000000000000000000000000000000000000000000000000000098FF0D
:4D09530000000000000000000000000000000000000000000000000000000000000000000000000000000000000000000000000000000000000000000000000000000000000000000000000000000098FFC0
:4D09A00000000000000000000000000000000000000000000000000000000000000000000000000000000000000000000000000000000000000000000000000000000000000000000000000000000098FF73
:4D09ED0000000000000000000000000000000000000000000000000000000000000000000000000000000000000000000000000000000000000000000000000000000000000000000000000000000098FF26
:4D0A3A00080000000000000000000000000000000000000000000000000000000000000000000000000000000000000000000000000000000000000000000000000000000000000000000000000000B2FDB8
:4D0A870000000000000000000000000000000000000000000000000000000000000000000000000000000000000000000000000000000000000000000000000000000000000000000000000000000098FF8B
:4D0AD40000000000000000000000000000000000000000000000000000000000000000000000000000000000000000000000000000000000000000000000000000000000000000000000000000000098FF3E
:4D0B2100040000000000000000000000000000000000000000000000000000000000000000000000000000000000000000000000000000000000000000000000000000000000000000000000000000C9FAC0
:4D0B6E0000000000000000000000000000000000000000000000000000000000000000000000000000000000000000000000000000000000000000000000000000000000000000000000000000000098FFA3
:4D0BBB0000000000000000000000000000000000000000000000000000000000000000000000000000000000000000000000000000000000000000000000000000000000000000000000000000000098FF56
:4D0C080000000000000000000000000000000000000000000000000000000000000000000000000000000000000000000000000000000000000000000000000000000000000000000000000000000098FF08
:4D0C550000000000000000000000000000000000000000000000000000000000000000000000000000000000000000000000000000000000000000000000000000000000000000000000000000000098FFBB
:4D0CA200080000000000000000000000000000000000000000000000000000000000000000000000000000000000000000000000000000000000000000000000000000000000000000000000000000B2FD4E
:4D0CEF0000000000000000000000000000000000000000000000000000000000000000000000000000000000000000000000000000000000000000000000000000000000000000000000000000000098FF21
:4D0D3C0000000000000000000000000000000000000000000000000000000000000000000000000000000000000000000000000000000000000000000000000000000000000000000000000000000098FFD3
:4D0D8900040000000000000000000000000000000000000000000000000000000000000000000000000000000000000000000000000000000000000000000000000000000000000000000000000000C9FA56
:4D0DD60000000000000000000000000000000000000000000000000000000000000000000000000000000000000000000000000000000000000000000000000000000000000000000000000000000098FF39
:4D0E230000000000000000000000000000000000000000000000000000000000000000000000000000000000000000000000000000000000000000000000000000000000000000000000000000000098FFEB
:4D0E700000000000000000000000000000000000000000000000000000000000000000000000000000000000000000000000000000000000000000000000000000000000000000000000000000000098FF9E
:4D0EBD0000000000000000000000000000000000000000000000000000000000000000000000000000000000000000000000000000000000000000000000000000000000000000000000000000000098FF51
:4D0F0A00080000000000000000000000000000000000000000000000000000000000000000000000000000000000000000000000000000000000000000000000000000000000000000000000000000B2FDE3
:4D0F570000000000000000000000000000000000000000000000000000000000000000000000000000000000000000000000000000000000000000000000000000000000000000000000000000000098FFB6
:4D0FA40000000000000000000000000000000000000000000000000000000000000000000000000000000000000000000000000000000000000000000000000000000000000000000000000000000098FF69
:4D0FF100040000000000000000000000000000000000000000000000000000000000000000000000000000000000000000000000000000000000000000000000000000000000000000000000000000C9FAEC
:4D103E0000000000000000000000000000000000000000000000000000000000000000000000000000000000000000000000000000000000000000000000000000000000000000000000000000000098FFCE
:4D108B0000000000000000000000000000000000000000000000000000000000000000000000000000000000000000000000000000000000000000000000000000000000000000000000000000000098FF81
:4D10D80000000000000000000000000000000000000000000000000000000000000000000000000000000000000000000000000000000000000000000000000000000000000000000000000000000098FF34
:4D11250000000000000000000000000000000000000000000000000000000000000000000000000000000000000000000000000000000000000000000000000000000000000000000000000000000098FFE6
:4D117200080000000000000000000000000000000000000000000000000000000000000000000000000000000000000000000000000000000000000000000000000000000000000000000000000000B2FD79
:4D11BF0000000000000000000000000000000000000000000000000000000000000000000000000000000000000000000000000000000000000000000000000000000000000000000000000000000098FF4C
:4D120C0000000000000000000000000000000000000000000000000000000000000000000000000000000000000000000000000000000000000000000000000000000000000000000000000000000098FFFE
:4D125900040000000000000000000000000000000000000000000000000000000000000000000000000000000000000000000000000000000000000000000000000000000000000000000000000000C9FA81
:4D12A60000000000000000000000000000000000000000000000000000000000000000000000000000000000000000000000000000000000000000000000000000000000000000000000000000000098FF64
:4D12F30000000000000000000000000000000000000000000000000000000000000000000000000000000000000000000000000000000000000000000000000000000000000000000000000000000098FF17
:4D13400000000000000000000000000000000000000000000000000000000000000000000000000000000000000000000000000000000000000000000000000000000000000000000000000000000098FFC9
:4D138D0000000000000000000000000000000000000000000000000000000000000000000000000000000000000000000000000000000000000000000000000000000000000000000000000000000098FF7C
:4D13DA00080000000000000000000000000000000000000000000000000000000000000000000000000000000000000000000000000000000000000000000000000000000000000000000000000000B2FD0F
:4D14270000000000000000000000000000000000000000000000000000000000000000000000000000000000000000000000000000000000000000000000000000000000000000000000000000000098FFE1
:4D14740000000000000000000000000000000000000000000000000000000000000000000000000000000000000000000000000000000000000000000000000000000000000000000000000000000098FF94
:4D14C100040000000000000000000000000000000000000000000000000000000000000000000000000000000000000000000000000000000000000000000000000000000000000000000000000000C9FA17
:4D150E0000000000000000000000000000000000000000000000000000000000000000000000000000000000000000000000000000000000000000000000000000000000000000000000000000000098FFF9
:4D155B0000000000000000000000000000000000000000000000000000000000000000000000000000000000000000000000000000000000000000000000000000000000000000000000000000000098FFAC
:4D15A80020000480001000024000080001200004800010000240000800012000040000000000000000000000000000000020000480001000024000080001200004800010000240000800012000040098FF1B
:4D15F50000000000000000000000000000000000000000000000000000000000000000000000000000000000000000000000000000000000000000000000000000000000000000000000000000000098FF12
:4D164200280004800010000240000800012000048000100002400008000120000400000000000000000000000000000000200004800010000240000800012000048000100002400008000120000400B2FD60
:4D168F0000000000000000000000000000000000000000000000000000000000000000000000000000000000000000000000000000000000000000000000000000000000001000000000000000000098FE68
:4D16DC00200004800010000240000800012000048000100002400008000120000400000000000000000000000000000000200004800010000240000800012000048000100000400008000120000400B8FFC8
:4D172900040000000000000000000000000000000000000000000000000000000000000000000000000000000000000000000000000000000000000000000000000000000000000000000000000000C9FAAC
:4D17760020000480001000024000080001200004800010000240000800012000040000000000000000000000000000000020000480001000024000080001200004800010000240000800012000040098FF4B
:4D17C30000000000000000000000000000000000000000000000000000000000000000000000000000000000000000000000000000000000000000000000000000000000000000000000000000000098FF42
:4D18100000000000000000000000000000000000000000000000000000000000000000000000000000000000000000000000000000000000000000000000000000000000000000000000000000000098FFF4
:4D185D0000000000000000000000000000000000000000000000000000000000000000000000000000000000000000000000000000000000000000000000000000000000000000000000000000000098FFA7
:4D18AA0000000000000000000000000000000000000000000000000000000000000000000000000000000000000000000000000000000000000000000000000000000000000000000000000000000098FF5A
:4D18F70000000000000000000000000000000000000000000000000000000000000000000000000000000000000000000000000000000000000000000000000000000000000000000000000000000098FF0D
:4D19440000000000000000000000000000000000000000000000000000000000000000000000000000000000000000000000000000000000000000000000000000000000000000000000000000000098FFBF
:4D19910000000000000000000000000000000000000000000000000000000000000000000000000000000000000000000000000000000000000000000000000000000000000000000000000000000098FF72
:4D19DE00000000000000000000000000000000000000000000000000000000000000000000000000000000000000000000000000000000000000000000000000000000000000040000000000000000D8FBE5
:4D1A2B0000000000000000000000000000000000000000000000000000000000000000000000000000000000000000000000000000000000000000000000000000000000000010000000000000000088FFD7
:4D1A780000000000000000000000000000000000000000000000000000000000000000000000000000000000000000000000000000000000000000000000000000000000000000000000000000000098FF8A
:4D1AC50000000000000000000000000000000000000000000000000000000000000000000000000000000000000000000000000000000000000000000000000000000000000000000000000000000098FF3D
:4D1B1200000000000000000000000000000000000000000000000000000000000000000000000000000000000000000000000000000000000000000000000000000000000000000000000000000000DCFBAF
:4D1B5F0000000000000000000000000000000000000000000000000000000000000000000000000000000000000000000000000000000000000000000000000000000000000000000000000000000098FFA2
:4D1BAC0000000000000000000000000000000000000000000000000000000000000000000000000000000000000000000000000000000000000000000000000000000000000000000000000000000098FF55
:4D1BF90000000000000000000000000000000000000000000000000000000000000000000000000000000000000000000000000000000000000000000000000000000000000000000000000000000098FF08
:4D1C460000000000000000000000000000000000000000000000000000000000000000000000000000000000000000000000000000000000000000000000000000000000000000000000000000000098FFBA
:4D1C930000000000000000000000000000000000000000000000000000000000000000000000000000000000000000000000000000000000000000000000000000000000000000000000000000000098FF6D
:4D1CE00000000000000000000000000000000000000000000000000000000000000000000000000000000000000000000000000000000000000000000000000000000000000000000000000000000098FF20
:4D1D2D0000000000000000000000000000000000000000000000000000000000000000000000000000000000000000000000000000000000000000000000000000000000000000000000000000000098FFD2
:4D1D7A0000000000000000000000000000000000000000000000000000000000000000000000000000000000000000000000000000000000000000000000000000000000000000000000000000000098FF85
:4D1DC70000000000000000000000000000000000000000000000000000000000000000000000000000000000000000000000000000000000000000000000000000000000000000000000000000000098FF38
:4D1E140000000000000000000000000000000000000000000000000000000000000000000000000000000000000000000000000000000000000000000000000000000000000000000000000000000098FFEA
:4D1E610000000000000000000000000000000000000000000000000000000000000000000000000000000000000000000000000000000000000000000000000000000000000000000000000000000098FF9D
:4D1EAE00000000000000000000000000000000000000000000000000000000000000000000000000000000000000000000000000000000000000000000000000000000000000000000000000000000DCFB10
:4D1EFB0000000000000000000000000000000000000000000000000000000000000000000000000000000000000000000000000000000000000000000000000000000000000000000000000000000098FF03
:4D1F480000000000000000000000000000000000000000000000000000000000000000000000000000000000000000000000000000000000000000000000000000000000000000000000000000000098FFB5
:4D1F950000000000000000000000000000000000000000000000000000000000000000000000000000000000000000000000000000000000000000000000000000000000000000000000000000000098FF68
:4D1FE20000000000000000000000000000000000000000000000000000000000000000000000000000000000000000000000000000000000000000000000000000000000000000000000000000000098FF1B
:4D202F0000000000000000000000000000000000000000000000000000000000000000000000000000000000000000000000000000000000000000000000000000000000000000000000000000000098FFCD
:4D207C0000000000000000000000000000000000000000000000000000000000000000000000000000000000000000000000000000000000000000000000000000000000001000000000000000000098FE71
:4D20C90000000000000000000000000000000000000000000000000000000000000000000000000000000000000000000000000000000000000000000000000000000000000000000000000000000098FF33
:4D21160000000000000000000000000000000000000000000000000000000000000000000000000000000000000000000000000000000000000000000000000000000000000000000000000000000098FFE5
:4D21630000000000000000000000000000000000000000000000000000000000000000000000000000000000000000000000000000000000000000000000000000000000000000000000000000000098FF98
:4D21B00000000000000000000000000000000000000000000000000000000000000000000000000000000000000000000000000000000000000000000000000000000000000000000000000000000098FF4B
:4D21FD0000000000000000000000000000000000000000000000000000000000000000000000000000000000000000000000000000000000000000000000000000000000000000000000000000000098FFFE
:4D224A0000000000000000000000000000000000000000000000000000000000000000000000000000000000000000000000000000000000000000000000000000000000000000000000000000000098FFB0
:4D22970000000000000000000000000000000000000000000000000000000000000000000000000000000000000000000000000000000000000000000000000000000000000000000000000000000098FF63
:4D22E40000000000000000000000000000000000000000000000000000000000000000000000000000000000000000000000000000000000000000000000000000000000000000000000000000000098FF16
:4D23310000000000000000000000000000000000000000000000000000000000000000000000000000000000000000000000000000000000000000000000000000000000000000000000000000000098FFC8
:4D237E0000000000000000000000000000000000000000000000000000000000000000000000000000000000000000000000000000000000000000000000000000000000000000000000000000000098FF7B
:4D23CB0000000000000000000000000000000000000000000000000000000000000000000000000000000000000000000000000000000000000000000000000000000000000000000000000000000098FF2E
:4D24180000000000000000000000000000000000000000000000000000000000000000000000000000000000000000000000000000000000000000000000000000000000000000000000000000000098FFE0
:4D24650000000000000000000000000000000000000000000000000000000000000000000000000000000000000000000000000000000000000000000000000000000000000000000000000000000098FF93
:4D24B20000000000000000000000000000000000000000000000000000000000000000000000000000000000000000000000000000000000000000000000000000000000000000000000000000000098FF46
:4D24FF0000000000000000000000000000000000000000000000000000000000000000000000000000000000000000000000000000000000000000000000000000000000000000000000000000000098FFF9
:4D254C0000000000000000000000000000000000000000000000000000000000000000000000000000000000000000000000000000000000000000000000000000000000000000000000000000000098FFAB
:4D25990000000000000000000000000000000000000000000000000000000000000000000000000000000000000000000000000000000000000000000000000000000000000000000000000000000098FF5E
:4D25E60000000000000000000000000000000000000000000000000000000000000000000000000000000000000000000000000000000000000000000000000000000000000000000000000000000098FF11
:4D26330000000000000000000000000000000000000000000000000000000000000000000000000000000000000000000000000000000000000000000000000000000000000000000000000000000098FFC3
:4D26800000000000000000000000000000000000000000000000000000000000000000000000000000000000000000000000000000000000000000000000000000000000000000000000000000000098FF76
:4D26CD0000000000000000000000000000000000000000000000000000000000000000000000000000000000000000000000000000000000000000000000000000000000000000000000000000000098FF29
:4D271A0000000000000000000000000000000000000000000000000000000000000000000000000000000000000000000000000000000000000000000000000000000000000000000000000000000098FFDB
:4D27670000000000000000000000000000000000000000000000000000000000000000000000000000000000000000000000000000000000000000000000000000000000000000000000000000000098FF8E
:4D27B40000000000000000000000000000000000000000000000000000000000000000000000000000000000000000000000000000000000000000000000000000000000000000000000000000000098FF41
:4D280100A0010000000000000000000005A00000000000000000000000000000000000000000000000000000000000000000000000000000000000000000000000000000000000000000000000000040F90B
:4D284E0000000000000000000000000008024100000000000000000000000000000000000000000000000000000000000000000000000000000000000000000000000000000000000000000000000080F979
:4D289B00E0010000000000000000000007E00000000000000000000000000000000000000000000000000000000000000000000000000000000000000000000000000000000000000000000000000060FFC9
:4D28E80020480000000000000000000009224100000000000000000000000000000000000000000000000000000000000000000000000000000000000000000000000000000000000000000000000058FE79
:4D29350000080000000000000000000044800800000000000000000000000000000000000000000000000000000000000000000000000000000000000000000000000000000000000000000000000098FBEE
:4D298200E041000000000000000000000B624100000000000000000000000000000000000000000000000000000000000000000000000000000000000000000000000000000000000000000000000070F9D0
:4D29CF0080010000000000000000000004800000000000000000000000000000000000000000000000000000000000000000000000000000000000000000000000000000000000000000000000000050FA6C
:4D2A1C00004400000000000000000000248244000000000000000000000000000000000000000000000000000000000000000000000000000000000000000000000000000000000000000000000000F0FD52
:4D2A69000000000000000000000000000DA001000000D0000000000000000000000000000000000000000000000000000000000000000000000000000000000000000000000000000000000000000028F882
:4D2AB60000000000000000000000000000000000000000000000000000000000000000000000000000000000000000000000000000000000000000000000000000000000000000000000000000000098FF3C
:4D2B03000000000000000000000000000FE001000000F0000000000000000000000000000000000000000000000000000000000000000000000000000000000000000000000000000000000000000068FE3F
:4D2B5000080000000000000000000000012240000000102000000000000000000000000000000000000000000000000000000000000000000000000000000000000000000000000000000000000000B2FAF1
:4D2B9D0000000000000000000000000040000800000000040000000000000000000000000000000000000000000000000000000000000000000000000000000000000000000000000000000000000058FB4C
:4D2BEA000000000000000000000000000FE241000000F0200000000000000000000000000000000000000000000000000000000000000000000000000000000000000000000000000000000000000048FA1A
:4D2C37000400000000000000000000000C8001000000C0000000000000000000000000000000000000000000000000000000000000000000000000000000000000000000000000000000000000000059FEA8
:4D2C8400000000000000000000000000200244000000002200000000000000000000000000000000000000000000000000000000000000000000000000000000000000000000000000000000000000D8F9AA
:4D2CD10030000000000000000000000001200000000010000000000000000000000000000000000000000000000000000000000000000000000000000000000000000000000000000000000000000088FCD1
:4D2D1E0000000000000000000000000000000000000000000000000000000000000000000000000000000000000000000000000000000000000000000000000000000000000000000000000000000098FFD1
:4D2D6B00E001000000000000000000000FE001000000F0000000000000000000000000000000000000000000000000000000000000000000000000000000000000000000000000000000000000000088FFD3
:4D2DB800AC01000000000000000000000DA001000000D00000000000000000000000000000000000000000000000000000000000000000000000000000000000000000000000000000000000000000E2FFC2
:4D2E05008409000000000000000000004C8009000000C0040000000000000000000000000000000000000000000000000000000000000000000000000000000000000000000000000000000000000080FAE0
:4D2E5200E041000000000000000000000FE241000000F02000000000000000000000000000000000000000000000000000000000000000000000000000000000000000000000000000000000000000E8FFE9
:4D2E9F000C0000000000000000000000000000000000000000000000000000000000000000000000000000000000000000000000000000000000000000000000000000000000000000000000000000C1FA1F
:4D2EEC0000440000000000000000000020024400000000220000000000000000000000000000000000000000000000000000000000000000000000000000000000000000000000000000000000000098F93C
:4D2F390020480000000000000000000041224800000010000000000000000000000000000000000000000000000000000000000000000000000000000000000000000000000000000000000000000090FE9A
:4D2F860000000000000000000000000000000000000000000000000000000000000000000000000000000000000000000000000000000000000000000000000000000000000000000000000000000098FF67
:4D2FD300004000000000000000000000000240000000002000000000000000000000000000000000000000000000000000000000000000000000000000000000000000000000000000000000000000F8FF18
:4D3020000804000000000000000000002000040000000008000000000000000000000000000000000000000000000000000000000000000000000000000000000000000000000000000000000000005AF9D8
:4D306D0000100100000000000000000020100800000000220000000000000000000000000000000000000000000000000000000000000000000000000000000000000000000000000000000000000008FFA4
:4D30BA0060000000000000000000000003600001000030000000000000000000000000000000000000000000000000000000000000000000000000000000000000000000000000000000000000000088FB52
:4D310700044000000000000000000000000240000000002000000000000000000000000000000000000000000000000000000000000000000000000000000000000000000000000000000000000000A9FA32
:4D315400000100000000000000000000480009000000C0040000000000000000000000000000000000000000000000000000000000000000000000000000000000000000000000000000000000000080FA9E
:4D31A100B0010000000000000000000045A248000000D00000000000000000001409000000000000000000000000000000000000000000000000000000000000000000000000000000000000000000C0FA5A
:4D31EE00000000000000000000000000080001000000000000000000000000002000000000000000000000000000000000000000000000000000000000000000000000000000000000000000000000A0FDCE
:4D323B00E0410000000000000000000007E240000000F02000000000000000001C08000000000000000000000000000000000000000000000000000000000000000000000000000000000000000000E8FAE6
:4D3288002C100000000000000000000029200500000010080000000000000000A4000000000000000000000000000000000000000000000000000000000000000000000000000000000000000000003AFD7C
:4D32D50004100100000000000000000024900800000000220000000000000000100100000000000000000000000000000000000000000000000000000000000000000000000000000000000000000000FEAA
:4D332200E001000000000000000000000B6001010000F00000000000000000002C1000000000000000000000000000000000000000000000000000000000000000000000000000000000000000000078FD6F
:4D336F008C4100000000000000000000048240000000C0200000000000000000100800000000000000000000000000000000000000000000000000000000000000000000000000000000000000000039FE4F
:4D33BC0000040000000000000000000044800800000000040000000000000000100100000000000000000000000000000000000000000000000000000000000000000000000000000000000000000010FAD5
:4D3409002000000000000000000000000DA001000000D0000000000000000000340000000000000000000000000000000000000000000000000000000000000000000000000000000000000000000038FF6D
:4D345600000000000000000000000000000000000000C0000000000000000000000000000000000000000000000000000000000000000000000000000000000000000000000000000000000000000058FF12
:4D34A300E001000000000000000000000FE241000000F00000000000000000003C08000000000000000000000000000000000000000000000000000000000000000000000000000000000000000000B0FEE7
:4D34F000A80100000000000000000000212004000000D000000000000000000084000000000000000000000000000000000000000000000000000000000000000000000000000000000000000000009AFBB8
:4D353D0080110100000000000000000020100800000000220000000000000000000100000000000000000000000000000000000000000000000000000000000000000000000000000000000000000098FEBE
:4D358A00E001000000000000000000000FE001010000300000000000000000003C10000000000000000000000000000000000000000000000000000000000000000000000000000000000000000000E0F8CE
:4D35D7000440000000000000000000000C824100000000000000000000000000300800000000000000000000000000000000000000000000000000000000000000000000000000000000000000000069FFF4
:4D36240000040000000000000000000040000800000000000000000000000000000100000000000000000000000000000000000000000000000000000000000000000000000000000000000000000048FBC9
:4D367100304800000000000000000000012000000000100000000000000000000409000000000000000000000000000000000000000000000000000000000000000000000000000000000000000000D0FC8A
:4D36BE0000000000000000000000000000024000000000000000000000000000000000000000000000000000000000000000000000000000000000000000000000000000000000000000000000000098F9EC
:4D370B00E04100000000000000000000000000000000000000000000000000000008000000000000000000000000000000000000000000000000000000000000000000000000000000000000000000B8FA96
:4D375800AC05000000000000000000000002400000000020000000000000000080000000000000000000000000000000000000000000000000000000000000000000000000000000000000000000007AF81F
:4D37A50004100100000000000000000040000800000000040000000000000000000100000000000000000000000000000000000000000000000000000000000000000000000000000000000000000008FE6F
:4D37F200600100000000000000000000036240000000302000000000000000000C1000000000000000000000000000000000000000000000000000000000000000000000000000000000000000000030FAEE
:4D383F008C410000000000000000000000000000000000000000000000000000000800000000000000000000000000000000000000000000000000000000000000000000000000000000000000000081FFE7
:4D388C00800000000000000000000000280245000000C02200000000000000002001000000000000000000000000000000000000000000000000000000000000000000000000000000000000000000B0FB52
:4D38D900A0400000000000000000000001200000000010000000000000000000040000000000000000000000000000000000000000000000000000000000000000000000000000000000000000000058FC39
:4D39260000010000000000000000000000000000000000000000000000000000000000000000000000000000000000000000000000000000000000000000000000000000000000000000000000000098FEBD
:4D397300E000000000000000000000000FE001000000F00000000000000000003C0000000000000000000000000000000000000000000000000000000000000000000000000000000000000000000030F9E2
:4D39C0002849000000000000000000000DA001000000D00000000000000000003400000000000000000000000000000000000000000000000000000000000000000000000000000000000000000000DAF8C5
:4D3A0D008008000000000000000000002C9009000000C02200000000000000003001000000000000000000000000000000000000000000000000000000000000000000000000000000000000000000B0F963
:4D3A5A006041000000000000000000000FE001010000F00000000000000000003C10000000000000000000000000000000000000000000000000000000000000000000000000000000000000000000E0FC75
:4D3AA700840000000000000000000000000240000000002000000000000000000008000000000000000000000000000000000000000000000000000000000000000000000000000000000000000000E9FEFD
:4D3AF40080440000000000000000000040000800000000040000000000000000000100000000000000000000000000000000000000000000000000000000000000000000000000000000000000000088FBF1
:4D3B410010000000000000000000000000000000000000000000000000000000000000000000000000000000000000000000000000000000000000000000000000000000000000000000000000000088FFA0
:4D3B8E0020000480001000024000080001200004800010000240000800012000040000000000000000000000000000000020000480001000024000080001200004800010000240000800012000040098FF0F
:4D3BDB0000000000000000000000000000000000000000000000000000000000000000000000000000000000000000000000000000000000000000000000000000000000000000000000000000000098FF06
:4D3C28002C0004800010000240000800012000048000100002400008000120000400000000000000000000000000000000200004800010000240000800012000048000100002400008000120000400F2F914
:4D3C750004010000000000000000000008000100000080000000000000000000200000000000000000000000000000000000000000000000000000000000000000000000000000000000000000000060F8FC
:4D3CC20000000480001000024000080000000004800000000240000800012000000000000000000000000000000000000020000480001000024000080001200004800010000240000800012000040098F836
:4D3D0F000C0000000000000000000000000000000000000000000000000000000000000000000000000000000000000000000000000000000000000000000000000000000000000000000000000000C1FAA0
:4D3D5C0020000480001000024000080001200004800010000240000800012000040000000000000000000000000000000020000480001000024000080001200004800010000240000800012000040098FF3F
:4D3DA90000000000000000000000000000000000000000000000000000000000000000000000000000000000000000000000000000000000000000000000000000000000000000000000000000000098FF36
:4D3DF60000000000000000000000000000000000000000000000000000000000000000000000000000000000000000000000000000000000000000000000000000000000000000000000000000000098FFE9
:4D3E430000000000000000000000000000000000000000000000000000000000000000000000000000000000000000000000000000000000000000000000000000000000000000000000000000000098FF9B
:4D3E900000000000000000000000000000000000000000000000000000000000000000000000000000000000000000000000000000000000000000000000000000000000000000000000000000000098FF4E
:4D3EDD0000000000000000000000000000000000000000000000000000000000000000000000000000000000000000000000000000000000000000000000000000000000000000000000000000000098FF01
:4D3F2A0008000000000000000000000000000000000000000000000000000000000000000000000000000000000000000000000000000000000000000000000000000000000000000000000000000090FFB3
:4D3F770000000000000000000000000000000000000000000000000000000000000000000000000000000000000000000000000000000000000000000000000000000000000000000000000000000098FF66
:4D3FC40000000000000000000000000000000000000000000000000000000000000000000000000000000000000000000000000000000000000000000000000000000000000000000000000000000098FF19
:4D40110000000000000000000000000000000000000000000000000000000000000000000000000000000000000000000000000000000000000000000000000000000000000000000000000000000098FFCB
:4D405E00000050060000000000000000000000000000000000000000000000000000000000000000000000000000000000000000000000000000000000000000000000000000000000000000000000F8FCCB
:4D40AB0000001000000000000000000000000000000000000000000000000000000000000000000000000000000000000000000000000000000000000000000000000000000000000000000000000098FE22
:4D40F80008000008000000000000000000000000000000000000000000000000000000000000000000000000000000000000000000000000000000000000000000000000000000000000000000000098FFD4
:4D41450000000000000000000000000000000000000000000000000000000000000000000000000000000000000000000000000000000000000000000000000000000000000000000000000000000098FF96
:4D41920000000000000000000000000000000000000000000000000000000000000000000000000000000000000000000000000000000000000000000000000000000000000000000000000000000098FF49
:4D41DF0000000000000000000000000000000000000000000000000000000000000000000000000000000000000000000000000000000000000000000000000000000000000000000000000000000098FFFC
:4D422C0000000000000000000000000000000000000000000000000000000000000000000000000000000000000000000000000000000000000000000000000000000000000000000000000000000098FFAE
:4D42790000000000000000000000000000000000000000000000000000000000000000000000000000000000000000000000000000000000000000000000000000000000000000000000000000000098FF61
:4D42C60000000000000000000000000000000000000000000000000000000000000000000000000000000000000000000000000000000000000000000000000000000000000000000000000000000098FF14
:4D43130000000000000000000000000000000000000000000000000000000000000000000000000000000000000000000000000000000000000000000000000000000000000000000000000000000098FFC6
:4D43600000000000000000000000000000000000000000000000000000000000000000000000000000000000000000000000000000000000000000000000000000000000000000000000000000000098FF79
:4D43AD0000000000000000000000000000000000000000000000000000000000000000000000000000000000000000000000000000000000000000000000000000000000000000000000000000000098FF2C
:4D43FA00020000000000000000000000000000000000000000000000000000000000000000000000000000000000000000000000000000000000000000000000000000000000000000000000000000B8FDBF
:4D44470000000000000000000000000000000000000000000000000000000000000000000000000000000000000000000000000000000000000000000000000000000000000000000000000000000098FF91
:4D44940000000000000000000000000000000000000000000000000000000000000000000000000000000000000000000000000000000000000000000000000000000000000000000000000000000098FF44
:4D44E10000000000000000000000000000000000000000000000000000000000000000000000000000000000000000000000000000000000000000000000000000000000000000000000000000000098FFF7
:4D452E0000000000000000000000000000000000000000000000000000000000000000000000000000000000000000000000000000000000000000000000000000000000000000000000000000000098FFA9
:4D457B0000000000000000000000000000000000000000000000000000000000000000000000000000000000000000000000000000000000000000000000000000000000000000000000000000000098FF5C
:4D45C80000000000000000000000000000000000000000000000000000000000000000000000000000000000000000000000000000000000000000000000000000000000000000000000000000000098FF0F
:4D46150000000000000000000000000000000000000000000000000000000000000000000000000000000000000000000000000000000000000000000000000000000000000000000000000000000098FFC1
:4D46620008000000000000000000000000000000000000000000000000000000000000000000000000000000000000000000000000000000000000000000000000000000000000000000000000000090FF74
:4D46AF0000000000000000000000000000000000000000000000000000000000000000000000000000000000000000000000000000000000000000000000000000000000000000000000000000000098FF27
:4D46FC0000000000000000000000000000000000000000000000000000000000000000000000000000000000000000000000000000000000000000000000000000000000000000000000000000000098FFDA
:4D474900020000000000000000000000000000000000000000000000000000000000000000000000000000000000000000000000000000000000000000000000000000000000000000000000000000B8FD6C
:4D47960000000000000000000000000000000000000000000000000000000000000000000000000000000000000000000000000000000000000000000000000000000000000000000000000000000098FF3F
:4D47E300000000000000000000000000000000000000000000000000000000002000000000000000000000000000000000000000000000000000000000000000000000000000000000000000000000B8FDB4
:4D48300000000000000000000000000000000000000000000000000000000000000000000000000000000000000000000000000000000000000000000000000000000000000000000000000000000098FFA4
:4D487D0000000000000000000000000000000000000000000000000000000000000000000000000000000000000000000000000000000000000000000000000000000000000000000000000000000098FF57
:4D48CA000A0000000000000000000000048000000000400000000000000000001000000000000000000000000000000000000000000000000000000000000000000000000000000000000000000000A8F823
:4D491700000000000000000000000000012000000000100000000000000000000400000000000000000000000000000000000000000000000000000000000000000000000000000000000000000000B8F86E
:4D4964008000000A000000000000000000000000000000000000000000000000000000000000000000000000000000000000000000000000000000000000000000000000000000000000000000000030FD4F
:4D49B10080000008000000000000000000000000000000000000000000000000000000000000000000000000000000000000000000000000000000000000000000000000000000000000000000000010FF22
:4D49FE0000000000000000000000000000000000000000000000000000000000000000000000000000000000000000000000000000000000000000000000000000000000000000000000000000000098FFD5
:4D4A4B0000000000000000000000000000104000000000000000000000000000000000000000000000000000000000000000000000000000000000000000000000000000000000000000000000000088FA4C
:4D4A980000000000000000000000000000000000000000000000000000000000000000000000000000000000000000000000000000000000000000000000000000000000000000000000000000000098FF3A
:4D4AE50000000000000000000000000000000000000000000000000000000000000000000000000000000000000000000000000000000000000000000000000000000000000000000000000000000098FFED
:4D4B320000000000000000000000000000000000000000000000000000000000000000000000000000000000000000000000000000000000000000000000000000000000000000000000000000000098FF9F
:4D4B7F0000000000000000000000000000000000000000000000000000000000000000000000000000000000000000000000000000000000000000000000000000000000000000000000000000000098FF52
:4D4BCC0000040000000000000000000000000000000000000000000000000000000000000000000000000000000000000000000000000000000000000000000000000000000000000000000000000098FB05
:4D4C190000000000000000000000000000000000000000000000000000000000000000000000000000000000000000000000000000000000000000000000000000000000000000000000000000000098FFB7
:4D4C660000000000000000000000000000000000000000000000000000000000000000000000000000000000000000000000000000000000000000000000000000000000000000000000000000000098FF6A
:4D4CB30000000000000000000000000000000000000000000000000000000000000000000000000000000000000000000000000000000000000000000000000000000000000000000000000000000098FF1D
:4D4D000000000000000000000000000000000000000000000000000000000000000000000000000000000000000000000000000000000000000000000000000000000000000000000000000000000098FFCF
:4D4D4D0000000000000000000000000000000000000000000000000000000000000000000000000000000000000000000000000000000000000000000000000000000000000000000000000000000098FF82
:4D4D9A0000000000000000000000000000000000000000000000000000000000000000000000000000000000000000000000000000000000000000000000000000000000000000000000000000000098FF35
:4D4DE70020000400000000000000000000000000000000000000000000010000000000000000000000000000000000000000000000000000000000680000000000000000000211000000000000000030F9B6
:4D4E340000003108000000000000000000000000000000000000000000000400000000000000000000000000000000000000000000000000000000401000000000000000000000000000000000000080F92B
:4D4E8100E0001C00000000000000000000000000000000000000000000070000000000000000000000000000000000000000000000000000000000780000000000000000000E000000000000000000A0FEBD
:4D4ECE002005B520000000000000000000000000000000000000000000290800000000000000000000000000000000000000000000000000000000481100000000000000009210000000000000000008FE6B
:4D4F1B0080083008000000000000000000000000000000000000000000840000000000000000000000000000000000000000000000000000000000001100000000000000008800000000000000000088F9EB
:4D4F680060002D000000000000000000000000000000000000000000000302000000000000000000000000000000000000000000000000000000001800000000000000000006080000000000000000F8FF4D
:4D4FB500000030000000000000000000000000000000000000000000000000000000000000000000000000000000000000000000000000000000002000000000000000000000000000000000000000B8FEA9
:4D50020000492042000000000000000000000000000000000000000000480200000000000000000000000000000000000000000000000000000000401000000000000000009004000000000000000050FE3A
:4D504F0020000400000000000000000000000000000000000000000000010000000000000000000000000000000000000000000000000000000000682200000000000000000211000000000000000010FB47
:4D509C00000001000000000000000000000000000000000000000000000000000000000000000000000000000000000000000000000000000000006000000000000000000000000000000000000000E8F985
:4D50E90060000C00000000000000000000000000000000000000000000000000000000000000000000000000000000000000000000000000000000600000000000000000000E000000000000000000B8F9EF
:4D5136002805050000000000000000000000000000000000000000000000000000000000000000000000000000000000000000000000000000000060210000000000000000921000000000000000000AFDD0
:4D5183008010B0000000000000000000000000000000000000000000004000000000000000000000000000000000000000000000000000000000004002000000000000000088040000000000000000E8F9B0
:4D51D00060413C080000000000000000000000000000000000000000000302000000000000000000000000000000000000000000000000000000007810000000000000000006000000000000000000C8FC56
:4D521D00040030000000000000000000000000000000000000000000000C0000000000000000000000000000000000000000000000000000000000601000000000000000000000000000000000000021FA79
:4D526A00004530000000000000000000000000000000000000000000002C0200000000000000000000000000000000000000000000000000000000600000000000000000001004000000000000000070F878
:4D52B70020000400000000000000000000000000000000000000000000010000000000000000000000000000000000000000000000000000000000082200000000000000000211000000000000000070FDDB
:4D530400000000000000000000000000000000000000000000000000000004000000000000000000000000000000000000000000000000000000000000000000000000000000000000000000000000D8FF81
:4D53510000400C00000000000000000000000000000000000000000000070000000000000000000000000000000000000000000000000000000000200000000000000000000E000000000000000000D8FEB8
:4D539E0008000400000000000000000000000000000000000000000000290800000000000000000000000000000000000000000000000000000000002100000000000000009210000000000000000072FD53
:4D53EB000008B0080000000000000000000000000000000000000000004400000000000000000000000000000000000000000000000000000000000002000000000000000088000000000000000000F8FCF3
:4D54380060003D000000000000000000000000000000000000000000000302000000000000000000000000000000000000000000000000000000001810000000000000000006040000000000000000B0FBA8
:4D548500040030000000000000000000000000000000000000000000000000000000000000000000000000000000000000000000000000000000000010000000000000000000000000000000000000C9F8D5
:4D54D20080493000000000000000000000000000000000000000000000280200000000000000000000000000000000000000000000000000000000000000000000000000005004000000000000000018FA04
:4D551F00A0053400000000000000000000000000000000000000000000010000000000000000000000000000000000000000000000000000000000084400000000000000000200000000000000000090FC8B
:4D556C0080813000000000000000000000000000000000000000000000000000000000000000000000000000000000000000000000000000000000000000000000000000000000000000000000000010FDB4
:4D55B90080013000000000000000000000000000000000000000000000000000000000000000000000000000000000000000000000000000000000180000000000000000000000000000000000000080FC60
:4D56060088893008000000000000000000000000000000000000000000000000000000000000000000000000000000000000000000000000000000484200000000000000000000000000000000000052FF33
:4D56530080108008000000000000000000000000000000000000000000400200000000000000000000000000000000000000000000000000000000200200000000000000008004000000000000000020FCEE
:4D56A000E0413C00000000000000000000000000000000000000000000030000000000000000000000000000000000000000000000000000000000581000000000000000000600000000000000000040FEB1
:4D56ED00840130000000000000000000000000000000000000000000000C0200000000000000000000000000000000000000000000000000000000001000000000000000001800000000000000000061FC28
:4D573A008049B0080000000000000000000000000000000000000000004C0000000000000000000000000000000000000000000000000000000000400400000000000000001804000000000000000058F8A5
:4D5787002000140900000000000000000020000000000000000000000001000000000000000000000000000000000000000000000000000000000008000000000000000000020000000000000000002CF849
:4D57D40000003000000000000000000000000000000000000000000000000000000000000000000000000000000000000000000000000000000000000000000000000000000000000000000000000098FCC4
:4D58210000001C00000000000000000000600000000000000000000000000000000000000000000000000000000000000000000000000000000000002000000000000000000000000000000000000038FA6C
:4D586E00080034420000000000000000002000000000000000000000000000000000000000000000000000000000000000000000000000000000000001000000000000000000000000000000000000B3FF9C
:4D58BB0000080008000000000000000000804500000000000000000000000400000000000000000000000000000000000000000000000000000000001100000000000000004004000000000000000041FB36
:4D59080060000D00000000000000000000E001000000000000000000000300000000000000000000000000000000000000000000000000000000001800000000000000000006000000000000000000A8FB40
:4D595500840110200000000000000000008001000000000000000000000C020000000000000000000000000000000000000000000000000000000000100000000000000000180400000000000000003BF862
:4D59A200804920020000000000000000008001000000000000000000002C00000000000000000000000000000000000000000000000000000000006000000000000000000018000000000000000000A0FB0D
:4D59EF00B00514020000000000000000002000000000000000000000000100000000000000000000000000000000000000000000000000000000006800000000000000000002000000000000000000A0FC79
:4D5A3C0080812010000000000000000000000000000000000000000000000400000000000000000000000000000000000000000000000000000000000000000000000000000000000000000000000040FCAC
:4D5A890080011C00000000000000000000600000000000000000000000070000000000000000000000000000000000000000000000000000000000184000000000000000000000000000000000000020FB59
:4D5AD6008C892400000000000000000000200000000000000000000000290800000000000000000000000000000000000000000000000000000000080000000000000000000000000000000000000032FBC4
:4D5B230084011000000000000000000000805100000000000000000000040400000000000000000000000000000000000000000000000000000000001100000000000000008000000000000000000098FBA3
:4D5B700060412C00000000000000000000E001000000000000000000000300000000000000000000000000000000000000000000000000000000001800000000000000000006080000000000000000F0FC25
:4D5BBD008C0110000000000000000000008001000000000000000000000002000000000000000000000000000000000000000000000000000000000000000000000000000018000000000000000000F9FB6F
:4D5C0A00804120000000000000000000008001000000000000000000002800000000000000000000000000000000000000000000000000000000006042000000000000000098040000000000000000E0FDA8
:4D5C57002000040A000000000000000000A008000000000000000000000D0000000000000000000000000000000000000000000080000000000000084400000000000000000211000000000000000098FFA7
:4D5CA400000031000000000000000000000081000000000000000000000C02000000000000000000000000000000000000000000000000000000000000000000000000000000000000000000000000B8F843
:4D5CF10060001C00000000000000000000E000000000000000000000000C0000000000000000000000000000000000000000000000000000000000380000000000000000000E00000000000000000080FF39
:4D5D3E002805350A000000000000000000200100000000000000000000280200000000000000000000000000000000000000000000000000000000484200000000000000009210000000000000000002F83B
:4D5D8B00805030080000000000000000008000000000000000000000008C0800000000000000000000000000000000000000000000000200000000201100000000000000004804000000000000000098FE9A
:4D5DD80060012C000000000000000000006001000000000000000000000F00000000000000000000000000000000000000000000800100000000001800000000000000000006000000000000000000B8FD2D
:4D5E2500044030000000000000000000008000000000000000000000000C0200000000000000000000000000000000000000000000060000000000001000000000000000000004000000000000000069FAB1
:4D5E7200001120420000000000000000000001000000000000000000002C0000000000000000000000000000000000000000000000160400000000400000000000000000001000000000000000000040FB9E
:4D5EBF0020503400000000000000000000A001000000000000000000000100000000000000000000000000000000000000000000804004000000000821000000000000000042000000000000000000A8F881
:4D5F0C0000000000000000000000000000800100000000000000000000000400000000000000000000000000000000000000000000000000000000000000000000000000000004000000000000000080FB44
:4D5F590000000C000000000000000000008041000000000000000000000700000000000000000000000000000000000000000000800102000000000000000000000000000000000000000000000000E0FDC7
:4D5FA6000840040900000000000000000080110000000000000000000029080000000000000000000000000000000000000000008014000000000000140000000000000000080400000000000000008AFA5F
:4D5FF30000080008000000000000000000005000000000000000000000440200000000000000000000000000000000000000000000020100000000001100000000000000004008000000000000000070FDF2
:4D60400060000D00000000000000000000E00100000000000000000000030000000000000000000000000000000000000000000080050000000000180000000000000000000600000000000000000028FEF9
:4D608D00040000000000000000000000008041000000000000000000000002000000000000000000000000000000000000000000000001000000000010000000000000000000000000000000000000E1FF0E
:4D60DA000049B0200000000000000000008005000000000000000000004800000000000000000000000000000000000000000000000400000000004000000000000000000080040000000000000000E0F9F2
:4D61270000000000000000000000000000000000000000000000000000000000000000000000000000000000000000000000000000000000000000000000000000000000000000000000000000000098FF94
:4D61740020000480001000024000080001200004800010000240000800012000040000000000000000000000000000000020000480001000024000080001200004800010000240000800012000040098FF03
:4D61C10000000000000000000000000000000000000000000000000000000000000000000000000000000000000000000000000000000000000000000000000000000000000000000000000000000098FFFA
:4D620E00280004800010000240000800012000048000100002400008000120000400000000000000000000000000000000200004800010000240000800012000048000100002400008000120000400B2FD48
:4D625B0000012000000000000000000000000100000000000000000000080000000000000000000000000000000000000000000000040000000000400000000000000000001000000000000000000040FD3B
:4D62A800000000800010000240000800010000048000100002400008000020000400000000000000000000000000000000200004000010000240000000012000048000100000400008000120000400F0FC48
:4D62F500040000000000000000000000000000000000000000000000000000000000000000000000000000000000000000000000000000000000000000000000000000000000000000000000000000C9FA95
:4D63420020000480001000024000080001200004800010000240000800012000040000000000000000000000000000000020000480001000024000080001200004800010000240000800012000040098FF33
:4D638F0000000000000000000000000000000000000000000000000000000000000000000000000000000000000000000000000000000000000000000000000000000000000000000000000000000098FF2A
:4D63DC0000000000000000000000000000000000000000000000000000000000000000000000000000000000000000000000000000000000000000000000000000000000000000000000000000000098FFDD
:4D64290000000000000000000000000000000000000000000000000000000000000000000000000000000000000000000000000000000000000000000000000000000000000000000000000000000098FF8F
:4D64760000000000000000000000000000000000000000000000000000000000000000000000000000000000000000000000000000000000000000000000000000000000000000000000000000008010FF4A
:4D64C30000000000000000000000000000000000000000000000000000000000000000000000000000000000000000000000000000000000000000000000000000000000000000000000000000000098FFF5
:4D65100000000000000000000000000000000000000000000000000000000000000000000000000000000000000000000000000000000000000000000000000000000000000000000000000000000098FFA7
:4D655D0000000000000000000000000000000000000000000000000000000000000000000000000000000000000000000000000000000000000000000000000000000000000000000000000000000098FF5A
:4D65AA00004010000000000000000000000000000000000000000000000000000000000000000000000000000000000000000000000000000000000000000000000000000000000000000000000000D8FA82
:4D65F700000005000000000000000000000000000000000000000000000000000000000000000000000000000000000000000000000000000000000000000000000000000000000000000000000000C8FF8B
:4D664400000B80000000000000000000000000000000000000000000000000000000000000000000000000000000000000000000000000000000000000140000000000000000000000000000000000C8F8AA
:4D669100000000000000000000000000000000000000000000000000000000000000000000000000000000000000000000000000000000000000000000040000000000000000000000000000000000D8FBE5
:4D66DE0080000000000000000000000000000000000000000000000000000000000000000000000000000000000000000000000000000000000000000000000000000000000000000000000000008090FFE0
:4D672B0000000000000000000000000000000000000000000000000000000000000000000000000000000000000000000000000000020000000000000000000000000000000000000000000000000098FD8A
:4D67780000000000000000000000000000000000000000000000000000000000000000000000000000000000000000000000000000000000000000002000000000000000000008000000000000000090FD1F
:4D67C50000000000000000000000000000000000000000000000000000000000000000000000000000000000000000000000000000000000000000000000000000000000000000000000000000000098FFF0
:4D68120000000000000000000000000000000000000000000000000000000000000000000000000000000000000000000000000000000000000000000000000000000000000000000000000000000098FFA2
:4D685F0000000000000000000000000000000000000000000000000000000000000000000000000000000000000000000000000000000000000000000000000000000000000000000000000000000098FF55
:4D68AC0000000000000000000000000000000000000000000000000000000000000000000000000000000000000000000000000000000000000000000000000000000000000000000000000000000098FF08
:4D68F90000000000000000000000000000000000000000000000000000000000000000000000000000000000000000000000000000000000000000000000000000000000000000000000000000000098FFBB
:4D694600000000040000000000000000000000000000000000000000000000000000000000000000000000000000000000000000000000000000000000000000000000000000000000000000000000D8FB2D
:4D69930000000000000000000000000000000000000000000000000000000000000000000000000000000000000000000000000000000000000000000000000000000000000000000000000000000098FF20
:4D69E00000000000000000000000000000000000000000000000000000000000000000000000000000000000000000000000000000000000000000000000000000000000000000000000000000000098FFD3
:4D6A2D0000000000000000000000000000000000000000000000000000000000000000000000000000000000000000000000000000000000000000000000000000000000000000000000000000000098FF85
:4D6A7A0000800000000000000000000000000000000000000000000000100000000000000000000000000000000000000000000000000000000000000000000000000000000000000000000000000080FEC1
:4D6AC70000004000000000000000000000000100000000000000000000000000000000000000000000000000000000000000000000000000000000000000000000000000000000000000000000000088FBBE
:4D6B140000000000000000000000000000000000000000000000000000000000000000000000000000000000000000000000000000000000000000000000000000000000000000000000000000000098FF9D
:4D6B610000000000000000000000000000000000000000000000000000000000000000000000000000000000000000000000000000000000000000000000000000000000000000000000000000000098FF50
:4D6BAE0000000000000000000000000000000000000000000000000000000000000000000000000000000000000000000000000000000000000000000000000000000000000000000000000000000098FF03
:4D6BFB00004000000000000000000000000000000000000000000000000000000000000000000000000000000000000000000000000000000000000000000000000000000000000000000000000000D8FB3A
:4D6C480000000000000000000000000000000000000000000000000000000000000000000000000000000000000000000000000000000000000000000000000000000000000000000000000000000098FF68
:4D6C950000000000000000000000000000000000000000000000000000020000000000000000000000000000000000000000000000000000000000200000000000000000000800000000000000000038FF51
:4D6CE200000200000000000000000000000000000000000000000000000000000000000000000000000000000000000000000000000000000000002000000000000000000000000000000000000000B8FF8C
:4D6D2F0000000000000000000000000000000000000000000000000000000000000000000000000000000000000000000000000000000000000000000000000000000000000000000000000000000098FF80
:4D6D7C0000000000000000000000000000000000000000000000000000000000000000000000000000000000000000000000000000000000000000000000000000000000000000000000000000000098FF33
:4D6DC90010000000000000000000000000000000000000000000000000000000000000000000000000000000000000000000000000000000000000000000000000000000001000000000000000000088FED7
:4D6E1600004100080000000000000000000000000000000000000000000002000000000000000000000000000000000000000000001000000000000001000000000000000040000000000000000000F0FFA4
:4D6E630000000008000000000000000000000000000000000000000000000000000000000000000000000000000000000000000000000000000000000000000000000000000000000000000000000090FF4B
:4D6EB000800010000000000000000000000000000000000000000000000400000000000000000000000000000000000000000000000000000000002000040000000000000008000000000000000000F8FCE1
:4D6EFD0020000410000000000000000000000000000000000000000000010000000000000000000000000000000000000000000000000000000000080001000000000000000200000000000000000050FFB9
:4D6F4A0000212000000000000000000000000100000000000000000000080000000000000000000000000000000000000000000000040000000000000820000000000000001000000000000000000080FBF9
:4D6F970000000000000000000000000000000000000000000000000000000000000000000000000000000000000000000000000000000000000000000000000000000000000000000000000000000098FF16
:4D6FE400804010000000000000000000008000000000000000000000000400000000000000000000000000000000000000000000000200000000000010000000000000000008000000000000000000D0FD25
:4D70310000000000000000000000000000000000000000000000000000000000000000000000000000000000000000000000000000000000000000000000000000000000000000000000000000000098FF7B
:4D707E00000000400000000000000000000000000000000000000000002000000000000000000000000000000000000000000000000001000000000000000000000000000000000000000000000000E8FD7F
:4D70CB0000000000000000000000000000000000000000000000000000000000000000000000000000000000000000000000000000000000000000000000000000000000000000000000000000000098FFE1
:4D71180000000000000000000000000000000000000000000000000000000000000000000000000000000000000000000000000000000000000000000000000000000000000000000000000000000098FF93
:4D71650000000000000000000000000000000000000000000000000000000000000000000000000000000000000000000000000000010000000000000000000000000000000000000000000000000098FE46
:4D71B20000000000000000000000000000000000000000000000000000000000000000000000000000000000000000000000000000000000000000000000000000000000000000000000000000000098FFF9
:4D71FF0000000000000000000000000000000000000000000000000000000000000000000000000000000000000000000000000000000000000000000000000000000000000000000000000000000098FFAC
:4D724C0000000000000000000000000000000000000000000000000000000000000000000000000000000000000000000000000000000000000000000000000000000000000000000000000000000098FF5E
:4D72990000000000000000000000000000000000000000000000000000000000000000000000000000000000000000000000000000000000000000000000000000000000000000000000000000000098FF11
:4D72E60000000000000000000000000000000000000000000000000000000000000000000000000000000000000000000000000000000000000000000000000000000000000000000000000000000098FFC4
:4D73330000000000000000000000000000000000000000000000000000000000000000000000000000000000000000000000000000000000000000000000000000000000000000000000000000000098FF76
:4D738000000000000000000000000000000000000000000000000000000000000000000000000000000000000000000000000000000000000000004000000000000000000000000000000000000000D8FBAD
