:020000040000FA
:67000000FFFF62FF3D00FFFFFFFFFFFFFFFFFFFFFFFFFFFFFFFFFFFFFFFFFFFFFFFFFFFFFFFFFFFFFFFFFFFFFFFFFFFFFFFFFFFFFFFFFFFFFFFFFFFFFFFFFFFFFFFFFFFFFFFFFFFFFFFFFFFFFFFFFFFFFFFFFFFFFFFFFFFFFFFFFFFFFFFFFFFFFFFFFFFFFFFFFFFFFFFFFF5E
:670067000064910130D0049A401368024DA009802C3000B2C04013000360006435AC26D004C04013000360000C8001000000000000000000000000000000000C8001300006C00018000360000C80019005064006C862024C000C8001300006C000190003600064810138F8AC
:6700CE00002AE00248800A50012A4005A80015400548001520012A800490002AA00554800A20012A800490001240020000000000000000000000000000000012400248000920012480049000124002A80009A002544005A80012400248000920012E800490002A400200FFB6
:670135000000000000000000000000000000000000000000000000000000000000000000000000000000000000000000000000000000000000000000000000000000000000000000000000000000000000000000000000000000000000000000000000000000000000E0F98A
:67019C000000000000000000000000000000000000000000000000000000000000000000000000000000000000000000000000000000000000000000000000000000000000000000000000000000000000000000000000000000000000000000000000000000000000E0F923
:670203000000200000000000000000000000000000000000000000000000000000000000000000000000000000000000000000000000000000000000000000000000000000000000000000000000000000000000000000000000000000000000000200000000000000C0FBB7
:67026A00000008000000000000000000000000000000000000000000000000000000000000000000000000000000000000000000000000000000000000000000000000000000000000000000000000000000000000000000000000000000000080000000000000000068F944
:6702D1000000000000000000000000000000000000000000000000000000000000000000000000000000000000000000000000000000000000000000000000000000000000000000000000000000000000000000000000000000000000000000000000000000000000E0F9ED
:670338000000000000000000000000000000000000000000000000000000000000000000000000000000000000000000000000000000000040000000000000000000000000000000000000000000000000000000000000000000000000000000000000000000000000E0FD41
:67039F000000000000000000000000000000000000000000000000000000000000000000000000000000000000000000000000000000000000000000000000000000000000000000000000000000000000000000000000000000000000000000000000000000000000E0F91E
:670406000000000000000000000000000000000000000000000000000000000000000000000000000000000000000000000000000000000000000000000000000000000000000000000000000000000000000000000000000000000000000000000000000000000000E0F9B6
:67046D000000000000000000000000000000000000000000000000000000000000000000000000000000000000000000000000000000000000000000000000000000000000000000000000000000000000000000000000000000000000000000000000000000000000E0F94F
:6704D4000000000000000000000000000000000000000000000000000000000000000000000000000000000000000000000000000000000000000000000000000000000000000000000000000000000000000000000000000000000000000000000000000000000000E0F9E8
:67053B000000000000000000000000000000000000000000000000000000000000000000000000000000000000000000000000000000000000000000000000000000000000000000000000000000000000000000000000000000000000000000000000000000000000E0F980
:6705A2000000000000000000000000000000000000000000000000000000000000000000000000000000000000000000000000000000000000000000000000000000000000000000000000000000000000000000000000000000000000000000000000000000000000E0F919
:670609000000000000000000000000000000000000000000000000000000000000000000000000000000000000000000000000000000000000000000000000000000000000000000000000000000000000000000000000000000000000000000000000000000000000E0F9B1
:670670000000000000000000000000000000000000000000000000000000000000000000000000000000000000000000000000000000000000000000000000000000000000000000000000000000000000000000000000000000000000000000000000000000000000E0F94A
:6706D7000000000000000000000000000000000000000000000000000000000000000000000000000000000000000000000000000000000000000000000000000000000000000000000000000000000000000000000000000000000000000000000000000000000000E0F9E3
:67073E000000000000000000000000000000000000000000000000000000000000000000000000000000000000000000000000000000000000000000000000000000000000000000000000000000000000000000000000000000000000000000000000000000000000E0F97B
:6707A5000000000000000000000000000000000000000000000000000000000000000000000000000000000000000000000000000000000000000000000000000000000000000000000000000000000000000000000000000000000000000000000000000000000000E0F914
:67080C0008000000000000000000000000000000000000000000000000000000000000000000000000000000000000000000000000000000000000000000000000000000000000000000000000000000000000000000000000000000000000000000000000000000004AFB38
:670873000000000000000000000000000000000000000000000000000000000000000000000000000000000000000000000000000000000000000000000000000000000000000000000000000000000000000000000000000000000000000000000000000000000000E0F945
:6708DA000000000000000000000000000000000000000000000000000000000000000000000000000000000000000000000000000000000000000000000000000000000000000000000000000000000000000000000000000000000000000000000000000000000000E0F9DE
:670941000400000000000000000000000000000000000000000000000000000000000000000000000000000000000000000000000000000000000000000000000000000000000000000000000000000000000000000000000000000000000000000000000000000000F1FC5E
:6709A8000000000000000000000000000000000000000000000000000000000000000000000000000000000000000000000000000000000000000000000000000000000000000000000000000000000000000000000000000000000000000000000000000000000000E0F90F
:670A0F000000000000000000000000000000000000000000000000000000000000000000000000000000000000000000000000000000000000000000000000000000000000000000000000000000000000000000000000000000000000000000000000000000000000E0F9A7
:670A76000000000000000000000000000000000000000000000000000000000000000000000000000000000000000000000000000000000000000000000000000000000000000000000000000000000000000000000000000000000000000000000000000000000000E0F940
:670ADD000000000000000000000000000000000000000000000000000000000000000000000000000000000000000000000000000000000000000000000000000000000000000000000000000000000000000000000000000000000000000000000000000000000000E0F9D9
:670B440008000000000000000000000000000000000000000000000000000000000000000000000000000000000000000000000000000000000000000000000000000000000000000000000000000000000000000000000000000000000000000000000000000000004AFBFD
:670BAB000000000000000000000000000000000000000000000000000000000000000000000000000000000000000000000000000000000000000000000000000000000000000000000000000000000000000000000000000000000000000000000000000000000000E0F90A
:670C12000000000000000000000000000000000000000000000000000000000000000000000000000000000000000000000000000000000000000000000000000000000000000000000000000000000000000000000000000000000000000000000000000000000000E0F9A2
:670C79000400000000000000000000000000000000000000000000000000000000000000000000000000000000000000000000000000000000000000000000000000000000000000000000000000000000000000000000000000000000000000000000000000000000F1FC23
:670CE0000000000000000000000000000000000000000000000000000000000000000000000000000000000000000000000000000000000000000000000000000000000000000000000000000000000000000000000000000000000000000000000000000000000000E0F9D4
:670D47000000000000000000000000000000000000000000000000000000000000000000000000000000000000000000000000000000000000000000000000000000000000000000000000000000000000000000000000000000000000000000000000000000000000E0F96C
:670DAE000000000000000000000000000000000000000000000000000000000000000000000000000000000000000000000000000000000000000000000000000000000000000000000000000000000000000000000000000000000000000000000000000000000000E0F905
:670E15000000000000000000000000000000000000000000000000000000000000000000000000000000000000000000000000000000000000000000000000000000000000000000000000000000000000000000000000000000000000000000000000000000000000E0F99D
:670E7C0008000000000000000000000000000000000000000000000000000000000000000000000000000000000000000000000000000000000000000000000000000000000000000000000000000000000000000000000000000000000000000000000000000000004AFBC2
:670EE3000000000000000000000000000000000000000000000000000000000000000000000000000000000000000000000000000000000000000000000000000000000000000000000000000000000000000000000000000000000000000000000000000000000000E0F9CF
:670F4A000000000000000000000000000000000000000000000000000000000000000000000000000000000000000000000000000000000000000000000000000000000000000000000000000000000000000000000000000000000000000000000000000000000000E0F967
:670FB1000400000000000000000000000000000000000000000000000000000000000000000000000000000000000000000000000000000000000000000000000000000000000000000000000000000000000000000000000000000000000000000000000000000000F1FCE8
:671018000000000000000000000000000000000000000000000000000000000000000000000000000000000000000000000000000000000000000000000000000000000000000000000000000000000000000000000000000000000000000000000000000000000000E0F998
:67107F000000000000000000000000000000000000000000000000000000000000000000000000000000000000000000000000000000000000000000000000000000000000000000000000000000000000000000000000000000000000000000000000000000000000E0F931
:6710E6000000000000000000000000000000000000000000000000000000000000000000000000000000000000000000000000000000000000000000000000000000000000000000000000000000000000000000000000000000000000000000000000000000000000E0F9CA
:67114D000000000000000000000000000000000000000000000000000000000000000000000000000000000000000000000000000000000000000000000000000000000000000000000000000000000000000000000000000000000000000000000000000000000000E0F962
:6711B40008000000000000000000000000000000000000000000000000000000000000000000000000000000000000000000000000000000000000000000000000000000000000000000000000000000000000000000000000000000000000000000000000000000004AFB87
:67121B000000000000000000000000000000000000000000000000000000000000000000000000000000000000000000000000000000000000000000000000000000000000000000000000000000000000000000000000000000000000000000000000000000000000E0F993
:671282000000000000000000000000000000000000000000000000000000000000000000000000000000000000000000000000000000000000000000000000000000000000000000000000000000000000000000000000000000000000000000000000000000000000E0F92C
:6712E9000400000000000000000000000000000000000000000000000000000000000000000000000000000000000000000000000000000000000000000000000000000000000000000000000000000000000000000000000000000000000000000000000000000000F1FCAD
:671350000000000000000000000000000000000000000000000000000000000000000000000000000000000000000000000000000000000000000000000000000000000000000000000000000000000000000000000000000000000000000000000000000000000000E0F95D
:6713B7001000000000000000000000000000000000000000000000000000000000000000000000000000000000040000000000000000000000000000000000000000000000000000000000000000000000000000000000000000000000000000000000000000000000F4F8CF
:67141E000000000000000000000000000000000000000000000000000000000000000000000000000000000000000000000000000000000000000000000000000000000000000000000000000000000000000000000000000000000000000000000000000000000000E0F98E
:6714850000000000000000000000000000000000000000000000000000000000000000000000000000000000000C0000000000000000000000000000000000000000000000000000000000000000000000000000000000000000000000000000000000000000000000A8FD4F
:6714EC000C000000000000000000000000000000000000000000000000000000000000000000000000000000000400000000000000000000000000000000000000000000000000000000000000000000000000000000000000000000000000000000000000000000001BFA74
:67155300040000000000000000000000000000000000000000000000000000000000000000000000000000000030080000000000000000000000000000000000000000000000000000000000000000000000000000000000000000000000000000000000000000000049FCB0
:6715BA0000000000000000000000000000000000000000000000000000000000000000000000000000000000003C000000000000000000000000000000000000000000000000000000000000000000000000000000000000000000000000000000000000000000000098FDF9
:671621000C000000000000000000000000000000000000000000000000000000000000000000000000000000003000000000000000000000000000000000000000000000000000000000000000000000000000000000000000000000000000000000000000000000006BFEBD
:671688000000000000000000000000000000000000000000000000000000000000000000000000000000000000300000000000000000000000000000000000000000000000000000000000000000000000000000000000000000000000000000000000000000000000D0F902
:6716EF001000000000000000000000000000000000000000000000000000000000000000000000000000000000000000000000000000000000000000000000000000000000000000000000000000000000000000000000000000000000000000000000000000000000B4FCD4
:671756000000000000000000000000000000000000000000000000000000000000000000000000000000000000000000000000000000000000000000000000000000000000000000000000000000000000000000000000000000000000000000000000000000000000E0F953
:6717BD000000000000000000000000000000000000000000000000000000000000000000000000000000000000000000000000000000000000000000000000000000000000000000000000000000000000000000000000000000000000000000000000000000000000E0F9EC
:671824000C000000000000000000000000000000000000000000000000000000000000000000000000000000000000000000000000000000000000000000000000000000000000000000000000000000000000000000000000000000000000000000000000000000005BFEF8
:67188B000400000000000000000000000000000000000000000000000000000000000000000000000000000000000000000000000000000000000000000000000000000000000000000000000000000000000000000000000000000000000000000000000000000000F1FC05
:6718F2000000000000000000000000000000000000000000000000000000000000000000000000000000000000000000000000000000000000000000000000000000000000000000000000000000000000000000000000000000000000000000000000000000000000E0F9B6
:671959000C000000000000000000000000000000000000000000000000000000000000000000000000000000000000000000000000000000000000000000000000000000000000000000000000000000000000000000000000000000000000000000000000000000005BFEC2
:6719C0000000000000000000000000000000000000000000000000000000000000000000000000000000000000000000000000000000000000000000000000000000000000000000000000000000000000000000000000000000000000000000000000000000000000E0F9E7
:671A27000000000000000000000000000000000000000000000000000000000000000000000000000000000000040000000000000000000000000000000000000000000000000000000000000000000000000000000000000000000000000000000000000000000000A0FDB7
:671A8E000000000000000000000000000000000000000000000000000000000000000000000000000000000000000000000000000000000000000000000000000000000000000000000000000000000000000000000000000000000000000000000000000000000000E0F918
:671AF50000000000000000000000000000000000000000000000000000000000000000000000000000000000000C0000000000000000000000000000000000000000000000000000000000000000000000000000000000000000000000000000000000000000000000A8FDD9
:671B5C0008000000000000000000000000000000000000000000000000000000000000000000000000000000000400000000000000000000000000000000000000000000000000000000000000000000000000000000000000000000000000000000000000000000000AFF0D
:671BC3000000000000000000000000000000000000000000000000000000000000000000000000000000000000B0000000000000000000000000000000000000000000000000000000000000000000000000000000000000000000000000000000000000000000000050F9C2
:671C2A0000000000000000000000000000000000000000000000000000000000000000000000000000000000003C2000000000000000000000000000000000000000000000000000000000000000000000000000000000000000000000000000000000000000000000B8FF40
:671C91000400000000000000000000000000000000000000000000000000000000000000000000000000000000300000000000000000000000000000000000000000000000000000000000000000000000000000000000000000000000000000000000000000000000C1FCFB
:671CF8000000000000000000000000000000000000000000000000000000000000000000000000000000000000300000000000000000000000000000000000000000000000000000000000000000000000000000000000000000000000000000000000000000000000D0F98C
:671D5F000000000000000000000000000000000000000000000000000000000000000000000000000000000000000000000000000000000000000000000000000000000000000000000000000000000000000000000000000000000000000000000000000000000000E0F944
:671DC600200004800010000240000800012000048000100002400008000120000480001000024000080001200004000000000000000000000000000000002000048000100002400008000120000480001000024000080001200004800010000240000800012000040080F9FB
:671E2D000000000000000000000000000000000000000000000000000000000000000000000000000000000000000000000000000000000000000000000000000000000000000000000000000000000000000000000000000000000000000000000000000000000000E0F975
:671E940028000480001000024000080001200004800010000240000800012000048000100002400008000120000400000000000000000000000000000000200004800010000240000800012000048000100002400008000120000480001000024000080001200004002AFB78
:671EFB000000000000000000000000000000000000000000000000000000000000000000000000000000000000200000000000000000000000000000000000000000000000000000000000000000000000000000000000000000000000000000000000000000000000C0F9A7
:671F62002000048000100002400008000120000480001000024000080001200004800010000240000800012000000000000000000000000000000000000020000480001000024000080001200004800010000240000800012000048000100002400008000120000400C0FD1D
:671FC9000400000000000000000000000000000000000000000000000000000000000000000000000000000000000000000000000000000000000000000000000000000000000000000000000000000000000000000000000000000000000000000000000000000000F1FCC0
:67203000200004800010000240000800012000048000100002400008000120000480001000024000080001200004000000000000000000000000000000002000048000100002400008000120000480001000024000080001200004800010000240000800012000040080F98E
:672097000000000000000000000000000000000000000000000000000000000000000000000000000000000000000000000000000000000000000000000000000000000000000000000000000000000000000000000000000000000000000000000000000000000000E0F909
:6720FE000000000000000000000000000000000000000000000000000000000000000000000000000000000000000000000000000000000000000000000000000000000000000000000000000000000000000000000000000000000000000000000000000000000000E0F9A2
:672165000000000000000000000000000000000000000000000000000000000000000000000000000000000000000000000000000000000000000000000000000000000000000000000000000000000000000000000000000000000000000000000000000000000000E0F93A
:6721CC000000000000000000000000000000000000000000000000000000000000000000000000000000000000000000000000000000000000000000000000000000000000000000000000000000000000000000000000000000000000000000000000000000000000E0F9D3
:672233000000000000000000000000000000000000000000000000000000000000000000000000000000000000000000000000000000000000000000000000000000000000000000000000000000000000000000000000000000000000000000000000000000000000E0F96B
:67229A000000000000000000000000000000000000000000000000000000000000000000000000000000000000000000000000000000000000000000000000000000000000000000000000000000000000000000000000000000000000000000000000000000000000E0F904
:672301000000000000000000000000000000000000000000000000000000000000000000000000000000000000000000000000000000000000000000000000000000000000000000000000000000000000000000000000000000000000000000000000000000000000E0F99C
:672368000000000000000000000000000000000000000000000000000000000000000000000000000000000000000000000000000000000000000000000000000000000000000000000000000000000000000000000000000000000000000000000000000000000000E0F935
:6723CF000000000000000000000000000000000000000000000000000000000000000000000000000000000000000000000000000000000000000000000000000000000000000000000000000000000000000000000000000000000000000000000000000000000000E0F9CE
:672436000000000000000000000000000000000000000000000000000000000000000000000000000000000000000000000000000000000000000000000000000000000000000000000000000000000000000000000000000000000000000000000000000000000000E0F966
:67249D000000000000000000000000000000000000000000000000000000000000000000000000000000000000000000000000000000000000000000000000000000000000000000000000000000000000000000000000000000000000000000000000000000000000E0F9FF
:672504000000000000000000000000000000000000000000000000000000000000000000000000000000000000000000000000000000000000000000000000000000000000000000000000000000000000000000000000000000000000000000000000000000000000E0F997
:67256B000000000000000000000000000000000000000000000000000000000000000000000000000000000000000000000000000000000000000000000000000000000000000000000000000000000000000000000000000000000000000000000000000000000000E0F930
:6725D2000000000000000000000000000000000000000000000000000000000000000000000000000000000000000000000000000000000000000000000000000000000000000000000000000000000000000000000000000000000000000000000000000000000000E0F9C9
:672639000000000000000000000000000000000000000000000000000000000000000000000000000000000000000000000000000000000000000000000000000000000000000000000000000000000000000000000000000000000000000000000000000000000000E0F961
:6726A0000000000000000000000000000000000000000000000000000000000000000000000000000000000000000000000000000000000000000000000000000000000000000000000000000000000000000000000000000000000000000000000000000000000000E0F9FA
:672707000000000000000000000000000000000000000000000000000000000000000000000000000000000000000000000000000000000000000000000000000000000000000000000000000000000000000000000000000000000000000000000000000000000000E0F992
:67276E000000000000000000000000000000000000000000000000000000000000000000000000000000000000000000000000000000000000000000000000000000000000000000000000000000000000000000000000000000000000000000000000000000000000E0F92B
:6727D5000000000000000000000000000000000000000000000000000000000000000000000000000000000000000000000000000000000000000000000000000000000000000000000000000000000000000000000000000000000000000000000000000000000000E0F9C4
:67283C000000000000000000000000000000000000000000000000000000000000000000000000000000000000000000000000000000000000000000000000000000000000000000000000000000000000000000000000000000000000000000000000000000000000E0F95C
:6728A3000000000000000000000000000000000000000000000000000000000000000000000000000000000000000000000000000000000000000000000000000000000000000000000000000000000000000000000000000000000000000000000000000000000000E0F9F5
:67290A000000000000000000000000000000000000000000000000000000000000000000000000000000000000000000000000000000000000000000000000000000000000000000000000000000000000000000000000000000000000000000000000000000000000E0F98D
:672971000000000000000000000000000000000000000000000000000000000000000000000000000000000000000000000000000000000000000000000000000000000000000000000000000000000000000000000000000000000000000000000000000000000000E0F926
:6729D8000000000000000000000000000000000000000000000000000000000000000000000000000000000000000000000000000000000000000000000000000000000000000000000000000000000000000000000000000000000000000000000000000000000000E0F9BF
:672A3F000000000000000000000000000000000000000000000000000000000000000000000000000000000000000000000000000000000000000000000000000000000000000000000000000000000000000000000000000000000000000000000000000000000000E0F957
:672AA6000000000000000000000000000000000000000000000000000000000000000000000000000000000000000000000000000000000000000000000000000000000000000000000000000000000000000000000000000000000000000000000000000000000000E0F9F0
:672B0D000000000000000000000000000000000000000000000000000000000000000000000000000000000000000000000000000000000000000000000000000000000000000000000000000000000000000000000000000000000000000000000000000000000000E0F988
:672B74000000000000000000000000000000000000000000000000000000000000000000000000000000000000000000000000000000000000000000000000000000000000000000000000000000000000000000000000000000000000000000000000000000000000E0F921
:672BDB000000000000000000000000000000000000000000000000000000000000000000000000000000000000000000000000000000000000000000000000000000000000000000000000000000000000000000000000000000000000000000000000000000000000E0F9BA
:672C42000000000000000000000000000000000000000000000000000000000000000000000000000000000000000000000000000000000000000000000000000000000000000000000000000000000000000000000000000000000000000000000000000000000000E0F952
:672CA9000000000000000000000000000000000000000000000000000000000000000000000000000000000000000000000000000000000000000000000000000000000000000000000000000000000000000000000000000000000000000000000000000000000000E0F9EB
:672D10000000000000000000000000000000000000000000000000000000000000000000000000000000000000000000000000000000000000000000000000000000000000000000000000000000000000000000000000000000000000000000000000000000000000E0F983
:672D77000000000000000000000000000000000000000000000000000000000000000000000000000000000000000000000000000000000000000000000000000000000000000000000000000000000000000000000000000000000000000000000000000000000000E0F91C
:672DDE000000000000000000000000000000000000000000000000000000000000000000000000000000000000000000000000000000000000000000000000000000000000000000000000000000000000000000000000000000000000000000000000000000000000E0F9B5
:672E45000000000000000000000000000000000000000000000000000000000000000000000000000000000000000000000000000000000000000000000000000000000000000000000000000000000000000000000000000000000000000000000000000000000000E0F94D
:672EAC000000000000000000000000000000000000000000000000000000000000000000000000000000000000000000000000000000000000000000000000000000000000000000000000000000000000000000000000000000000000000000000000000000000000E0F9E6
:672F13000000000000000000000000000000000000000000000000000000000000000000000000000000000000000000000000000000000000000000000000000000000000000000000000000000000000000000000000000000000000000000000000000000000000E0F97E
:672F7A000000000000000000000000000000000000000000000000000000000000000000000000000000000000000000000000000000000000000000000000000000000000000000000000000000000000000000000000000000000000000000000000000000000000E0F917
:672FE1000000000000000000000000000000000000000000000000000000000000000000000000000000000000000000000000000000000000000000000000000000000000000000000000000000000000000000000000000000000000000000000000000000000000E0F9B0
:67304800080000000000000000000000000000000000000000000000000000000000000000000000000000000000000000000000000000000000000000000000000000000000000000000000000000000000000000000000000000000000000000000000000000000068F9B8
:6730AF000000000000000000000000000000000000000000000000000000000000000000000000000000000000000000000000000000000000000000000000000000000000000000000000000000000000000000000000000000000000000000000000000000000000E0F9E1
:673116000000000000000000000000000000000000000000000000000000000000000000000000000000000000000000000000000000000000000000000000000000000000000000000000000000000000000000000000000000000000000000000000000000000000C2FB95
:67317D000000000000000000000000000000000000000000000000000000000000000000000000000000000000000000000000000000000000000000000000000000000000000000000000000000000000000000000000000000000000000000000000000000000000E0F912
:6731E4000000000000000000000000000000000000000000000000000000000000000000000000000000000000000000000000000000000000000000000000000000000000000000000000000000000000000000000000000000000000000000000000000000000000E0F9AB
:67324B000000000000000000000000000000000000000000000000000000000000000000000000000000000000000000000000000000000000000000000000000000000000000000000000000000000000000000000000000000000000000000000000000000000000E0F943
:6732B2000000000000000000000000000000000000000000000000000000000000000000000000000000000000000000000000000000000000000000000000000000000000000000000000000000000000000000000000000000000000000000000000000000000000E0F9DC
:673319000000000000000000000000000000000000000000000000000000000000000010000000000000000000000000000000000000000000000000000000000000000000000000000000000000000000000000000000000000000040000000000000000000000000E0FC21
:67338000080000000000000000000000000000000000000000000000000000000000000000000000000000000000000000000000000000000000000000000000000000000000000000000000000000800000000000000000000000000000000000000000000000000024FD3D
:6733E7000000000000000000000000000000000000000000000000000000000000000000000000000000000000000000000000000000000000000000000000000000000000000000000000000000000000000000000000000000000000000000000000000000000000E0F9A6
:67344E00000000000000000000000000000000000000000000000000000000000000001000000000000000000000000000000000000000000000000000000000000000000000000000000000000000000200000000000000000000000004000000000000000000000080FC85
:6734B500000000000000000000000000000000000000000000000000000000000000000000000000000000000000080000000000000000000000000000000000000000002000000000000000000000000000000000000000000000000000000000000000000000000068FB25
:67351C00000000000000000000000000000000000000000000000000000000000000000000000000000000000000080000000000000000000000000000000000000000000000000000000000000000000000000000000000000000000000000000000000000000000068F9DF
:673583000000000000000000000000000000000000000000000000000000000000000000000000000000000000000000000000000000000000000000000000000000000040000000000000000000000000000000000000000000000000000000000000000000000000E0FDC4
:6735EA000000000000000000000000000000000000000000000000000000000000000000000000000000000000000000000000000000000000000000000000000000000000000000000000000000000000000000000000000000000000000000000000000000000000E0F9A1
:673651000000000000000000000000000000000000000000000000000000000000000000000000000000000000000000000000000000000000000000000000000000000000000000000000000000000000000000000000000000000000000000000000000000000000E0F939
:6736B8000000000000000000000000000000000000000000000000000000000000000000000000000000000000000000000000000000000000000000000000000000000000000000000000000000000000000000000000000000000000000000000000000000000000E0F9D2
:67371F001000000000000000000000000000000000000000000000000000000000000000000000000000000000000000000000000000000000000000000000000000000000000000000000000000000000000000000000000000000000000000000000000000000000F0F84B
:673786000000000000000000000000000000000000000000000000000000000000000000000000000000000000000000000000000000000000000000000000000000000000000000000000000000000000000000000000000000000000000000000000000000000000E0F903
:6737ED000000000000000000000000000000000000000000000000000000000000000000000000000000000000000000000000000000000000000000000000000000000000000000000000000000000000000000000000000000000000000000000000000000000000E0F99C
:673854000000000000000000000000000000000000000000000000000000000000000000000000000000000000000000000000000000000000000000000000000000000000000000000000000000000000000000000000000000000000000000000000000000000000E0F934
:6738BB000000000000000000000000000000000000000000000000000000000000000000000000000000000000000000000000000000000000000000000000000000000000000000000000000000000000000000000000000000000000000000000000000000000000E0F9CD
:673922000000000000000000000000000000000000000000000000000000000000000000000000000000000000000000000000000000000000000000000000000000000000000000000000000000000000000000000000000000000000000000000000000000000000A4FD9D
:673989000000000000000000000000000000000000000000000000000000000000000000000000000000000000000000000000000000000000000000000000000000000000000000000000000000000000000000000000000000000000000000000000000000000000E0F9FE
:6739F0000000000000000000000000000000000000000000000000000000000000000000000000000000000000000000000000000000000000000000000000000000000000000000000000000000000000000000000000000000000000000000000000000000000000E0F997
:673A57000000000000000000000000000000000000000000000000000000000000000000000000000000000000000000000000000000000000000000000000000000000000000000000000000000000000000000000000000000000000000000000000000000000000E0F92F
:673ABE000000000000000000000000000000000000000000000000000000000000000000000000000000000000000200000000000000000000000000000000000000000000000000000000000000000000000000000000000000000000000000000000000000000000E0FBC4
:673B25000000000000104800000000000000000000000000000000000000000000000000000000006802000000000000000000000000000000000000000000000080000000000000000000200400800000000000000000000000000000100242000000000000000000E8F91E
:673B8C00000000000000000000000000000000000000000000000000000000000000000000000000608000000000000000000000000000000000000000000000000000000000000000000000000200000000000000000000000000000000000104000000000000000078FB78
:673BF3000000000000704000000000000000000000000000000000000000000000000000000000006000000000000000000000000000000000000000000000000000000000000000000000600000000000000000000000000000000000300000040000000000000000A0FF28
:673C5A000000000000900400000000000000000000000000000000000000000000000000000000006082000000000000000000000000000000000000000000000000000000000000000000A01101000000000000000000000000000000D0880001000000000000000058FA30
:673CC100000000000040180000000000000000000000000000000000000000000000000000000000401200000000000000000000000000000000000000000000000040000000000000000080440000400000000000000000000000000040084020000000000000000070FD99
:673D2800000000000030000000000000000000000000000000000000000000000000000000000000780000000000000000000000000000000000000000000000008001010000000000000060000080010100000000000000000000000030200600000000000000000030FDA5
:673D8F00000000000000000000000000000000000000000000000000000000000000000000000000600000000000000000000000000000000000000000000000000006010000000000000000010000060100000000000000000000000080000004000000000000000030FBAF
:673DF6000000000000802400000000000000000000000000000000000000000000000000000000006014000000000000000000000000000000000000000000000000260000000000000000004800001600000000000000000000000000002450000000000000000000D8FE80
:673E5D00000000000010480000000000000000000000000000000000000000000000000000000000080200000000000000000000000000000000000000000000008000000000000000000020040080000000000000000000000000000010020200000000000000000088FBE1
:673EC400000000000000000000000000000000000000000000000000000000000000000000000000008000000000000000000000000000000000000000000000000000000000000000000000000200000000000000000000000000000000200000000000000000000068FB92
:673F2B000000000000704000000000000000000000000000000000000000000000000000000000002000000000000000000000000000000000000000000000000000000000000000000000600000000000000000000000000000000000002000040000000000000000F0F9F2
:673F92000800000000900400000000000000000000000000000000000000000000000000000000000082000000000000000000000000000000000000000000000000000000000000000000A01101000000000000000000000000000000000400010000000000000000C2FA37
:673FF900000000000040240000000000000000000000000000000000000000000000000000000000001200000000000000000000000000000000000000000000000020000000000000000080080000200000000000000000000000000000084020000000000000000000F8C3
:67406000000000000030000000000000000000000000000000000000000000000000000000000000180000000000000000000000000000000000000000000000008001010000000000000060400080010100000000000000000000000030800600000000000000000038FD22
:6740C7000400000000000000000000000000000000000000000000000000000000000000000000000000000000000000000000000000000000000000000000000000060100000000000000000100000600000000000000000000000000002000040000000000000000F1FA71
:67412E000000000000802000000000000000000000000000000000000000000000000000000000000014000000000000000000000000000000000000000000000000160000000000000000004000001601000000000000000000000000800858000000000000000000B8FA77
:674195000000000000104800000000000000000000000000000000000000000000000000000000002804000000000000000000000000000000000000000000000080100000000000000000200400801000000000000000000000000000100242000000000000000000C8FCE3
:6741FC000000000000000000000000000000000000000000000000000000000000000000000000004010000000000000000000000000000000000000000000000000000800000000000000000002000008000000000000000000000000000001200000000000000000B8FC25
:67426300000000000070400000000000000000000000000000000000000000000000000000000000780000000000000000000000000000000000000000000000008001000000000000000060000080010000000000000000000000000030000600000000000000000000FA3A
:6742CA000800000000900400000000000000000000000000000000000000000000000000000000006812000000000000000000000000000000000000000000000080460400000000000000A0110180460400000000000000000000000090881A1100000000000000002AF8CC
:674331000000000000400400000000000000000000000000000000000000000000000000000000000040000000000000000000000000000000000000000000000000020000000000000000804800002200000000000000000000000000C00208010000000000000000B8FC36
:67439800000000000030200000000000000000000000000000000000000000000000000000000000180000000000000000000000000000000000000000000000008001010000000000000060000080010100000000000000000000000030200604000000000000000030FD6B
:6743FF00040000000000000000000000000000000000000000000000000000000000000000000000000000000000000000000000000000000000000000000000000004000000000000000000010000040000000000000000000000000080001000000000000000000031FC8D
:67446600000000000080220000000000000000000000000000000000000000000000000000000000601100000000000000000000000000000000000000000000000010010000000000000000440000100100000000000000000000000000284004000000000000000088FC86
:6744CD00000000000010000000000000000000000000000000000000000000000000000000000000082400000000000000000000000000000000000000000000008000000000000000000020000080000000000000000000000000000010000200000000000000000020FBFF
:674534000000000000000000000000000000000000000000000000000000000000000000000000000000000000000000000000000000000000000000000000000000000000000000000000000000000000000000000000000000000000000000000000000000000000E0F947
:67459B00000000000000000000000000000000000000000000000000000000000000000000000000382000000000000000000000000000000000000000000000000000000000000000000000000000000000000000000000000000000000200000000000000000000078FACF
:674602000800000000000000000000000000000000000000000000000000000000000000000000004802000000000000000000000000000000000000000000000000000000000000000000000000000000000000000000000000000000000400000000000000000000A2FB5E
:67466900000000000000240000000000000000000000000000000000000000000000000000000000204000000000000000000000000000000000000000000000000010000000000000000000480000000800000000000000000000000000084020000000000000000010F995
:6746D000000000000030000000000000000000000000000000000000000000000000000000000000180000000000000000000000000000000000000000000000008001040000000000000060000080010000000000000000000000000030800600000000000000000068FCBB
:674737000400000000C0000000000000000000000000000000000000000000000000000000000000000000000000000000000000000000000000000000000000000006010000000000000080010000060100000000000000000000000000201804000000000000000021FB70
:67479E000000000000C02000000000000000000000000000000000000000000000000000000000004014000000000000000000000000000000000000000000000000460000000000000000804500002600000000000000000000000000C0085800000000000000000008F82F
:67480500000000000010000000000000000000000000000000000000000000000000000000000000082400000000000000000000000000000000000000000000008010000000000000000020000080100000000000000000000000000010024200000000000000000020FC60
:67486C000000000000000000000000000000000000000000000000000000000000000000000000000000000000000000000000000000000000000000000000000000000800000000000000000000000008000000000000000000000000000001200000000000000000D8F9E3
:6748D300000000000000000000000000000000000000000000000000000000000000000000000000182000000000000000000000000000000000000000000000008001000000000000000000000080010000000000000000000000000030000600000000000000000030FAE4
:67493A000800000000000000000000000000000000000000000000000000000000000000000000004802000000000000000000000000000000000000000000000080460400000000000000000000804604000000000000000000000000D0881A1100000000000000007AFF34
:6749A100000000000000220000000000000000000000000000000000000000000000000000000000201200000000000000000000000000000000000000000000000012000000000000000000440000020000000000000000000000000040088800000000000000000070FAC9
:674A0800000000000030000000000000000000000000000000000000000000000000000000000000580000000000000000000000000000000000000000000000008001040000000000000060000080010100000000000000000000000030800604000000000000000078FC2A
:674A6F000400000000C0200000000000000000000000000000000000000000000000000000000000001000000000000000000000000000000000000000000000000004010000000000000080010000040100000000000000000000000080201004000000000000000021F894
:674AD6000000000000C00000000000000000000000000000000000000000000000000000000000004001000000000000000000000000000000000000000000000000400000000000000000804900004000000000000000000000000000000800010000000000000000A0FD89
:674B3D00000000000010000000000000000000000000000000000000000000000000000000000000080000000000000000000000000000000000000000000000008010000000000000000020000080100000000000000000000000000010004200000000000000000060FC0B
:674BA4000000000000000000000000000000000000000000000000000000000000000000000000000000000000000000000000000000000000000000000000000000000800000000000000000000000008000000000000000000000000000000200000000000000000C8F9B9
:674C0B00000000000000000000000000000000000000000000000000000000000000000000000000002000000000000000000000000000000000000000000000008001000000000000000000000080010000000000000000000000000000000600000000000000000098FB87
:674C7200080000000000000000000000000000000000000000000000000000000000000000000000000400000000000000000000000000000000000000000000008046040000000000000000000080460400000000000000000000000000001A11000000000000000082FB93
:674CD900000000000000180000000000000000000000000000000000000000000000000000000000004000000000000000000000000000000000000000000000000022000000000000000000100200420000000000000000000000000000084820000000000000000020FD19
:674D4000000000000030000000000000000000000000000000000000000000000000000000000000180000000000000000000000000000000000000000000000008001010000000000000060000080010100000000000000000000000030800600000000000000000078F939
:674DA7000400000000C00000000000000000000000000000000000000000000000000000000000000000000000000000000000000000000000000000000000000000040100000000000000804100000401000000000000000000000000C0201004000000000000000001FF22
:674E0E000000000000C02400000000000000000000000000000000000000000000000000000000006014000000000000000000000000000000000000000000000000100000000000000000800900001000000000000000000000000000C0084000000000000000000060FCD8
:674E75001000000000104800000000000000000000000000000000000000000000000000000000000800000000000000000000000000000000000000000000000080000000000000000000200000800000000000000000000000000000100042000000000000000000B8F844
:674EDC000000000000000000000000000000000000000000000000000000000000000000000000000000000000000000000000000000000000000000000000000000000000000000000000000000000000000000000000000000000000000000200000000000000000C0F996
:674F43000000000000704000000000000000000000000000000000000000000000000000000000000000000000000000000000000000000000000000000000000000000000000000000000000000000000000000000000000000000000000006000000000000000000B0FDA4
:674FAA000C0000000090040000000000000000000000000000000000000000000000000000000000000000000000000000000000000000000000000000000000000000000000000000000000000000000000000000000000000000000000001A1100000000000000007AFB60
:67501100040000000040220000000000000000000000000000000000000000000000000000000000004000000000000000000000000000000000000000000000000000000000000000000000080000000000000000000000000000000000080800000000000000000000F981
:67507800000000000030000000000000000000000000000000000000000000000000000000000000180000000000000000000000000000000000000000000000008001010000000000000060400080010100000000000000000000000030200604000000000000000050FB40
:6750DF000C00000000002000000000000000000000000000000000000000000000000000000000006000000000000000000000000000000000000000000000000000060000000000000000800100000601000000000000000000000000C0001004000000000000000049FC37
:675146000000000000800000000000000000000000000000000000000000000000000000000000006014000000000000000000000000000000000000000000000000160100000000000000804100004600000000000000000000000000C0240000000000000000000050F8C4
:6751AD00000000000010020000000000000000000000000000000000008104000000000000000000082200000000000000000000000000000000000000000000008010000000000000000020040080100000000000000000000000000010020200000000000000000098FAF0
:675214000000000000002000000000000000000000000000000000000000000000000000000000000000000000000000000000000000000000000000000000000000000800000000000000000002000008000000000000000000000000000001000000000000000000F8FB0D
:67527B000000000000000000000000000000000000000000000000000003040000000000000000000010000000000000000000000000000000000000000000000080010000000000000000600000800100000000000000000000000000300000000000000000000000D8FC4F
:6752E2000800000000402000000000000000000000000000000000000049000000000000000000000004000000000000000000000000000000000000000000000080460400000000000000A0110180460400000000000000000000000090880000000000000000000062FDF3
:675349000000000000004400000000000000000000000000000000000004020000000000000000000040000000000000000000000000000000000000000000000000420000000000000000801002000208000000000000000000000000C0200000000000000000000070FC49
:6753B000000000000030000000000000000000000000000000000000000B00000000000000000000180000000000000000000000000000000000000000000000008001010000000000000060000080010000000000000000000000000030000604000000000000000090FD19
:67541700040000000000000000000000000000000000000000000000000010000000000000000000000000000000000000000000000000000000000000000000000004010000000000000000410000040100000000000000000000000080201804000000000000000091FF83
:67547E00000000000000240000000000000000000000000000000000000800000000000000000000401400000000000000000000000000000000000000000000000020000000000000000000080000200000000000000000000000000000021800000000000000000048FBA2
:6754E5000000000000000000000000000000000000000000000000000000000000000000000000000000000000000000000000000000000000000000000000000000000000000000000000000000000000000000000000000000000000000000000000000000000000E0F987
:67554C00200004800010000240000800012000048000100002400008000120000480001000024000080001200004000000000000000000000000000000002000048000100002400008000120000480001000024000080001200004800010000240000800012000040080F93D
:6755B3000000000000000000000000000000000000000000000000000000000000000000000000000000000000000000000000000000000000000000000000000000000000000000000000000000000000000000000000000000000000000000000000000000000000E0F9B8
:67561A0028000480001000024000080001200004800010000240000800012000048000100002400008000120000400000000000000000000000000000000200004800010000240000800012000048000100002400008000120000480001000024000080001200004002AFBBA
:67568100000000000080000000000000000000000000000000000000000800000000000000000000400000000000000000000000000000000000000000000000000004000000000000000000010000040000000000000000000000000080001000000000000000000060FD04
:6756E800200004800000000240000800012000048000100002400008000020000480001000024000000001200004000000000000000000000000000000002000040000100002400008000100000400001000024000080001200004800000000040000800012000040010F95B
:67574F000400000000000000000000000000000000000000000000000000000000000000000000000000000000000000000000000000000000000000000000000000000000000000000000000000000000000000000000000000000000000000000000000000000000F1FC02
:6757B600200004800010000240000800012000048000100002400008000120000480001000024000080001200004000000000000000000000000000000002000048000100002400008000120000480001000024000080001200004800010000240000800012000040080F9D1
:67581D00000000000000000000000000000000000000000000000000000000000000000000000000000000000000000000000000000000000000000000000000000040000000000000000000100000400000000000000000000000000000080001000000000000000068FD26
:675884000000000000000000000000000000000000000000000000000000000000000000000000000000000000000000000000000000000000000000000000000000000000000000000000000000000000000000000000000000000000000000000000000000000000E0F9E4
:6758EB000000000000000000000000000000000000000000000000000000000000000000000000000000000000000000000000000000000000000000000000000000000000000000000000000000000000000000000000000000000000000000000000000000000000E0F97D
:675952000000000000000000000000000000000000000000000000000000000000000000000000000000000000000000000000000000000000000000000000000000000000000000000000000000000000000000000000000000000000000000000000000000000000E0F915
:6759B9000000000000000000000000000000000000000000000000000000000000000000000000000000000000000000000000000000000000000000000000000000000000000000000000000000000000000000000000000000000000000000000000000000000000E0F9AE
:675A20000000000000000000000000000000000000000000000000000000000000000000000000000000000000000000000000000000000000000000000000000000000000000000000000000000000000000000000000000000000000000000000000000000000000E0F946
:675A87000000000000000000000000000000000000000000000000000000000000000000000000000000000000000000000000000000000000000000000000000000000000000000000000000000000000000000000000000000000000000000000000000000000000E0F9DF
:675AEE000000000000200000000000000000000000000000000000000002000000000000000000001000000000000000000000000000000000000000000000000000000000000000000000000000000000000000000000000000000000000000000000000000000000F0F837
:675B55000000000000000000000000000000000000000000000000000000000000000000000000000000000000000000000000000000000000000000000000000000000000000000000000000000000000000000000000000000000000000000000000000000000000E0F910
:675BBC000000000000000000000000000000000000000000000000000000000000000000000000000000000000000000000000000000000000000000000000000000000000000000000000000000000000000000000000000000000000000000000000000000000000E0F9A9
:675C23000000000000000000000000000000000000000000000000000000000000000000000000000000000000000000000000000000000000000000000000000000000000000000000000000000000000000000000000000000000000000000000000000000000000E0F941
:675C8A000000000000000000000000000000000000000000000000000000000000000000000000000000000000000000000000000000000000000000000000000000000000000000000000000000000000000000000000000000000000000000000000000000000000E0F9DA
:675CF1000000000000000000000000000000000000000000000000000000000000000000000000000000000000000000000000000000000000000000000000000000000000000000000000000000000000000000000000000000000000000000000000000000000000E0F973
:675D58000000000000000000000000000000000000000000000000000000000000000000000000000000000000000000000000000000000000000000000000000000000000000000000000000000000000000000000000000000000000000000000000000000000000E0F90B
:675DBF000000000000000100000000000000000000000000000000000000000000000000000000000000000000000000000000000000000000000000000000000000000000000000000000000000000000000000000000000000000000000000000000000000000000E0F8A4
:675E26000000000000000000000000000000000000000000000000000000000000000000000000000000000000000000000000000000000000000000000000000000000000000000000000000000000000000000000000000000000000000000000000000000000000E0F93C
:675E8D000000000000000000000000000000000000000000000000000000000000000000000000000000000000000000000000000000000000000000000000000000000000000000000000000000000000000000000000000000000000000000000000000000000000E0F9D5
:675EF40000000000001000000000000000000000000000000000000000000000000000000000000040010000000000000000000000000000000000000000000000001400000000000000000028000014000000000000000000000000A080020000000000000000000040FE46
:675F5B000000000000000000000000000000000000000000000000000000000000000000000000000000000000000000000000000000000000000000000000000000000000000000000000008002520000000000000000000000000020000000002005000000000000C8FB03
:675FC2000000000000000000000000000000000000000000000000000000000000000000000000000000000000000000000000000000000000000000000000000000000000000000000000000000000000000000000000000000000000000000000000000000000000E0F99F
:676029000000000000000000000000000000000000000000000000000000000000000000000000000000000000000000000000000000000000000000000000000000000000000000000000000000000000000000000000000000000000000000000000000000000000E0F937
:676090000000000000000000000000000000000000000000000000000000000000000000000000000000000000000000000000000000000000000000000000000000000000000000000000000000000000000000000000000000000000000000000000000000000000E0F9D0
:6760F7000000000000000000000000000000000000000000000000000000000000000000000000000000000000000000000000000000000000000000000000000000000000000000000000000000000000000000000000000000000000000000000000000000000000E0F969
:67615E000000000000000000000000000000000000000000000000000000000000000000000000000000000000000000000000000000000000000000000000000000000000000000000000000000000000000000000000000000000000000000000000000000000000E0F901
:6761C5000000000000000000000000000000000000000000000000000000000000000000000000000000000000000000000000000000000000000000000000000000000000000000000000000000000000000000000000000000000000000000000000000000000000E0F99A
:67622C000000000000000000000000000000000000000000000000000000000000000000000000000000000000000000000000000000000000000000000000000000000000000000000000000000000000000000000000000000000000000000000000000000000000E0F932
:676293000000000000000000000000000000000000000000000000000000000000000000000000000000000000000000000000000000000000000000000000000000000000000000000000000000000000000000000000000000000000000000000000000000000000E0F9CB
:6762FA000000000000000000000000000000000000000000000000000000000000000000000000000000000000000000000000000000000000000000000000000000000000000000000000000000000000000000000000000000000000000000000000000000000000E0F964
:676361000000000000000000000000000000000000000000000000000000000000000000000000000000000000000000000000000000000000000000000000000000000000000000000000000000000000000000000000000000000000000000000000000000000000E0F9FC
:6763C8000000000000000000000000000000000000000000000000000000000000000000000000000000000000000000000000000000000000000000000000000000000000000000000000000000000000000000000000000000000000000000000000000000000000E0F995
:67642F000000000000000000000000000000000000000000000000000000000000000000000000000000000000000000000000000000000000000000000000000000000000000000000000000000000000000000000000000000000000000000000000000000000000E0F92D
:676496000000000000000000000000000000000000000000000000000000000000000000000000000000000000000000000000000000000000000000000000000000000000000000000000000000000000000000000000000000000000000000000000000000000000E0F9C6
:6764FD000000000000000000000000000000000000000000000000000000000000000000000000000000000000000000000000000000000000000000000000000000000000000000000000000000000000000000000000000000000000000000000000000000000000E0F95F
:676564000000000000000000000000000000000000000000000000000000000000000000000000000000000000000000000000000000000000000000000000000000000000000000000000000000000000000000000000000000000000000000000000000000000000E0F9F7
:6765CB000000000000000000000000000000000000000000000000000000000000000000000000000040000000000000000000000000000000000000000000000000000000000000000000000000000000000000000000000000000000000000000000000000000000E0FD4C
:67663200000000000040000000000000000000000000000000000000000000000000000000000000200000000000000000000000000000000000000000000000000000000000000000000000000000000000000000000000000000000000000000000000000000000080FB26
:676699000000000000000000000000000000000000000000000000000000000000000000000000000001000000000000000000000000000000000000000000000000000000000000000000000000000000000000000000000000000000000000000000000000000000F0F9B0
:676700000000000000000000000000000000000000000000000000000000000000000000000000000000000000000000000000000000000000000000000000000000000000000000000000000000000000000000000000000000000000000000000000000000000000E0F959
:676767000000000000100000000000000000000000000000000000000000000000000000000000000000000000000000000000000000000000000000000000000000000000000000000000000000000000000000000000000000000000000000000000000000000000F0F9D2
:6767CE000000000000000000000000000000000000000000000000000000000000000000000000000000000000000000000000000000000000000000000000000000000400000000000000004001000004000000000000000000000000008000100000000000000000E8F9AA
:676835000000000000000000000000000000000000000000000000000000000000000000000000000000000000000000000000000000000000000000000000000000000000000000000000000000000000000000000000000000000000000000000000000000000000E0F923
:67689C00000000000000000000000000000000000000000000000000000000000000000000000000008000000000000000000000000000000000000000000000000000000000000000000000000000000000000000000000000000000000000000000000000000000068F9B4
:67690300080000000000000000000000000000000000000000000000000000000000000000000000000000000000000000000000000000000000000000000000000000000000000000000000000000000000000000000000000000000000000000000000000000000068F9C4
:67696A000000000000000000000000000000000000000000000000000000000000000000000000000000000000000000000000000000000000000000000000000000000000000000000000000000000000000000000000000000000000000000000000000000000000E0F9ED
:6769D1000000000000000000000000000000000000000000000000000000000000000000000000000000000000000000000000000000000000000000000000000000000000000000000000000000000000000000000000000000000000000000000000000000000000E0F986
:676A38000000000000000000000000000000000000000000000000000000000000000000000000000000000000000000000000000000000000000000000000000000000000000000000000000000000000000000000000000000000000000000000000000000000000E0F91E
:676A9F000000000000800000000000000000000000000000000000000000000000000001000000004000000000000000000000000000000000000000000000000000040000000000000000000100000400000000000000000000000000800000000000000000000000F0FC5A
:676B0600080000000000000000000000000000000000000000000000000000000000000000000000000000000000000000000000000000000000000000000000000000000000000000000000000000000000000000000000000000000000000000000000000000000068F9BF
:676B6D000000000000000000000000000000000000000000000000000000000000000000000000000000000000000000000000000000000000000000000000000000000000000000000000000000000000000000000000000000000000000000000000000000000000E0F9E8
:676BD4000000000000100000000000000000000000000000000000000000000000000004000000000800000000000000000000000000000000000000000000000080A00000000000000000200000800001140000000000000000000000101400040000000000000000B0FC95
:676C3B000000000000C00000000000000000000000000000000000000008000000000000200000004000000000000000000000000000000000000000000000010000010A0000000000000040000000010004000000000000000000000420000410200200000000000078F8AF
:676CA2000000000000000000000000000000000000000000000000000000000000000000400000000000000000000000000000000000000000000000000000000000000000000000000000000000000000000000000000000000000000000000000000000000000000A0F9B2
:676D0900000000000080000000000000000000000000000000000000000000000000000000000000000000000000000000000000000000000000000000002000000000000000000000000000000000000000000000000000000000000000000000000000000000000060FB28
:676D70000000000000800000000000000000000000000000000000000008000000000000000000004000000000000000000000000000000000000000000000000000000000000000000000000000000000000000000000000000000010000000000000000000000000A0FC48
:676DD7000000000000200000000000000000000000000000000000000002000000000000000000001000000000000000000000000000000000000000000000000000000000000000000000000000000000000000000000000000000000000000000000000000000000F0F83B
:676E3E000000000000000000000000000000000000000000000000000000000000000000000000000000000000000000000000000000000000000000000000000000000000000000000000000000000000000000000000000000000000000000000000000000000000E0F914
:676EA5000000000000000000000000000000000000000000000000000000000000000000000000000000000000000000000000000000000000000000000000000000000000000000000000000000000000000000000000000000000000000000000000000000000000E0F9AD
:676F0C000000000000000000000000000000000000000000000000000000000000000000000000000000000000000000000000000000000000000000000000000000000000000000000000000000000000000000000000000000000000000000000000000000000000E0F945
:676F73000000000000000000000000000000000000000000000000000000000000000000000000000000000000000000000000000000000000000000000000000000000000000000000000000000000001000000000000000000000000000000000000000000000000F0F9CD
:676FDA000000000000000000000000000000000000000000000000000000000000000000000000000000000000000000000000000000000000000000000000000000000000000000000000000000000000000000000000000000000000000000000000000000000000E0F977
:677041000000000000000000000000000000000000000000000000000000000000000000000000000000000000000000000000000000000000000000000000000000000000000000000000000000000000000000000000000000000000000000000000000000000000E0F90F
:6770A8000000000000000000000000000000000000000000000000000000020000000000000000000000000000000000000000000000000000000000000000000000000000000000000000000000000000000000000000000000000000000000000000000000000000C0FBC4
:67710F000000000000000000000000000000000000000000000000000000000000000000000000000000000000000000000000000000000000000000000000000000000000000000000000000000000000000000000000000000000000000000000000000000000000E0F940
:677176000000000000000000000000000000000000000000000000000000000000000000000000000000000000000000000000000000000000000000000000000000000000000000000000000000000000000000000000000000000000000000000000000000000000E0F9D9
:6771DD000000000000000000000000000000000000000000000000000000000000000000000000000000000000000000000000000000000000000000000000000000000000000000000000000000000000000000000000000000000000001000080000000000000000F8F843
:677244000000000000000000000000000000000000000000000000000000000000000000000000000000000000000000000000000000000000000000000000000000400000000000000000000000000000000000000000000000000000000000000000000000000000A0F90A
:6772AB000000000000000000000000000000000000000000000000000000000000000000000000000000000000000000000000000000000000000000000020080401000000820000280100000084A02450228200000000002008008020900882000000000000009408B0FA40
:677312000000000000000000000000000000000000000000000000000000000000000000000000000000000000000000000000000000000000000000000000000120000000002000402000000000000044000010000000008040000000042000100000000000002000B8FF54
:677379000000000000000000000000000000000000000000000000000000000000000000000000000000000000000000000000000000000000000000000060012C00000000000800380000000000800500001600000000000001008005B0001600000000000000000860FB96
:6773E000000000000000000000000000000000000000000000000000000000000000000000000000000000000000000000000000000000000000000000002048040900000050000048000000000088200148820400000000002000802011248204000000000000000278FCD1
:677447000000000000000000000000000000000000000000000000000000000000000000000000000000000000000000000000000000000000000000000000452002000000000200200000000000218000841001000000008080000044000210010000000000008000F0FE5A
:6774AE0000000000000000000000000000000000000000000000000000000000000000000000000000000000000000000000000000000000000000000000E0001C0800000006000058000000000C800330000E0400000000600000800371200E040000000000003C20C0FEA4
:67751500000000000000000000000000000000000000000000000000000000000000000000000000000000000000000000000000000000000000000000000081204000000000000020000000000000048000100000000000000000000480001000000000000000001028FBB3
:67757C00000000000000000000000000000000000000000000000000000000000000000000000000000000000000000000000000000000000000000000008000100100000040100040000000002011028128080200000000000502000202280802000000000000800010F8DC
